{
	"contracts/projects/WalletSmartContract.sol": {
		"WalletSmartContract": {
			"abi": [
				{
					"inputs": [],
					"name": "balance",
					"outputs": [
						{
							"internalType": "uint256",
							"name": "",
							"type": "uint256"
						}
					],
					"stateMutability": "view",
					"type": "function"
				},
				{
					"inputs": [],
					"name": "deposit",
					"outputs": [],
					"stateMutability": "payable",
					"type": "function"
				},
				{
					"inputs": [],
					"name": "getContractBalance",
					"outputs": [
						{
							"internalType": "uint256",
							"name": "",
							"type": "uint256"
						}
					],
					"stateMutability": "view",
					"type": "function"
				},
				{
					"inputs": [],
					"name": "withdrawAll",
					"outputs": [],
					"stateMutability": "payable",
					"type": "function"
				},
				{
					"inputs": [
						{
							"internalType": "address payable",
							"name": "to",
							"type": "address"
						}
					],
					"name": "withdrawToAddress",
					"outputs": [],
					"stateMutability": "payable",
					"type": "function"
				}
			],
			"devdoc": {
				"kind": "dev",
				"methods": {},
				"version": 1
			},
			"evm": {
				"assembly": "    /* \"contracts/projects/WalletSmartContract.sol\":58:563  contract WalletSmartContract {... */\n  mstore(0x40, 0x80)\n  callvalue\n  dup1\n  iszero\n  tag_1\n  jumpi\n  0x00\n  dup1\n  revert\ntag_1:\n  pop\n  dataSize(sub_0)\n  dup1\n  dataOffset(sub_0)\n  0x00\n  codecopy\n  0x00\n  return\nstop\n\nsub_0: assembly {\n        /* \"contracts/projects/WalletSmartContract.sol\":58:563  contract WalletSmartContract {... */\n      mstore(0x40, 0x80)\n      jumpi(tag_1, lt(calldatasize, 0x04))\n      shr(0xe0, calldataload(0x00))\n      dup1\n      0x6f9fb98a\n      eq\n      tag_2\n      jumpi\n      dup1\n      0x853828b6\n      eq\n      tag_3\n      jumpi\n      dup1\n      0xa92bd72c\n      eq\n      tag_4\n      jumpi\n      dup1\n      0xb69ef8a8\n      eq\n      tag_5\n      jumpi\n      dup1\n      0xd0e30db0\n      eq\n      tag_6\n      jumpi\n    tag_1:\n      0x00\n      dup1\n      revert\n        /* \"contracts/projects/WalletSmartContract.sol\":197:299  function getContractBalance() public view returns (uint) {... */\n    tag_2:\n      callvalue\n      dup1\n      iszero\n      tag_7\n      jumpi\n      0x00\n      dup1\n      revert\n    tag_7:\n      pop\n      tag_8\n      tag_9\n      jump\t// in\n    tag_8:\n      mload(0x40)\n      tag_10\n      swap2\n      swap1\n      tag_11\n      jump\t// in\n    tag_10:\n      mload(0x40)\n      dup1\n      swap2\n      sub\n      swap1\n      return\n        /* \"contracts/projects/WalletSmartContract.sol\":305:443  function withdrawAll() public payable {... */\n    tag_3:\n      tag_12\n      tag_13\n      jump\t// in\n    tag_12:\n      stop\n        /* \"contracts/projects/WalletSmartContract.sol\":449:561  function withdrawToAddress(address payable to) public payable {... */\n    tag_4:\n      tag_14\n      0x04\n      dup1\n      calldatasize\n      sub\n      dup2\n      add\n      swap1\n      tag_15\n      swap2\n      swap1\n      tag_16\n      jump\t// in\n    tag_15:\n      tag_17\n      jump\t// in\n    tag_14:\n      stop\n        /* \"contracts/projects/WalletSmartContract.sol\":94:113  uint public balance */\n    tag_5:\n      callvalue\n      dup1\n      iszero\n      tag_18\n      jumpi\n      0x00\n      dup1\n      revert\n    tag_18:\n      pop\n      tag_19\n      tag_20\n      jump\t// in\n    tag_19:\n      mload(0x40)\n      tag_21\n      swap2\n      swap1\n      tag_11\n      jump\t// in\n    tag_21:\n      mload(0x40)\n      dup1\n      swap2\n      sub\n      swap1\n      return\n        /* \"contracts/projects/WalletSmartContract.sol\":120:191  function deposit() public payable {... */\n    tag_6:\n      tag_22\n      tag_23\n      jump\t// in\n    tag_22:\n      stop\n        /* \"contracts/projects/WalletSmartContract.sol\":197:299  function getContractBalance() public view returns (uint) {... */\n    tag_9:\n        /* \"contracts/projects/WalletSmartContract.sol\":248:252  uint */\n      0x00\n        /* \"contracts/projects/WalletSmartContract.sol\":271:292  address(this).balance */\n      selfbalance\n        /* \"contracts/projects/WalletSmartContract.sol\":264:292  return address(this).balance */\n      swap1\n      pop\n        /* \"contracts/projects/WalletSmartContract.sol\":197:299  function getContractBalance() public view returns (uint) {... */\n      swap1\n      jump\t// out\n        /* \"contracts/projects/WalletSmartContract.sol\":305:443  function withdrawAll() public payable {... */\n    tag_13:\n        /* \"contracts/projects/WalletSmartContract.sol\":353:371  address payable to */\n      0x00\n        /* \"contracts/projects/WalletSmartContract.sol\":382:392  msg.sender */\n      caller\n        /* \"contracts/projects/WalletSmartContract.sol\":353:393  address payable to = payable(msg.sender) */\n      swap1\n      pop\n        /* \"contracts/projects/WalletSmartContract.sol\":403:405  to */\n      dup1\n        /* \"contracts/projects/WalletSmartContract.sol\":403:414  to.transfer */\n      0xffffffffffffffffffffffffffffffffffffffff\n      and\n        /* \"contracts/projects/WalletSmartContract.sol\":403:436  to.transfer(getContractBalance()) */\n      0x08fc\n        /* \"contracts/projects/WalletSmartContract.sol\":415:435  getContractBalance() */\n      tag_26\n        /* \"contracts/projects/WalletSmartContract.sol\":415:433  getContractBalance */\n      tag_9\n        /* \"contracts/projects/WalletSmartContract.sol\":415:435  getContractBalance() */\n      jump\t// in\n    tag_26:\n        /* \"contracts/projects/WalletSmartContract.sol\":403:436  to.transfer(getContractBalance()) */\n      swap1\n      dup2\n      iszero\n      mul\n      swap1\n      mload(0x40)\n      0x00\n      mload(0x40)\n      dup1\n      dup4\n      sub\n      dup2\n      dup6\n      dup9\n      dup9\n      call\n      swap4\n      pop\n      pop\n      pop\n      pop\n      iszero\n      dup1\n      iszero\n      tag_28\n      jumpi\n      returndatasize\n      0x00\n      dup1\n      returndatacopy\n      revert(0x00, returndatasize)\n    tag_28:\n      pop\n        /* \"contracts/projects/WalletSmartContract.sol\":343:443  {... */\n      pop\n        /* \"contracts/projects/WalletSmartContract.sol\":305:443  function withdrawAll() public payable {... */\n      jump\t// out\n        /* \"contracts/projects/WalletSmartContract.sol\":449:561  function withdrawToAddress(address payable to) public payable {... */\n    tag_17:\n        /* \"contracts/projects/WalletSmartContract.sol\":521:523  to */\n      dup1\n        /* \"contracts/projects/WalletSmartContract.sol\":521:532  to.transfer */\n      0xffffffffffffffffffffffffffffffffffffffff\n      and\n        /* \"contracts/projects/WalletSmartContract.sol\":521:554  to.transfer(getContractBalance()) */\n      0x08fc\n        /* \"contracts/projects/WalletSmartContract.sol\":533:553  getContractBalance() */\n      tag_30\n        /* \"contracts/projects/WalletSmartContract.sol\":533:551  getContractBalance */\n      tag_9\n        /* \"contracts/projects/WalletSmartContract.sol\":533:553  getContractBalance() */\n      jump\t// in\n    tag_30:\n        /* \"contracts/projects/WalletSmartContract.sol\":521:554  to.transfer(getContractBalance()) */\n      swap1\n      dup2\n      iszero\n      mul\n      swap1\n      mload(0x40)\n      0x00\n      mload(0x40)\n      dup1\n      dup4\n      sub\n      dup2\n      dup6\n      dup9\n      dup9\n      call\n      swap4\n      pop\n      pop\n      pop\n      pop\n      iszero\n      dup1\n      iszero\n      tag_32\n      jumpi\n      returndatasize\n      0x00\n      dup1\n      returndatacopy\n      revert(0x00, returndatasize)\n    tag_32:\n      pop\n        /* \"contracts/projects/WalletSmartContract.sol\":449:561  function withdrawToAddress(address payable to) public payable {... */\n      pop\n      jump\t// out\n        /* \"contracts/projects/WalletSmartContract.sol\":94:113  uint public balance */\n    tag_20:\n      sload(0x00)\n      dup2\n      jump\t// out\n        /* \"contracts/projects/WalletSmartContract.sol\":120:191  function deposit() public payable {... */\n    tag_23:\n        /* \"contracts/projects/WalletSmartContract.sol\":175:184  msg.value */\n      callvalue\n        /* \"contracts/projects/WalletSmartContract.sol\":164:171  balance */\n      0x00\n      dup1\n        /* \"contracts/projects/WalletSmartContract.sol\":164:184  balance += msg.value */\n      dup3\n      dup3\n      sload\n      tag_34\n      swap2\n      swap1\n      tag_35\n      jump\t// in\n    tag_34:\n      swap3\n      pop\n      pop\n      dup2\n      swap1\n      sstore\n      pop\n        /* \"contracts/projects/WalletSmartContract.sol\":120:191  function deposit() public payable {... */\n      jump\t// out\n        /* \"#utility.yul\":7:84   */\n    tag_36:\n        /* \"#utility.yul\":44:51   */\n      0x00\n        /* \"#utility.yul\":73:78   */\n      dup2\n        /* \"#utility.yul\":62:78   */\n      swap1\n      pop\n        /* \"#utility.yul\":7:84   */\n      swap2\n      swap1\n      pop\n      jump\t// out\n        /* \"#utility.yul\":90:208   */\n    tag_37:\n        /* \"#utility.yul\":177:201   */\n      tag_49\n        /* \"#utility.yul\":195:200   */\n      dup2\n        /* \"#utility.yul\":177:201   */\n      tag_36\n      jump\t// in\n    tag_49:\n        /* \"#utility.yul\":172:175   */\n      dup3\n        /* \"#utility.yul\":165:202   */\n      mstore\n        /* \"#utility.yul\":90:208   */\n      pop\n      pop\n      jump\t// out\n        /* \"#utility.yul\":214:436   */\n    tag_11:\n        /* \"#utility.yul\":307:311   */\n      0x00\n        /* \"#utility.yul\":345:347   */\n      0x20\n        /* \"#utility.yul\":334:343   */\n      dup3\n        /* \"#utility.yul\":330:348   */\n      add\n        /* \"#utility.yul\":322:348   */\n      swap1\n      pop\n        /* \"#utility.yul\":358:429   */\n      tag_51\n        /* \"#utility.yul\":426:427   */\n      0x00\n        /* \"#utility.yul\":415:424   */\n      dup4\n        /* \"#utility.yul\":411:428   */\n      add\n        /* \"#utility.yul\":402:408   */\n      dup5\n        /* \"#utility.yul\":358:429   */\n      tag_37\n      jump\t// in\n    tag_51:\n        /* \"#utility.yul\":214:436   */\n      swap3\n      swap2\n      pop\n      pop\n      jump\t// out\n        /* \"#utility.yul\":523:640   */\n    tag_39:\n        /* \"#utility.yul\":632:633   */\n      0x00\n        /* \"#utility.yul\":629:630   */\n      dup1\n        /* \"#utility.yul\":622:634   */\n      revert\n        /* \"#utility.yul\":769:895   */\n    tag_41:\n        /* \"#utility.yul\":806:813   */\n      0x00\n        /* \"#utility.yul\":846:888   */\n      0xffffffffffffffffffffffffffffffffffffffff\n        /* \"#utility.yul\":839:844   */\n      dup3\n        /* \"#utility.yul\":835:889   */\n      and\n        /* \"#utility.yul\":824:889   */\n      swap1\n      pop\n        /* \"#utility.yul\":769:895   */\n      swap2\n      swap1\n      pop\n      jump\t// out\n        /* \"#utility.yul\":901:1005   */\n    tag_42:\n        /* \"#utility.yul\":946:953   */\n      0x00\n        /* \"#utility.yul\":975:999   */\n      tag_57\n        /* \"#utility.yul\":993:998   */\n      dup3\n        /* \"#utility.yul\":975:999   */\n      tag_41\n      jump\t// in\n    tag_57:\n        /* \"#utility.yul\":964:999   */\n      swap1\n      pop\n        /* \"#utility.yul\":901:1005   */\n      swap2\n      swap1\n      pop\n      jump\t// out\n        /* \"#utility.yul\":1011:1149   */\n    tag_43:\n        /* \"#utility.yul\":1092:1124   */\n      tag_59\n        /* \"#utility.yul\":1118:1123   */\n      dup2\n        /* \"#utility.yul\":1092:1124   */\n      tag_42\n      jump\t// in\n    tag_59:\n        /* \"#utility.yul\":1085:1090   */\n      dup2\n        /* \"#utility.yul\":1082:1125   */\n      eq\n        /* \"#utility.yul\":1072:1143   */\n      tag_60\n      jumpi\n        /* \"#utility.yul\":1139:1140   */\n      0x00\n        /* \"#utility.yul\":1136:1137   */\n      dup1\n        /* \"#utility.yul\":1129:1141   */\n      revert\n        /* \"#utility.yul\":1072:1143   */\n    tag_60:\n        /* \"#utility.yul\":1011:1149   */\n      pop\n      jump\t// out\n        /* \"#utility.yul\":1155:1310   */\n    tag_44:\n        /* \"#utility.yul\":1209:1214   */\n      0x00\n        /* \"#utility.yul\":1247:1253   */\n      dup2\n        /* \"#utility.yul\":1234:1254   */\n      calldataload\n        /* \"#utility.yul\":1225:1254   */\n      swap1\n      pop\n        /* \"#utility.yul\":1263:1304   */\n      tag_62\n        /* \"#utility.yul\":1298:1303   */\n      dup2\n        /* \"#utility.yul\":1263:1304   */\n      tag_43\n      jump\t// in\n    tag_62:\n        /* \"#utility.yul\":1155:1310   */\n      swap3\n      swap2\n      pop\n      pop\n      jump\t// out\n        /* \"#utility.yul\":1316:1661   */\n    tag_16:\n        /* \"#utility.yul\":1383:1389   */\n      0x00\n        /* \"#utility.yul\":1432:1434   */\n      0x20\n        /* \"#utility.yul\":1420:1429   */\n      dup3\n        /* \"#utility.yul\":1411:1418   */\n      dup5\n        /* \"#utility.yul\":1407:1430   */\n      sub\n        /* \"#utility.yul\":1403:1435   */\n      slt\n        /* \"#utility.yul\":1400:1519   */\n      iszero\n      tag_64\n      jumpi\n        /* \"#utility.yul\":1438:1517   */\n      tag_65\n      tag_39\n      jump\t// in\n    tag_65:\n        /* \"#utility.yul\":1400:1519   */\n    tag_64:\n        /* \"#utility.yul\":1558:1559   */\n      0x00\n        /* \"#utility.yul\":1583:1644   */\n      tag_66\n        /* \"#utility.yul\":1636:1643   */\n      dup5\n        /* \"#utility.yul\":1627:1633   */\n      dup3\n        /* \"#utility.yul\":1616:1625   */\n      dup6\n        /* \"#utility.yul\":1612:1634   */\n      add\n        /* \"#utility.yul\":1583:1644   */\n      tag_44\n      jump\t// in\n    tag_66:\n        /* \"#utility.yul\":1573:1644   */\n      swap2\n      pop\n        /* \"#utility.yul\":1529:1654   */\n      pop\n        /* \"#utility.yul\":1316:1661   */\n      swap3\n      swap2\n      pop\n      pop\n      jump\t// out\n        /* \"#utility.yul\":1667:1847   */\n    tag_45:\n        /* \"#utility.yul\":1715:1792   */\n      0x4e487b7100000000000000000000000000000000000000000000000000000000\n        /* \"#utility.yul\":1712:1713   */\n      0x00\n        /* \"#utility.yul\":1705:1793   */\n      mstore\n        /* \"#utility.yul\":1812:1816   */\n      0x11\n        /* \"#utility.yul\":1809:1810   */\n      0x04\n        /* \"#utility.yul\":1802:1817   */\n      mstore\n        /* \"#utility.yul\":1836:1840   */\n      0x24\n        /* \"#utility.yul\":1833:1834   */\n      0x00\n        /* \"#utility.yul\":1826:1841   */\n      revert\n        /* \"#utility.yul\":1853:2044   */\n    tag_35:\n        /* \"#utility.yul\":1893:1896   */\n      0x00\n        /* \"#utility.yul\":1912:1932   */\n      tag_69\n        /* \"#utility.yul\":1930:1931   */\n      dup3\n        /* \"#utility.yul\":1912:1932   */\n      tag_36\n      jump\t// in\n    tag_69:\n        /* \"#utility.yul\":1907:1932   */\n      swap2\n      pop\n        /* \"#utility.yul\":1946:1966   */\n      tag_70\n        /* \"#utility.yul\":1964:1965   */\n      dup4\n        /* \"#utility.yul\":1946:1966   */\n      tag_36\n      jump\t// in\n    tag_70:\n        /* \"#utility.yul\":1941:1966   */\n      swap3\n      pop\n        /* \"#utility.yul\":1989:1990   */\n      dup3\n        /* \"#utility.yul\":1986:1987   */\n      dup3\n        /* \"#utility.yul\":1982:1991   */\n      add\n        /* \"#utility.yul\":1975:1991   */\n      swap1\n      pop\n        /* \"#utility.yul\":2010:2013   */\n      dup1\n        /* \"#utility.yul\":2007:2008   */\n      dup3\n        /* \"#utility.yul\":2004:2014   */\n      gt\n        /* \"#utility.yul\":2001:2037   */\n      iszero\n      tag_71\n      jumpi\n        /* \"#utility.yul\":2017:2035   */\n      tag_72\n      tag_45\n      jump\t// in\n    tag_72:\n        /* \"#utility.yul\":2001:2037   */\n    tag_71:\n        /* \"#utility.yul\":1853:2044   */\n      swap3\n      swap2\n      pop\n      pop\n      jump\t// out\n\n    auxdata: 0xa264697066735822122087cae7b7e204b5a3bebcf4b38e3762437b950aed54752d5d6579595670c66b1364736f6c63430008140033\n}\n",
				"bytecode": {
					"linkReferences": {},
					"object": "608060405234801561000f575f80fd5b506102e68061001d5f395ff3fe608060405260043610610049575f3560e01c80636f9fb98a1461004d578063853828b614610077578063a92bd72c14610081578063b69ef8a81461009d578063d0e30db0146100c7575b5f80fd5b348015610058575f80fd5b506100616100d1565b60405161006e91906101ae565b60405180910390f35b61007f6100d8565b005b61009b60048036038101906100969190610225565b61012a565b005b3480156100a8575f80fd5b506100b1610178565b6040516100be91906101ae565b60405180910390f35b6100cf61017d565b005b5f47905090565b5f3390508073ffffffffffffffffffffffffffffffffffffffff166108fc6100fe6100d1565b90811502906040515f60405180830381858888f19350505050158015610126573d5f803e3d5ffd5b5050565b8073ffffffffffffffffffffffffffffffffffffffff166108fc61014c6100d1565b90811502906040515f60405180830381858888f19350505050158015610174573d5f803e3d5ffd5b5050565b5f5481565b345f8082825461018d919061027d565b92505081905550565b5f819050919050565b6101a881610196565b82525050565b5f6020820190506101c15f83018461019f565b92915050565b5f80fd5b5f73ffffffffffffffffffffffffffffffffffffffff82169050919050565b5f6101f4826101cb565b9050919050565b610204816101ea565b811461020e575f80fd5b50565b5f8135905061021f816101fb565b92915050565b5f6020828403121561023a576102396101c7565b5b5f61024784828501610211565b91505092915050565b7f4e487b71000000000000000000000000000000000000000000000000000000005f52601160045260245ffd5b5f61028782610196565b915061029283610196565b92508282019050808211156102aa576102a9610250565b5b9291505056fea264697066735822122087cae7b7e204b5a3bebcf4b38e3762437b950aed54752d5d6579595670c66b1364736f6c63430008140033",
					"opcodes": "PUSH1 0x80 PUSH1 0x40 MSTORE CALLVALUE DUP1 ISZERO PUSH2 0xF JUMPI PUSH0 DUP1 REVERT JUMPDEST POP PUSH2 0x2E6 DUP1 PUSH2 0x1D PUSH0 CODECOPY PUSH0 RETURN INVALID PUSH1 0x80 PUSH1 0x40 MSTORE PUSH1 0x4 CALLDATASIZE LT PUSH2 0x49 JUMPI PUSH0 CALLDATALOAD PUSH1 0xE0 SHR DUP1 PUSH4 0x6F9FB98A EQ PUSH2 0x4D JUMPI DUP1 PUSH4 0x853828B6 EQ PUSH2 0x77 JUMPI DUP1 PUSH4 0xA92BD72C EQ PUSH2 0x81 JUMPI DUP1 PUSH4 0xB69EF8A8 EQ PUSH2 0x9D JUMPI DUP1 PUSH4 0xD0E30DB0 EQ PUSH2 0xC7 JUMPI JUMPDEST PUSH0 DUP1 REVERT JUMPDEST CALLVALUE DUP1 ISZERO PUSH2 0x58 JUMPI PUSH0 DUP1 REVERT JUMPDEST POP PUSH2 0x61 PUSH2 0xD1 JUMP JUMPDEST PUSH1 0x40 MLOAD PUSH2 0x6E SWAP2 SWAP1 PUSH2 0x1AE JUMP JUMPDEST PUSH1 0x40 MLOAD DUP1 SWAP2 SUB SWAP1 RETURN JUMPDEST PUSH2 0x7F PUSH2 0xD8 JUMP JUMPDEST STOP JUMPDEST PUSH2 0x9B PUSH1 0x4 DUP1 CALLDATASIZE SUB DUP2 ADD SWAP1 PUSH2 0x96 SWAP2 SWAP1 PUSH2 0x225 JUMP JUMPDEST PUSH2 0x12A JUMP JUMPDEST STOP JUMPDEST CALLVALUE DUP1 ISZERO PUSH2 0xA8 JUMPI PUSH0 DUP1 REVERT JUMPDEST POP PUSH2 0xB1 PUSH2 0x178 JUMP JUMPDEST PUSH1 0x40 MLOAD PUSH2 0xBE SWAP2 SWAP1 PUSH2 0x1AE JUMP JUMPDEST PUSH1 0x40 MLOAD DUP1 SWAP2 SUB SWAP1 RETURN JUMPDEST PUSH2 0xCF PUSH2 0x17D JUMP JUMPDEST STOP JUMPDEST PUSH0 SELFBALANCE SWAP1 POP SWAP1 JUMP JUMPDEST PUSH0 CALLER SWAP1 POP DUP1 PUSH20 0xFFFFFFFFFFFFFFFFFFFFFFFFFFFFFFFFFFFFFFFF AND PUSH2 0x8FC PUSH2 0xFE PUSH2 0xD1 JUMP JUMPDEST SWAP1 DUP2 ISZERO MUL SWAP1 PUSH1 0x40 MLOAD PUSH0 PUSH1 0x40 MLOAD DUP1 DUP4 SUB DUP2 DUP6 DUP9 DUP9 CALL SWAP4 POP POP POP POP ISZERO DUP1 ISZERO PUSH2 0x126 JUMPI RETURNDATASIZE PUSH0 DUP1 RETURNDATACOPY RETURNDATASIZE PUSH0 REVERT JUMPDEST POP POP JUMP JUMPDEST DUP1 PUSH20 0xFFFFFFFFFFFFFFFFFFFFFFFFFFFFFFFFFFFFFFFF AND PUSH2 0x8FC PUSH2 0x14C PUSH2 0xD1 JUMP JUMPDEST SWAP1 DUP2 ISZERO MUL SWAP1 PUSH1 0x40 MLOAD PUSH0 PUSH1 0x40 MLOAD DUP1 DUP4 SUB DUP2 DUP6 DUP9 DUP9 CALL SWAP4 POP POP POP POP ISZERO DUP1 ISZERO PUSH2 0x174 JUMPI RETURNDATASIZE PUSH0 DUP1 RETURNDATACOPY RETURNDATASIZE PUSH0 REVERT JUMPDEST POP POP JUMP JUMPDEST PUSH0 SLOAD DUP2 JUMP JUMPDEST CALLVALUE PUSH0 DUP1 DUP3 DUP3 SLOAD PUSH2 0x18D SWAP2 SWAP1 PUSH2 0x27D JUMP JUMPDEST SWAP3 POP POP DUP2 SWAP1 SSTORE POP JUMP JUMPDEST PUSH0 DUP2 SWAP1 POP SWAP2 SWAP1 POP JUMP JUMPDEST PUSH2 0x1A8 DUP2 PUSH2 0x196 JUMP JUMPDEST DUP3 MSTORE POP POP JUMP JUMPDEST PUSH0 PUSH1 0x20 DUP3 ADD SWAP1 POP PUSH2 0x1C1 PUSH0 DUP4 ADD DUP5 PUSH2 0x19F JUMP JUMPDEST SWAP3 SWAP2 POP POP JUMP JUMPDEST PUSH0 DUP1 REVERT JUMPDEST PUSH0 PUSH20 0xFFFFFFFFFFFFFFFFFFFFFFFFFFFFFFFFFFFFFFFF DUP3 AND SWAP1 POP SWAP2 SWAP1 POP JUMP JUMPDEST PUSH0 PUSH2 0x1F4 DUP3 PUSH2 0x1CB JUMP JUMPDEST SWAP1 POP SWAP2 SWAP1 POP JUMP JUMPDEST PUSH2 0x204 DUP2 PUSH2 0x1EA JUMP JUMPDEST DUP2 EQ PUSH2 0x20E JUMPI PUSH0 DUP1 REVERT JUMPDEST POP JUMP JUMPDEST PUSH0 DUP2 CALLDATALOAD SWAP1 POP PUSH2 0x21F DUP2 PUSH2 0x1FB JUMP JUMPDEST SWAP3 SWAP2 POP POP JUMP JUMPDEST PUSH0 PUSH1 0x20 DUP3 DUP5 SUB SLT ISZERO PUSH2 0x23A JUMPI PUSH2 0x239 PUSH2 0x1C7 JUMP JUMPDEST JUMPDEST PUSH0 PUSH2 0x247 DUP5 DUP3 DUP6 ADD PUSH2 0x211 JUMP JUMPDEST SWAP2 POP POP SWAP3 SWAP2 POP POP JUMP JUMPDEST PUSH32 0x4E487B7100000000000000000000000000000000000000000000000000000000 PUSH0 MSTORE PUSH1 0x11 PUSH1 0x4 MSTORE PUSH1 0x24 PUSH0 REVERT JUMPDEST PUSH0 PUSH2 0x287 DUP3 PUSH2 0x196 JUMP JUMPDEST SWAP2 POP PUSH2 0x292 DUP4 PUSH2 0x196 JUMP JUMPDEST SWAP3 POP DUP3 DUP3 ADD SWAP1 POP DUP1 DUP3 GT ISZERO PUSH2 0x2AA JUMPI PUSH2 0x2A9 PUSH2 0x250 JUMP JUMPDEST JUMPDEST SWAP3 SWAP2 POP POP JUMP INVALID LOG2 PUSH5 0x6970667358 0x22 SLT KECCAK256 DUP8 0xCA 0xE7 0xB7 0xE2 DIV 0xB5 LOG3 0xBE 0xBC DELEGATECALL 0xB3 DUP15 CALLDATACOPY PUSH3 0x437B95 EXP 0xED SLOAD PUSH22 0x2D5D6579595670C66B1364736F6C6343000814003300 "
				},
				"gasEstimates": {
					"creation": {
						"codeDepositCost": "148400",
						"executionCost": "194",
						"totalCost": "148594"
					},
					"external": {
						"balance()": "2468",
						"deposit()": "infinite",
						"getContractBalance()": "312",
						"withdrawAll()": "infinite",
						"withdrawToAddress(address)": "infinite"
					}
				},
				"methodIdentifiers": {
					"balance()": "b69ef8a8",
					"deposit()": "d0e30db0",
					"getContractBalance()": "6f9fb98a",
					"withdrawAll()": "853828b6",
					"withdrawToAddress(address)": "a92bd72c"
				}
			},
			"storageLayout": {
				"storage": [
					{
						"astId": 3,
						"contract": "contracts/projects/WalletSmartContract.sol:WalletSmartContract",
						"label": "balance",
						"offset": 0,
						"slot": "0",
						"type": "t_uint256"
					}
				],
				"types": {
					"t_uint256": {
						"encoding": "inplace",
						"label": "uint256",
						"numberOfBytes": "32"
					}
				}
			},
			"userdoc": {
				"kind": "user",
				"methods": {},
				"version": 1
			}
		}
	}
}