{
	"data": {
		"bytecode": {
			"linkReferences": {},
			"object": "6080604052348015600e575f80fd5b50608a8061001b5f395ff3fe608060405260043610601e575f3560e01c806385474728146028576024565b36602457005b5f80fd5b3480156032575f80fd5b506039603b565b005b3373ffffffffffffffffffffffffffffffffffffffff16fffea264697066735822122092810b29a7919d68335d8def23920ddc08f56722d7fb239f7d5f93836466068964736f6c63430008140033",
			"opcodes": "PUSH1 0x80 PUSH1 0x40 MSTORE CALLVALUE DUP1 ISZERO PUSH1 0xE JUMPI PUSH0 DUP1 REVERT JUMPDEST POP PUSH1 0x8A DUP1 PUSH2 0x1B PUSH0 CODECOPY PUSH0 RETURN INVALID PUSH1 0x80 PUSH1 0x40 MSTORE PUSH1 0x4 CALLDATASIZE LT PUSH1 0x1E JUMPI PUSH0 CALLDATALOAD PUSH1 0xE0 SHR DUP1 PUSH4 0x85474728 EQ PUSH1 0x28 JUMPI PUSH1 0x24 JUMP JUMPDEST CALLDATASIZE PUSH1 0x24 JUMPI STOP JUMPDEST PUSH0 DUP1 REVERT JUMPDEST CALLVALUE DUP1 ISZERO PUSH1 0x32 JUMPI PUSH0 DUP1 REVERT JUMPDEST POP PUSH1 0x39 PUSH1 0x3B JUMP JUMPDEST STOP JUMPDEST CALLER PUSH20 0xFFFFFFFFFFFFFFFFFFFFFFFFFFFFFFFFFFFFFFFF AND SELFDESTRUCT INVALID LOG2 PUSH5 0x6970667358 0x22 SLT KECCAK256 SWAP3 DUP2 SIGNEXTEND 0x29 0xA7 SWAP2 SWAP14 PUSH9 0x335D8DEF23920DDC08 CREATE2 PUSH8 0x22D7FB239F7D5F93 DUP4 PUSH5 0x6606896473 PUSH16 0x6C634300081400330000000000000000 "
		},
		"gasEstimates": {
			"creation": {
				"codeDepositCost": "27600",
				"executionCost": "79",
				"totalCost": "27679"
			},
			"external": {
				"destroySmartContract()": "27720"
			}
		},
		"methodIdentifiers": {
			"destroySmartContract()": "85474728"
		}
	},
	"abi": [
		{
			"inputs": [],
			"name": "destroySmartContract",
			"outputs": [],
			"stateMutability": "nonpayable",
			"type": "function"
		},
		{
			"stateMutability": "payable",
			"type": "receive"
		}
	]
}