{
	"contracts/SmartWallet.sol": {
		"SmartWallet": {
			"abi": [
				{
					"inputs": [],
					"stateMutability": "nonpayable",
					"type": "constructor"
				},
				{
					"stateMutability": "payable",
					"type": "fallback"
				},
				{
					"inputs": [
						{
							"internalType": "address",
							"name": "_newGuardian",
							"type": "address"
						}
					],
					"name": "addGuardian",
					"outputs": [],
					"stateMutability": "nonpayable",
					"type": "function"
				},
				{
					"inputs": [
						{
							"internalType": "address",
							"name": "_newOwner",
							"type": "address"
						}
					],
					"name": "changeOwner",
					"outputs": [],
					"stateMutability": "nonpayable",
					"type": "function"
				},
				{
					"inputs": [
						{
							"internalType": "uint256",
							"name": "amount",
							"type": "uint256"
						}
					],
					"name": "hasEnoughAllowance",
					"outputs": [
						{
							"internalType": "bool",
							"name": "",
							"type": "bool"
						}
					],
					"stateMutability": "view",
					"type": "function"
				},
				{
					"inputs": [],
					"name": "isAuthenticated",
					"outputs": [
						{
							"internalType": "bool",
							"name": "",
							"type": "bool"
						}
					],
					"stateMutability": "view",
					"type": "function"
				},
				{
					"inputs": [],
					"name": "nGuardians",
					"outputs": [
						{
							"internalType": "uint256",
							"name": "",
							"type": "uint256"
						}
					],
					"stateMutability": "view",
					"type": "function"
				},
				{
					"inputs": [],
					"name": "owner",
					"outputs": [
						{
							"internalType": "address payable",
							"name": "",
							"type": "address"
						}
					],
					"stateMutability": "view",
					"type": "function"
				},
				{
					"inputs": [
						{
							"internalType": "address payable",
							"name": "_to",
							"type": "address"
						},
						{
							"internalType": "uint256",
							"name": "_amount",
							"type": "uint256"
						},
						{
							"internalType": "bytes",
							"name": "_payload",
							"type": "bytes"
						}
					],
					"name": "sendFunds",
					"outputs": [
						{
							"internalType": "bytes",
							"name": "",
							"type": "bytes"
						}
					],
					"stateMutability": "nonpayable",
					"type": "function"
				},
				{
					"inputs": [
						{
							"internalType": "address",
							"name": "_user",
							"type": "address"
						},
						{
							"internalType": "uint256",
							"name": "_amount",
							"type": "uint256"
						}
					],
					"name": "setAllowance",
					"outputs": [],
					"stateMutability": "nonpayable",
					"type": "function"
				},
				{
					"stateMutability": "payable",
					"type": "receive"
				}
			],
			"devdoc": {
				"kind": "dev",
				"methods": {},
				"version": 1
			},
			"evm": {
				"assembly": "    /* \"contracts/SmartWallet.sol\":58:2536  contract SmartWallet {... */\n  mstore(0x40, 0x80)\n    /* \"contracts/SmartWallet.sol\":389:390  3 */\n  0x03\n    /* \"contracts/SmartWallet.sol\":361:390  uint confirmationForReset = 3 */\n  0x08\n  sstore\n    /* \"contracts/SmartWallet.sol\":397:455  constructor() {... */\n  callvalue\n  dup1\n  iszero\n  tag_1\n  jumpi\n  0x00\n  dup1\n  revert\ntag_1:\n  pop\n    /* \"contracts/SmartWallet.sol\":437:447  msg.sender */\n  caller\n    /* \"contracts/SmartWallet.sol\":421:426  owner */\n  0x00\n  dup1\n    /* \"contracts/SmartWallet.sol\":421:448  owner = payable(msg.sender) */\n  0x0100\n  exp\n  dup2\n  sload\n  dup2\n  0xffffffffffffffffffffffffffffffffffffffff\n  mul\n  not\n  and\n  swap1\n  dup4\n  0xffffffffffffffffffffffffffffffffffffffff\n  and\n  mul\n  or\n  swap1\n  sstore\n  pop\n    /* \"contracts/SmartWallet.sol\":58:2536  contract SmartWallet {... */\n  dataSize(sub_0)\n  dup1\n  dataOffset(sub_0)\n  0x00\n  codecopy\n  0x00\n  return\nstop\n\nsub_0: assembly {\n        /* \"contracts/SmartWallet.sol\":58:2536  contract SmartWallet {... */\n      mstore(0x40, 0x80)\n      jumpi(tag_1, lt(calldatasize, 0x04))\n      shr(0xe0, calldataload(0x00))\n      dup1\n      0xa4b82523\n      gt\n      tag_11\n      jumpi\n      dup1\n      0xa4b82523\n      eq\n      tag_7\n      jumpi\n      dup1\n      0xa526d83b\n      eq\n      tag_8\n      jumpi\n      dup1\n      0xa6f9dae1\n      eq\n      tag_9\n      jumpi\n      dup1\n      0xb1029623\n      eq\n      tag_10\n      jumpi\n      jump(tag_2)\n    tag_11:\n      dup1\n      0x2e7e33df\n      eq\n      tag_3\n      jumpi\n      dup1\n      0x310ec4a7\n      eq\n      tag_4\n      jumpi\n      dup1\n      0x4e5a1e2a\n      eq\n      tag_5\n      jumpi\n      dup1\n      0x8da5cb5b\n      eq\n      tag_6\n      jumpi\n      jump(tag_2)\n    tag_1:\n      jumpi(tag_2, calldatasize)\n      stop\n    tag_2:\n      stop\n        /* \"contracts/SmartWallet.sol\":532:969  function sendFunds(address payable _to, uint _amount, bytes memory _payload) external returns(bytes memory) {... */\n    tag_3:\n      callvalue\n      dup1\n      iszero\n      tag_16\n      jumpi\n      0x00\n      dup1\n      revert\n    tag_16:\n      pop\n      tag_17\n      0x04\n      dup1\n      calldatasize\n      sub\n      dup2\n      add\n      swap1\n      tag_18\n      swap2\n      swap1\n      tag_19\n      jump\t// in\n    tag_18:\n      tag_20\n      jump\t// in\n    tag_17:\n      mload(0x40)\n      tag_21\n      swap2\n      swap1\n      tag_22\n      jump\t// in\n    tag_21:\n      mload(0x40)\n      dup1\n      swap2\n      sub\n      swap1\n      return\n        /* \"contracts/SmartWallet.sol\":1998:2332  function setAllowance(address _user, uint _amount) external {... */\n    tag_4:\n      callvalue\n      dup1\n      iszero\n      tag_23\n      jumpi\n      0x00\n      dup1\n      revert\n    tag_23:\n      pop\n      tag_24\n      0x04\n      dup1\n      calldatasize\n      sub\n      dup2\n      add\n      swap1\n      tag_25\n      swap2\n      swap1\n      tag_26\n      jump\t// in\n    tag_25:\n      tag_27\n      jump\t// in\n    tag_24:\n      stop\n        /* \"contracts/SmartWallet.sol\":2339:2534  function hasEnoughAllowance(uint amount) public view returns (bool) {... */\n    tag_5:\n      callvalue\n      dup1\n      iszero\n      tag_28\n      jumpi\n      0x00\n      dup1\n      revert\n    tag_28:\n      pop\n      tag_29\n      0x04\n      dup1\n      calldatasize\n      sub\n      dup2\n      add\n      swap1\n      tag_30\n      swap2\n      swap1\n      tag_31\n      jump\t// in\n    tag_30:\n      tag_32\n      jump\t// in\n    tag_29:\n      mload(0x40)\n      tag_33\n      swap2\n      swap1\n      tag_34\n      jump\t// in\n    tag_33:\n      mload(0x40)\n      dup1\n      swap2\n      sub\n      swap1\n      return\n        /* \"contracts/SmartWallet.sol\":86:114  address payable public owner */\n    tag_6:\n      callvalue\n      dup1\n      iszero\n      tag_35\n      jumpi\n      0x00\n      dup1\n      revert\n    tag_35:\n      pop\n      tag_36\n      tag_37\n      jump\t// in\n    tag_36:\n      mload(0x40)\n      tag_38\n      swap2\n      swap1\n      tag_39\n      jump\t// in\n    tag_38:\n      mload(0x40)\n      dup1\n      swap2\n      sub\n      swap1\n      return\n        /* \"contracts/SmartWallet.sol\":1895:1992  function isAuthenticated() public view returns (bool) {... */\n    tag_7:\n      callvalue\n      dup1\n      iszero\n      tag_40\n      jumpi\n      0x00\n      dup1\n      revert\n    tag_40:\n      pop\n      tag_41\n      tag_42\n      jump\t// in\n    tag_41:\n      mload(0x40)\n      tag_43\n      swap2\n      swap1\n      tag_34\n      jump\t// in\n    tag_43:\n      mload(0x40)\n      dup1\n      swap2\n      sub\n      swap1\n      return\n        /* \"contracts/SmartWallet.sol\":975:1236  function addGuardian(address _newGuardian) public  {... */\n    tag_8:\n      callvalue\n      dup1\n      iszero\n      tag_44\n      jumpi\n      0x00\n      dup1\n      revert\n    tag_44:\n      pop\n      tag_45\n      0x04\n      dup1\n      calldatasize\n      sub\n      dup2\n      add\n      swap1\n      tag_46\n      swap2\n      swap1\n      tag_47\n      jump\t// in\n    tag_46:\n      tag_48\n      jump\t// in\n    tag_45:\n      stop\n        /* \"contracts/SmartWallet.sol\":1242:1889  function changeOwner(address _newOwner) public {... */\n    tag_9:\n      callvalue\n      dup1\n      iszero\n      tag_49\n      jumpi\n      0x00\n      dup1\n      revert\n    tag_49:\n      pop\n      tag_50\n      0x04\n      dup1\n      calldatasize\n      sub\n      dup2\n      add\n      swap1\n      tag_51\n      swap2\n      swap1\n      tag_47\n      jump\t// in\n    tag_51:\n      tag_52\n      jump\t// in\n    tag_50:\n      stop\n        /* \"contracts/SmartWallet.sol\":241:263  uint public nGuardians */\n    tag_10:\n      callvalue\n      dup1\n      iszero\n      tag_53\n      jumpi\n      0x00\n      dup1\n      revert\n    tag_53:\n      pop\n      tag_54\n      tag_55\n      jump\t// in\n    tag_54:\n      mload(0x40)\n      tag_56\n      swap2\n      swap1\n      tag_57\n      jump\t// in\n    tag_56:\n      mload(0x40)\n      dup1\n      swap2\n      sub\n      swap1\n      return\n        /* \"contracts/SmartWallet.sol\":532:969  function sendFunds(address payable _to, uint _amount, bytes memory _payload) external returns(bytes memory) {... */\n    tag_20:\n        /* \"contracts/SmartWallet.sol\":626:638  bytes memory */\n      0x60\n        /* \"contracts/SmartWallet.sol\":658:675  isAuthenticated() */\n      tag_59\n        /* \"contracts/SmartWallet.sol\":658:673  isAuthenticated */\n      tag_42\n        /* \"contracts/SmartWallet.sol\":658:675  isAuthenticated() */\n      jump\t// in\n    tag_59:\n        /* \"contracts/SmartWallet.sol\":658:706  isAuthenticated() || hasEnoughAllowance(_amount) */\n      dup1\n      tag_60\n      jumpi\n      pop\n        /* \"contracts/SmartWallet.sol\":679:706  hasEnoughAllowance(_amount) */\n      tag_61\n        /* \"contracts/SmartWallet.sol\":698:705  _amount */\n      dup4\n        /* \"contracts/SmartWallet.sol\":679:697  hasEnoughAllowance */\n      tag_32\n        /* \"contracts/SmartWallet.sol\":679:706  hasEnoughAllowance(_amount) */\n      jump\t// in\n    tag_61:\n        /* \"contracts/SmartWallet.sol\":658:706  isAuthenticated() || hasEnoughAllowance(_amount) */\n    tag_60:\n        /* \"contracts/SmartWallet.sol\":650:707  require(isAuthenticated() || hasEnoughAllowance(_amount)) */\n      tag_62\n      jumpi\n      0x00\n      dup1\n      revert\n    tag_62:\n        /* \"contracts/SmartWallet.sol\":751:758  _amount */\n      dup3\n        /* \"contracts/SmartWallet.sol\":726:747  address(this).balance */\n      selfbalance\n        /* \"contracts/SmartWallet.sol\":726:758  address(this).balance >= _amount */\n      lt\n      iszero\n        /* \"contracts/SmartWallet.sol\":718:782  require(address(this).balance >= _amount, \"Not enough balance!\") */\n      tag_63\n      jumpi\n      mload(0x40)\n      0x08c379a000000000000000000000000000000000000000000000000000000000\n      dup2\n      mstore\n      0x04\n      add\n      tag_64\n      swap1\n      tag_65\n      jump\t// in\n    tag_64:\n      mload(0x40)\n      dup1\n      swap2\n      sub\n      swap1\n      revert\n    tag_63:\n        /* \"contracts/SmartWallet.sol\":793:810  bool isSuccessful */\n      0x00\n        /* \"contracts/SmartWallet.sol\":812:835  bytes memory returnData */\n      dup1\n        /* \"contracts/SmartWallet.sol\":839:842  _to */\n      dup6\n        /* \"contracts/SmartWallet.sol\":839:847  _to.call */\n      0xffffffffffffffffffffffffffffffffffffffff\n      and\n        /* \"contracts/SmartWallet.sol\":855:862  _amount */\n      dup6\n        /* \"contracts/SmartWallet.sol\":864:872  _payload */\n      dup6\n        /* \"contracts/SmartWallet.sol\":839:873  _to.call{value: _amount}(_payload) */\n      mload(0x40)\n      tag_66\n      swap2\n      swap1\n      tag_67\n      jump\t// in\n    tag_66:\n      0x00\n      mload(0x40)\n      dup1\n      dup4\n      sub\n      dup2\n      dup6\n      dup8\n      gas\n      call\n      swap3\n      pop\n      pop\n      pop\n      returndatasize\n      dup1\n      0x00\n      dup2\n      eq\n      tag_70\n      jumpi\n      mload(0x40)\n      swap2\n      pop\n      and(add(returndatasize, 0x3f), not(0x1f))\n      dup3\n      add\n      0x40\n      mstore\n      returndatasize\n      dup3\n      mstore\n      returndatasize\n      0x00\n      0x20\n      dup5\n      add\n      returndatacopy\n      jump(tag_69)\n    tag_70:\n      0x60\n      swap2\n      pop\n    tag_69:\n      pop\n        /* \"contracts/SmartWallet.sol\":792:873  (bool isSuccessful, bytes memory returnData) = _to.call{value: _amount}(_payload) */\n      swap2\n      pop\n      swap2\n      pop\n        /* \"contracts/SmartWallet.sol\":891:903  isSuccessful */\n      dup2\n        /* \"contracts/SmartWallet.sol\":883:935  require(isSuccessful, \"Transfer was not successful\") */\n      tag_71\n      jumpi\n      mload(0x40)\n      0x08c379a000000000000000000000000000000000000000000000000000000000\n      dup2\n      mstore\n      0x04\n      add\n      tag_72\n      swap1\n      tag_73\n      jump\t// in\n    tag_72:\n      mload(0x40)\n      dup1\n      swap2\n      sub\n      swap1\n      revert\n    tag_71:\n        /* \"contracts/SmartWallet.sol\":952:962  returnData */\n      dup1\n        /* \"contracts/SmartWallet.sol\":945:962  return returnData */\n      swap3\n      pop\n      pop\n      pop\n        /* \"contracts/SmartWallet.sol\":532:969  function sendFunds(address payable _to, uint _amount, bytes memory _payload) external returns(bytes memory) {... */\n      swap4\n      swap3\n      pop\n      pop\n      pop\n      jump\t// out\n        /* \"contracts/SmartWallet.sol\":1998:2332  function setAllowance(address _user, uint _amount) external {... */\n    tag_27:\n        /* \"contracts/SmartWallet.sol\":2068:2080  bool isOwner */\n      0x00\n        /* \"contracts/SmartWallet.sol\":2083:2100  isAuthenticated() */\n      tag_75\n        /* \"contracts/SmartWallet.sol\":2083:2098  isAuthenticated */\n      tag_42\n        /* \"contracts/SmartWallet.sol\":2083:2100  isAuthenticated() */\n      jump\t// in\n    tag_75:\n        /* \"contracts/SmartWallet.sol\":2068:2100  bool isOwner = isAuthenticated() */\n      swap1\n      pop\n        /* \"contracts/SmartWallet.sol\":2118:2125  isOwner */\n      dup1\n        /* \"contracts/SmartWallet.sol\":2110:2150  require(isOwner, \"Authentication error\") */\n      tag_76\n      jumpi\n      mload(0x40)\n      0x08c379a000000000000000000000000000000000000000000000000000000000\n      dup2\n      mstore\n      0x04\n      add\n      tag_77\n      swap1\n      tag_78\n      jump\t// in\n    tag_77:\n      mload(0x40)\n      dup1\n      swap2\n      sub\n      swap1\n      revert\n    tag_76:\n        /* \"contracts/SmartWallet.sol\":2180:2187  _amount */\n      dup2\n        /* \"contracts/SmartWallet.sol\":2160:2170  allowances */\n      0x02\n        /* \"contracts/SmartWallet.sol\":2160:2177  allowances[_user] */\n      0x00\n        /* \"contracts/SmartWallet.sol\":2171:2176  _user */\n      dup6\n        /* \"contracts/SmartWallet.sol\":2160:2177  allowances[_user] */\n      0xffffffffffffffffffffffffffffffffffffffff\n      and\n      0xffffffffffffffffffffffffffffffffffffffff\n      and\n      dup2\n      mstore\n      0x20\n      add\n      swap1\n      dup2\n      mstore\n      0x20\n      add\n      0x00\n      keccak256\n        /* \"contracts/SmartWallet.sol\":2160:2187  allowances[_user] = _amount */\n      dup2\n      swap1\n      sstore\n      pop\n        /* \"contracts/SmartWallet.sol\":2211:2212  0 */\n      0x00\n        /* \"contracts/SmartWallet.sol\":2201:2208  _amount */\n      dup3\n        /* \"contracts/SmartWallet.sol\":2201:2212  _amount > 0 */\n      gt\n        /* \"contracts/SmartWallet.sol\":2197:2317  if (_amount > 0) {... */\n      iszero\n      tag_79\n      jumpi\n        /* \"contracts/SmartWallet.sol\":2247:2251  true */\n      0x01\n        /* \"contracts/SmartWallet.sol\":2228:2237  isAllowed */\n      dup1\n        /* \"contracts/SmartWallet.sol\":2228:2244  isAllowed[_user] */\n      0x00\n        /* \"contracts/SmartWallet.sol\":2238:2243  _user */\n      dup6\n        /* \"contracts/SmartWallet.sol\":2228:2244  isAllowed[_user] */\n      0xffffffffffffffffffffffffffffffffffffffff\n      and\n      0xffffffffffffffffffffffffffffffffffffffff\n      and\n      dup2\n      mstore\n      0x20\n      add\n      swap1\n      dup2\n      mstore\n      0x20\n      add\n      0x00\n      keccak256\n      0x00\n        /* \"contracts/SmartWallet.sol\":2228:2251  isAllowed[_user] = true */\n      0x0100\n      exp\n      dup2\n      sload\n      dup2\n      0xff\n      mul\n      not\n      and\n      swap1\n      dup4\n      iszero\n      iszero\n      mul\n      or\n      swap1\n      sstore\n      pop\n        /* \"contracts/SmartWallet.sol\":2197:2317  if (_amount > 0) {... */\n      jump(tag_80)\n    tag_79:\n        /* \"contracts/SmartWallet.sol\":2301:2306  false */\n      0x00\n        /* \"contracts/SmartWallet.sol\":2282:2291  isAllowed */\n      0x01\n        /* \"contracts/SmartWallet.sol\":2282:2298  isAllowed[_user] */\n      0x00\n        /* \"contracts/SmartWallet.sol\":2292:2297  _user */\n      dup6\n        /* \"contracts/SmartWallet.sol\":2282:2298  isAllowed[_user] */\n      0xffffffffffffffffffffffffffffffffffffffff\n      and\n      0xffffffffffffffffffffffffffffffffffffffff\n      and\n      dup2\n      mstore\n      0x20\n      add\n      swap1\n      dup2\n      mstore\n      0x20\n      add\n      0x00\n      keccak256\n      0x00\n        /* \"contracts/SmartWallet.sol\":2282:2306  isAllowed[_user] = false */\n      0x0100\n      exp\n      dup2\n      sload\n      dup2\n      0xff\n      mul\n      not\n      and\n      swap1\n      dup4\n      iszero\n      iszero\n      mul\n      or\n      swap1\n      sstore\n      pop\n        /* \"contracts/SmartWallet.sol\":2197:2317  if (_amount > 0) {... */\n    tag_80:\n        /* \"contracts/SmartWallet.sol\":2058:2332  {... */\n      pop\n        /* \"contracts/SmartWallet.sol\":1998:2332  function setAllowance(address _user, uint _amount) external {... */\n      pop\n      pop\n      jump\t// out\n        /* \"contracts/SmartWallet.sol\":2339:2534  function hasEnoughAllowance(uint amount) public view returns (bool) {... */\n    tag_32:\n        /* \"contracts/SmartWallet.sol\":2401:2405  bool */\n      0x00\n        /* \"contracts/SmartWallet.sol\":2425:2434  isAllowed */\n      0x01\n        /* \"contracts/SmartWallet.sol\":2425:2446  isAllowed[msg.sender] */\n      0x00\n        /* \"contracts/SmartWallet.sol\":2435:2445  msg.sender */\n      caller\n        /* \"contracts/SmartWallet.sol\":2425:2446  isAllowed[msg.sender] */\n      0xffffffffffffffffffffffffffffffffffffffff\n      and\n      0xffffffffffffffffffffffffffffffffffffffff\n      and\n      dup2\n      mstore\n      0x20\n      add\n      swap1\n      dup2\n      mstore\n      0x20\n      add\n      0x00\n      keccak256\n      0x00\n      swap1\n      sload\n      swap1\n      0x0100\n      exp\n      swap1\n      div\n      0xff\n      and\n        /* \"contracts/SmartWallet.sol\":2417:2478  require(isAllowed[msg.sender], \"This sender is not allowed!\") */\n      tag_82\n      jumpi\n      mload(0x40)\n      0x08c379a000000000000000000000000000000000000000000000000000000000\n      dup2\n      mstore\n      0x04\n      add\n      tag_83\n      swap1\n      tag_84\n      jump\t// in\n    tag_83:\n      mload(0x40)\n      dup1\n      swap2\n      sub\n      swap1\n      revert\n    tag_82:\n        /* \"contracts/SmartWallet.sol\":2521:2527  amount */\n      dup2\n        /* \"contracts/SmartWallet.sol\":2495:2505  allowances */\n      0x02\n        /* \"contracts/SmartWallet.sol\":2495:2517  allowances[msg.sender] */\n      0x00\n        /* \"contracts/SmartWallet.sol\":2506:2516  msg.sender */\n      caller\n        /* \"contracts/SmartWallet.sol\":2495:2517  allowances[msg.sender] */\n      0xffffffffffffffffffffffffffffffffffffffff\n      and\n      0xffffffffffffffffffffffffffffffffffffffff\n      and\n      dup2\n      mstore\n      0x20\n      add\n      swap1\n      dup2\n      mstore\n      0x20\n      add\n      0x00\n      keccak256\n      sload\n        /* \"contracts/SmartWallet.sol\":2495:2527  allowances[msg.sender] >= amount */\n      lt\n      iszero\n        /* \"contracts/SmartWallet.sol\":2488:2527  return allowances[msg.sender] >= amount */\n      swap1\n      pop\n        /* \"contracts/SmartWallet.sol\":2339:2534  function hasEnoughAllowance(uint amount) public view returns (bool) {... */\n      swap2\n      swap1\n      pop\n      jump\t// out\n        /* \"contracts/SmartWallet.sol\":86:114  address payable public owner */\n    tag_37:\n      0x00\n      dup1\n      sload\n      swap1\n      0x0100\n      exp\n      swap1\n      div\n      0xffffffffffffffffffffffffffffffffffffffff\n      and\n      dup2\n      jump\t// out\n        /* \"contracts/SmartWallet.sol\":1895:1992  function isAuthenticated() public view returns (bool) {... */\n    tag_42:\n        /* \"contracts/SmartWallet.sol\":1943:1947  bool */\n      0x00\n        /* \"contracts/SmartWallet.sol\":1980:1985  owner */\n      dup1\n      0x00\n      swap1\n      sload\n      swap1\n      0x0100\n      exp\n      swap1\n      div\n      0xffffffffffffffffffffffffffffffffffffffff\n      and\n        /* \"contracts/SmartWallet.sol\":1966:1985  msg.sender == owner */\n      0xffffffffffffffffffffffffffffffffffffffff\n      and\n        /* \"contracts/SmartWallet.sol\":1966:1976  msg.sender */\n      caller\n        /* \"contracts/SmartWallet.sol\":1966:1985  msg.sender == owner */\n      0xffffffffffffffffffffffffffffffffffffffff\n      and\n      eq\n        /* \"contracts/SmartWallet.sol\":1959:1985  return msg.sender == owner */\n      swap1\n      pop\n        /* \"contracts/SmartWallet.sol\":1895:1992  function isAuthenticated() public view returns (bool) {... */\n      swap1\n      jump\t// out\n        /* \"contracts/SmartWallet.sol\":975:1236  function addGuardian(address _newGuardian) public  {... */\n    tag_48:\n        /* \"contracts/SmartWallet.sol\":1052:1053  5 */\n      0x05\n        /* \"contracts/SmartWallet.sol\":1040:1050  nGuardians */\n      sload(0x04)\n        /* \"contracts/SmartWallet.sol\":1040:1053  nGuardians <5 */\n      lt\n        /* \"contracts/SmartWallet.sol\":1036:1230  if (nGuardians <5) {... */\n      iszero\n      tag_87\n      jumpi\n        /* \"contracts/SmartWallet.sol\":1069:1079  nGuardians */\n      0x04\n      0x00\n        /* \"contracts/SmartWallet.sol\":1069:1081  nGuardians++ */\n      dup2\n      sload\n      dup1\n      swap3\n      swap2\n      swap1\n      tag_88\n      swap1\n      tag_89\n      jump\t// in\n    tag_88:\n      swap2\n      swap1\n      pop\n      sstore\n      pop\n        /* \"contracts/SmartWallet.sol\":1121:1125  true */\n      0x01\n        /* \"contracts/SmartWallet.sol\":1095:1104  guardians */\n      0x03\n        /* \"contracts/SmartWallet.sol\":1095:1118  guardians[_newGuardian] */\n      0x00\n        /* \"contracts/SmartWallet.sol\":1105:1117  _newGuardian */\n      dup4\n        /* \"contracts/SmartWallet.sol\":1095:1118  guardians[_newGuardian] */\n      0xffffffffffffffffffffffffffffffffffffffff\n      and\n      0xffffffffffffffffffffffffffffffffffffffff\n      and\n      dup2\n      mstore\n      0x20\n      add\n      swap1\n      dup2\n      mstore\n      0x20\n      add\n      0x00\n      keccak256\n      0x00\n        /* \"contracts/SmartWallet.sol\":1095:1125  guardians[_newGuardian] = true */\n      0x0100\n      exp\n      dup2\n      sload\n      dup2\n      0xff\n      mul\n      not\n      and\n      swap1\n      dup4\n      iszero\n      iszero\n      mul\n      or\n      swap1\n      sstore\n      pop\n        /* \"contracts/SmartWallet.sol\":1036:1230  if (nGuardians <5) {... */\n      jump(tag_90)\n    tag_87:\n        /* \"contracts/SmartWallet.sol\":1156:1219  revert(\"Cannot add another guardian, there are already enough\") */\n      mload(0x40)\n      0x08c379a000000000000000000000000000000000000000000000000000000000\n      dup2\n      mstore\n      0x04\n      add\n      tag_91\n      swap1\n      tag_92\n      jump\t// in\n    tag_91:\n      mload(0x40)\n      dup1\n      swap2\n      sub\n      swap1\n      revert\n        /* \"contracts/SmartWallet.sol\":1036:1230  if (nGuardians <5) {... */\n    tag_90:\n        /* \"contracts/SmartWallet.sol\":975:1236  function addGuardian(address _newGuardian) public  {... */\n      pop\n      jump\t// out\n        /* \"contracts/SmartWallet.sol\":1242:1889  function changeOwner(address _newOwner) public {... */\n    tag_52:\n        /* \"contracts/SmartWallet.sol\":1307:1316  guardians */\n      0x03\n        /* \"contracts/SmartWallet.sol\":1307:1328  guardians[msg.sender] */\n      0x00\n        /* \"contracts/SmartWallet.sol\":1317:1327  msg.sender */\n      caller\n        /* \"contracts/SmartWallet.sol\":1307:1328  guardians[msg.sender] */\n      0xffffffffffffffffffffffffffffffffffffffff\n      and\n      0xffffffffffffffffffffffffffffffffffffffff\n      and\n      dup2\n      mstore\n      0x20\n      add\n      swap1\n      dup2\n      mstore\n      0x20\n      add\n      0x00\n      keccak256\n      0x00\n      swap1\n      sload\n      swap1\n      0x0100\n      exp\n      swap1\n      div\n      0xff\n      and\n        /* \"contracts/SmartWallet.sol\":1299:1368  require(guardians[msg.sender], \"Not a guardian, cannot change owner\") */\n      tag_94\n      jumpi\n      mload(0x40)\n      0x08c379a000000000000000000000000000000000000000000000000000000000\n      dup2\n      mstore\n      0x04\n      add\n      tag_95\n      swap1\n      tag_96\n      jump\t// in\n    tag_95:\n      mload(0x40)\n      dup1\n      swap2\n      sub\n      swap1\n      revert\n    tag_94:\n        /* \"contracts/SmartWallet.sol\":1395:1404  _newOwner */\n      dup1\n        /* \"contracts/SmartWallet.sol\":1382:1404  nextOwner != _newOwner */\n      0xffffffffffffffffffffffffffffffffffffffff\n      and\n        /* \"contracts/SmartWallet.sol\":1382:1391  nextOwner */\n      0x05\n      0x00\n      swap1\n      sload\n      swap1\n      0x0100\n      exp\n      swap1\n      div\n      0xffffffffffffffffffffffffffffffffffffffff\n      and\n        /* \"contracts/SmartWallet.sol\":1382:1404  nextOwner != _newOwner */\n      0xffffffffffffffffffffffffffffffffffffffff\n      and\n      eq\n        /* \"contracts/SmartWallet.sol\":1378:1874  if (nextOwner != _newOwner) {... */\n      tag_97\n      jumpi\n        /* \"contracts/SmartWallet.sol\":1432:1441  _newOwner */\n      dup1\n        /* \"contracts/SmartWallet.sol\":1420:1429  nextOwner */\n      0x05\n      0x00\n        /* \"contracts/SmartWallet.sol\":1420:1441  nextOwner = _newOwner */\n      0x0100\n      exp\n      dup2\n      sload\n      dup2\n      0xffffffffffffffffffffffffffffffffffffffff\n      mul\n      not\n      and\n      swap1\n      dup4\n      0xffffffffffffffffffffffffffffffffffffffff\n      and\n      mul\n      or\n      swap1\n      sstore\n      pop\n        /* \"contracts/SmartWallet.sol\":1464:1465  1 */\n      0x01\n        /* \"contracts/SmartWallet.sol\":1455:1461  nVotes */\n      0x06\n        /* \"contracts/SmartWallet.sol\":1455:1465  nVotes = 1 */\n      dup2\n      swap1\n      sstore\n      pop\n        /* \"contracts/SmartWallet.sol\":1507:1516  _newOwner */\n      dup1\n        /* \"contracts/SmartWallet.sol\":1479:1492  guardianVotes */\n      0x07\n        /* \"contracts/SmartWallet.sol\":1479:1504  guardianVotes[msg.sender] */\n      0x00\n        /* \"contracts/SmartWallet.sol\":1493:1503  msg.sender */\n      caller\n        /* \"contracts/SmartWallet.sol\":1479:1504  guardianVotes[msg.sender] */\n      0xffffffffffffffffffffffffffffffffffffffff\n      and\n      0xffffffffffffffffffffffffffffffffffffffff\n      and\n      dup2\n      mstore\n      0x20\n      add\n      swap1\n      dup2\n      mstore\n      0x20\n      add\n      0x00\n      keccak256\n      0x00\n        /* \"contracts/SmartWallet.sol\":1479:1516  guardianVotes[msg.sender] = _newOwner */\n      0x0100\n      exp\n      dup2\n      sload\n      dup2\n      0xffffffffffffffffffffffffffffffffffffffff\n      mul\n      not\n      and\n      swap1\n      dup4\n      0xffffffffffffffffffffffffffffffffffffffff\n      and\n      mul\n      or\n      swap1\n      sstore\n      pop\n        /* \"contracts/SmartWallet.sol\":1378:1874  if (nextOwner != _newOwner) {... */\n      jump(tag_98)\n    tag_97:\n        /* \"contracts/SmartWallet.sol\":1580:1589  _newOwner */\n      dup1\n        /* \"contracts/SmartWallet.sol\":1551:1589  guardianVotes[msg.sender] != _newOwner */\n      0xffffffffffffffffffffffffffffffffffffffff\n      and\n        /* \"contracts/SmartWallet.sol\":1551:1564  guardianVotes */\n      0x07\n        /* \"contracts/SmartWallet.sol\":1551:1576  guardianVotes[msg.sender] */\n      0x00\n        /* \"contracts/SmartWallet.sol\":1565:1575  msg.sender */\n      caller\n        /* \"contracts/SmartWallet.sol\":1551:1576  guardianVotes[msg.sender] */\n      0xffffffffffffffffffffffffffffffffffffffff\n      and\n      0xffffffffffffffffffffffffffffffffffffffff\n      and\n      dup2\n      mstore\n      0x20\n      add\n      swap1\n      dup2\n      mstore\n      0x20\n      add\n      0x00\n      keccak256\n      0x00\n      swap1\n      sload\n      swap1\n      0x0100\n      exp\n      swap1\n      div\n      0xffffffffffffffffffffffffffffffffffffffff\n      and\n        /* \"contracts/SmartWallet.sol\":1551:1589  guardianVotes[msg.sender] != _newOwner */\n      0xffffffffffffffffffffffffffffffffffffffff\n      and\n      eq\n        /* \"contracts/SmartWallet.sol\":1547:1688  if (guardianVotes[msg.sender] != _newOwner) {... */\n      tag_99\n      jumpi\n        /* \"contracts/SmartWallet.sol\":1609:1615  nVotes */\n      0x06\n      0x00\n        /* \"contracts/SmartWallet.sol\":1609:1618  nVotes ++ */\n      dup2\n      sload\n      dup1\n      swap3\n      swap2\n      swap1\n      tag_100\n      swap1\n      tag_89\n      jump\t// in\n    tag_100:\n      swap2\n      swap1\n      pop\n      sstore\n      pop\n        /* \"contracts/SmartWallet.sol\":1664:1673  _newOwner */\n      dup1\n        /* \"contracts/SmartWallet.sol\":1636:1649  guardianVotes */\n      0x07\n        /* \"contracts/SmartWallet.sol\":1636:1661  guardianVotes[msg.sender] */\n      0x00\n        /* \"contracts/SmartWallet.sol\":1650:1660  msg.sender */\n      caller\n        /* \"contracts/SmartWallet.sol\":1636:1661  guardianVotes[msg.sender] */\n      0xffffffffffffffffffffffffffffffffffffffff\n      and\n      0xffffffffffffffffffffffffffffffffffffffff\n      and\n      dup2\n      mstore\n      0x20\n      add\n      swap1\n      dup2\n      mstore\n      0x20\n      add\n      0x00\n      keccak256\n      0x00\n        /* \"contracts/SmartWallet.sol\":1636:1673  guardianVotes[msg.sender] = _newOwner */\n      0x0100\n      exp\n      dup2\n      sload\n      dup2\n      0xffffffffffffffffffffffffffffffffffffffff\n      mul\n      not\n      and\n      swap1\n      dup4\n      0xffffffffffffffffffffffffffffffffffffffff\n      and\n      mul\n      or\n      swap1\n      sstore\n      pop\n        /* \"contracts/SmartWallet.sol\":1547:1688  if (guardianVotes[msg.sender] != _newOwner) {... */\n    tag_99:\n        /* \"contracts/SmartWallet.sol\":1715:1735  confirmationForReset */\n      sload(0x08)\n        /* \"contracts/SmartWallet.sol\":1705:1711  nVotes */\n      sload(0x06)\n        /* \"contracts/SmartWallet.sol\":1705:1735  nVotes >= confirmationForReset */\n      lt\n        /* \"contracts/SmartWallet.sol\":1701:1864  if (nVotes >= confirmationForReset) {... */\n      tag_101\n      jumpi\n        /* \"contracts/SmartWallet.sol\":1771:1780  _newOwner */\n      dup1\n        /* \"contracts/SmartWallet.sol\":1755:1760  owner */\n      0x00\n      dup1\n        /* \"contracts/SmartWallet.sol\":1755:1781  owner = payable(_newOwner) */\n      0x0100\n      exp\n      dup2\n      sload\n      dup2\n      0xffffffffffffffffffffffffffffffffffffffff\n      mul\n      not\n      and\n      swap1\n      dup4\n      0xffffffffffffffffffffffffffffffffffffffff\n      and\n      mul\n      or\n      swap1\n      sstore\n      pop\n        /* \"contracts/SmartWallet.sol\":1819:1820  0 */\n      0x00\n        /* \"contracts/SmartWallet.sol\":1799:1808  nextOwner */\n      0x05\n      0x00\n        /* \"contracts/SmartWallet.sol\":1799:1821  nextOwner = address(0) */\n      0x0100\n      exp\n      dup2\n      sload\n      dup2\n      0xffffffffffffffffffffffffffffffffffffffff\n      mul\n      not\n      and\n      swap1\n      dup4\n      0xffffffffffffffffffffffffffffffffffffffff\n      and\n      mul\n      or\n      swap1\n      sstore\n      pop\n        /* \"contracts/SmartWallet.sol\":1848:1849  0 */\n      0x00\n        /* \"contracts/SmartWallet.sol\":1839:1845  nVotes */\n      0x06\n        /* \"contracts/SmartWallet.sol\":1839:1849  nVotes = 0 */\n      dup2\n      swap1\n      sstore\n      pop\n        /* \"contracts/SmartWallet.sol\":1701:1864  if (nVotes >= confirmationForReset) {... */\n    tag_101:\n        /* \"contracts/SmartWallet.sol\":1378:1874  if (nextOwner != _newOwner) {... */\n    tag_98:\n        /* \"contracts/SmartWallet.sol\":1242:1889  function changeOwner(address _newOwner) public {... */\n      pop\n      jump\t// out\n        /* \"contracts/SmartWallet.sol\":241:263  uint public nGuardians */\n    tag_55:\n      sload(0x04)\n      dup2\n      jump\t// out\n        /* \"#utility.yul\":7:82   */\n    tag_102:\n        /* \"#utility.yul\":40:46   */\n      0x00\n        /* \"#utility.yul\":73:75   */\n      0x40\n        /* \"#utility.yul\":67:76   */\n      mload\n        /* \"#utility.yul\":57:76   */\n      swap1\n      pop\n        /* \"#utility.yul\":7:82   */\n      swap1\n      jump\t// out\n        /* \"#utility.yul\":88:205   */\n    tag_103:\n        /* \"#utility.yul\":197:198   */\n      0x00\n        /* \"#utility.yul\":194:195   */\n      dup1\n        /* \"#utility.yul\":187:199   */\n      revert\n        /* \"#utility.yul\":211:328   */\n    tag_104:\n        /* \"#utility.yul\":320:321   */\n      0x00\n        /* \"#utility.yul\":317:318   */\n      dup1\n        /* \"#utility.yul\":310:322   */\n      revert\n        /* \"#utility.yul\":334:460   */\n    tag_105:\n        /* \"#utility.yul\":371:378   */\n      0x00\n        /* \"#utility.yul\":411:453   */\n      0xffffffffffffffffffffffffffffffffffffffff\n        /* \"#utility.yul\":404:409   */\n      dup3\n        /* \"#utility.yul\":400:454   */\n      and\n        /* \"#utility.yul\":389:454   */\n      swap1\n      pop\n        /* \"#utility.yul\":334:460   */\n      swap2\n      swap1\n      pop\n      jump\t// out\n        /* \"#utility.yul\":466:570   */\n    tag_106:\n        /* \"#utility.yul\":511:518   */\n      0x00\n        /* \"#utility.yul\":540:564   */\n      tag_155\n        /* \"#utility.yul\":558:563   */\n      dup3\n        /* \"#utility.yul\":540:564   */\n      tag_105\n      jump\t// in\n    tag_155:\n        /* \"#utility.yul\":529:564   */\n      swap1\n      pop\n        /* \"#utility.yul\":466:570   */\n      swap2\n      swap1\n      pop\n      jump\t// out\n        /* \"#utility.yul\":576:714   */\n    tag_107:\n        /* \"#utility.yul\":657:689   */\n      tag_157\n        /* \"#utility.yul\":683:688   */\n      dup2\n        /* \"#utility.yul\":657:689   */\n      tag_106\n      jump\t// in\n    tag_157:\n        /* \"#utility.yul\":650:655   */\n      dup2\n        /* \"#utility.yul\":647:690   */\n      eq\n        /* \"#utility.yul\":637:708   */\n      tag_158\n      jumpi\n        /* \"#utility.yul\":704:705   */\n      0x00\n        /* \"#utility.yul\":701:702   */\n      dup1\n        /* \"#utility.yul\":694:706   */\n      revert\n        /* \"#utility.yul\":637:708   */\n    tag_158:\n        /* \"#utility.yul\":576:714   */\n      pop\n      jump\t// out\n        /* \"#utility.yul\":720:875   */\n    tag_108:\n        /* \"#utility.yul\":774:779   */\n      0x00\n        /* \"#utility.yul\":812:818   */\n      dup2\n        /* \"#utility.yul\":799:819   */\n      calldataload\n        /* \"#utility.yul\":790:819   */\n      swap1\n      pop\n        /* \"#utility.yul\":828:869   */\n      tag_160\n        /* \"#utility.yul\":863:868   */\n      dup2\n        /* \"#utility.yul\":828:869   */\n      tag_107\n      jump\t// in\n    tag_160:\n        /* \"#utility.yul\":720:875   */\n      swap3\n      swap2\n      pop\n      pop\n      jump\t// out\n        /* \"#utility.yul\":881:958   */\n    tag_109:\n        /* \"#utility.yul\":918:925   */\n      0x00\n        /* \"#utility.yul\":947:952   */\n      dup2\n        /* \"#utility.yul\":936:952   */\n      swap1\n      pop\n        /* \"#utility.yul\":881:958   */\n      swap2\n      swap1\n      pop\n      jump\t// out\n        /* \"#utility.yul\":964:1086   */\n    tag_110:\n        /* \"#utility.yul\":1037:1061   */\n      tag_163\n        /* \"#utility.yul\":1055:1060   */\n      dup2\n        /* \"#utility.yul\":1037:1061   */\n      tag_109\n      jump\t// in\n    tag_163:\n        /* \"#utility.yul\":1030:1035   */\n      dup2\n        /* \"#utility.yul\":1027:1062   */\n      eq\n        /* \"#utility.yul\":1017:1080   */\n      tag_164\n      jumpi\n        /* \"#utility.yul\":1076:1077   */\n      0x00\n        /* \"#utility.yul\":1073:1074   */\n      dup1\n        /* \"#utility.yul\":1066:1078   */\n      revert\n        /* \"#utility.yul\":1017:1080   */\n    tag_164:\n        /* \"#utility.yul\":964:1086   */\n      pop\n      jump\t// out\n        /* \"#utility.yul\":1092:1231   */\n    tag_111:\n        /* \"#utility.yul\":1138:1143   */\n      0x00\n        /* \"#utility.yul\":1176:1182   */\n      dup2\n        /* \"#utility.yul\":1163:1183   */\n      calldataload\n        /* \"#utility.yul\":1154:1183   */\n      swap1\n      pop\n        /* \"#utility.yul\":1192:1225   */\n      tag_166\n        /* \"#utility.yul\":1219:1224   */\n      dup2\n        /* \"#utility.yul\":1192:1225   */\n      tag_110\n      jump\t// in\n    tag_166:\n        /* \"#utility.yul\":1092:1231   */\n      swap3\n      swap2\n      pop\n      pop\n      jump\t// out\n        /* \"#utility.yul\":1237:1354   */\n    tag_112:\n        /* \"#utility.yul\":1346:1347   */\n      0x00\n        /* \"#utility.yul\":1343:1344   */\n      dup1\n        /* \"#utility.yul\":1336:1348   */\n      revert\n        /* \"#utility.yul\":1360:1477   */\n    tag_113:\n        /* \"#utility.yul\":1469:1470   */\n      0x00\n        /* \"#utility.yul\":1466:1467   */\n      dup1\n        /* \"#utility.yul\":1459:1471   */\n      revert\n        /* \"#utility.yul\":1483:1585   */\n    tag_114:\n        /* \"#utility.yul\":1524:1530   */\n      0x00\n        /* \"#utility.yul\":1575:1577   */\n      0x1f\n        /* \"#utility.yul\":1571:1578   */\n      not\n        /* \"#utility.yul\":1566:1568   */\n      0x1f\n        /* \"#utility.yul\":1559:1564   */\n      dup4\n        /* \"#utility.yul\":1555:1569   */\n      add\n        /* \"#utility.yul\":1551:1579   */\n      and\n        /* \"#utility.yul\":1541:1579   */\n      swap1\n      pop\n        /* \"#utility.yul\":1483:1585   */\n      swap2\n      swap1\n      pop\n      jump\t// out\n        /* \"#utility.yul\":1591:1771   */\n    tag_115:\n        /* \"#utility.yul\":1639:1716   */\n      0x4e487b7100000000000000000000000000000000000000000000000000000000\n        /* \"#utility.yul\":1636:1637   */\n      0x00\n        /* \"#utility.yul\":1629:1717   */\n      mstore\n        /* \"#utility.yul\":1736:1740   */\n      0x41\n        /* \"#utility.yul\":1733:1734   */\n      0x04\n        /* \"#utility.yul\":1726:1741   */\n      mstore\n        /* \"#utility.yul\":1760:1764   */\n      0x24\n        /* \"#utility.yul\":1757:1758   */\n      0x00\n        /* \"#utility.yul\":1750:1765   */\n      revert\n        /* \"#utility.yul\":1777:2058   */\n    tag_116:\n        /* \"#utility.yul\":1860:1887   */\n      tag_172\n        /* \"#utility.yul\":1882:1886   */\n      dup3\n        /* \"#utility.yul\":1860:1887   */\n      tag_114\n      jump\t// in\n    tag_172:\n        /* \"#utility.yul\":1852:1858   */\n      dup2\n        /* \"#utility.yul\":1848:1888   */\n      add\n        /* \"#utility.yul\":1990:1996   */\n      dup2\n        /* \"#utility.yul\":1978:1988   */\n      dup2\n        /* \"#utility.yul\":1975:1997   */\n      lt\n        /* \"#utility.yul\":1954:1972   */\n      0xffffffffffffffff\n        /* \"#utility.yul\":1942:1952   */\n      dup3\n        /* \"#utility.yul\":1939:1973   */\n      gt\n        /* \"#utility.yul\":1936:1998   */\n      or\n        /* \"#utility.yul\":1933:2021   */\n      iszero\n      tag_173\n      jumpi\n        /* \"#utility.yul\":2001:2019   */\n      tag_174\n      tag_115\n      jump\t// in\n    tag_174:\n        /* \"#utility.yul\":1933:2021   */\n    tag_173:\n        /* \"#utility.yul\":2041:2051   */\n      dup1\n        /* \"#utility.yul\":2037:2039   */\n      0x40\n        /* \"#utility.yul\":2030:2052   */\n      mstore\n        /* \"#utility.yul\":1820:2058   */\n      pop\n        /* \"#utility.yul\":1777:2058   */\n      pop\n      pop\n      jump\t// out\n        /* \"#utility.yul\":2064:2193   */\n    tag_117:\n        /* \"#utility.yul\":2098:2104   */\n      0x00\n        /* \"#utility.yul\":2125:2145   */\n      tag_176\n      tag_102\n      jump\t// in\n    tag_176:\n        /* \"#utility.yul\":2115:2145   */\n      swap1\n      pop\n        /* \"#utility.yul\":2154:2187   */\n      tag_177\n        /* \"#utility.yul\":2182:2186   */\n      dup3\n        /* \"#utility.yul\":2174:2180   */\n      dup3\n        /* \"#utility.yul\":2154:2187   */\n      tag_116\n      jump\t// in\n    tag_177:\n        /* \"#utility.yul\":2064:2193   */\n      swap2\n      swap1\n      pop\n      jump\t// out\n        /* \"#utility.yul\":2199:2506   */\n    tag_118:\n        /* \"#utility.yul\":2260:2264   */\n      0x00\n        /* \"#utility.yul\":2350:2368   */\n      0xffffffffffffffff\n        /* \"#utility.yul\":2342:2348   */\n      dup3\n        /* \"#utility.yul\":2339:2369   */\n      gt\n        /* \"#utility.yul\":2336:2392   */\n      iszero\n      tag_179\n      jumpi\n        /* \"#utility.yul\":2372:2390   */\n      tag_180\n      tag_115\n      jump\t// in\n    tag_180:\n        /* \"#utility.yul\":2336:2392   */\n    tag_179:\n        /* \"#utility.yul\":2410:2439   */\n      tag_181\n        /* \"#utility.yul\":2432:2438   */\n      dup3\n        /* \"#utility.yul\":2410:2439   */\n      tag_114\n      jump\t// in\n    tag_181:\n        /* \"#utility.yul\":2402:2439   */\n      swap1\n      pop\n        /* \"#utility.yul\":2494:2498   */\n      0x20\n        /* \"#utility.yul\":2488:2492   */\n      dup2\n        /* \"#utility.yul\":2484:2499   */\n      add\n        /* \"#utility.yul\":2476:2499   */\n      swap1\n      pop\n        /* \"#utility.yul\":2199:2506   */\n      swap2\n      swap1\n      pop\n      jump\t// out\n        /* \"#utility.yul\":2512:2658   */\n    tag_119:\n        /* \"#utility.yul\":2609:2615   */\n      dup3\n        /* \"#utility.yul\":2604:2607   */\n      dup2\n        /* \"#utility.yul\":2599:2602   */\n      dup4\n        /* \"#utility.yul\":2586:2616   */\n      calldatacopy\n        /* \"#utility.yul\":2650:2651   */\n      0x00\n        /* \"#utility.yul\":2641:2647   */\n      dup4\n        /* \"#utility.yul\":2636:2639   */\n      dup4\n        /* \"#utility.yul\":2632:2648   */\n      add\n        /* \"#utility.yul\":2625:2652   */\n      mstore\n        /* \"#utility.yul\":2512:2658   */\n      pop\n      pop\n      pop\n      jump\t// out\n        /* \"#utility.yul\":2664:3087   */\n    tag_120:\n        /* \"#utility.yul\":2741:2746   */\n      0x00\n        /* \"#utility.yul\":2766:2831   */\n      tag_184\n        /* \"#utility.yul\":2782:2830   */\n      tag_185\n        /* \"#utility.yul\":2823:2829   */\n      dup5\n        /* \"#utility.yul\":2782:2830   */\n      tag_118\n      jump\t// in\n    tag_185:\n        /* \"#utility.yul\":2766:2831   */\n      tag_117\n      jump\t// in\n    tag_184:\n        /* \"#utility.yul\":2757:2831   */\n      swap1\n      pop\n        /* \"#utility.yul\":2854:2860   */\n      dup3\n        /* \"#utility.yul\":2847:2852   */\n      dup2\n        /* \"#utility.yul\":2840:2861   */\n      mstore\n        /* \"#utility.yul\":2892:2896   */\n      0x20\n        /* \"#utility.yul\":2885:2890   */\n      dup2\n        /* \"#utility.yul\":2881:2897   */\n      add\n        /* \"#utility.yul\":2930:2933   */\n      dup5\n        /* \"#utility.yul\":2921:2927   */\n      dup5\n        /* \"#utility.yul\":2916:2919   */\n      dup5\n        /* \"#utility.yul\":2912:2928   */\n      add\n        /* \"#utility.yul\":2909:2934   */\n      gt\n        /* \"#utility.yul\":2906:3018   */\n      iszero\n      tag_186\n      jumpi\n        /* \"#utility.yul\":2937:3016   */\n      tag_187\n      tag_113\n      jump\t// in\n    tag_187:\n        /* \"#utility.yul\":2906:3018   */\n    tag_186:\n        /* \"#utility.yul\":3027:3081   */\n      tag_188\n        /* \"#utility.yul\":3074:3080   */\n      dup5\n        /* \"#utility.yul\":3069:3072   */\n      dup3\n        /* \"#utility.yul\":3064:3067   */\n      dup6\n        /* \"#utility.yul\":3027:3081   */\n      tag_119\n      jump\t// in\n    tag_188:\n        /* \"#utility.yul\":2747:3087   */\n      pop\n        /* \"#utility.yul\":2664:3087   */\n      swap4\n      swap3\n      pop\n      pop\n      pop\n      jump\t// out\n        /* \"#utility.yul\":3106:3444   */\n    tag_121:\n        /* \"#utility.yul\":3161:3166   */\n      0x00\n        /* \"#utility.yul\":3210:3213   */\n      dup3\n        /* \"#utility.yul\":3203:3207   */\n      0x1f\n        /* \"#utility.yul\":3195:3201   */\n      dup4\n        /* \"#utility.yul\":3191:3208   */\n      add\n        /* \"#utility.yul\":3187:3214   */\n      slt\n        /* \"#utility.yul\":3177:3299   */\n      tag_190\n      jumpi\n        /* \"#utility.yul\":3218:3297   */\n      tag_191\n      tag_112\n      jump\t// in\n    tag_191:\n        /* \"#utility.yul\":3177:3299   */\n    tag_190:\n        /* \"#utility.yul\":3335:3341   */\n      dup2\n        /* \"#utility.yul\":3322:3342   */\n      calldataload\n        /* \"#utility.yul\":3360:3438   */\n      tag_192\n        /* \"#utility.yul\":3434:3437   */\n      dup5\n        /* \"#utility.yul\":3426:3432   */\n      dup3\n        /* \"#utility.yul\":3419:3423   */\n      0x20\n        /* \"#utility.yul\":3411:3417   */\n      dup7\n        /* \"#utility.yul\":3407:3424   */\n      add\n        /* \"#utility.yul\":3360:3438   */\n      tag_120\n      jump\t// in\n    tag_192:\n        /* \"#utility.yul\":3351:3438   */\n      swap2\n      pop\n        /* \"#utility.yul\":3167:3444   */\n      pop\n        /* \"#utility.yul\":3106:3444   */\n      swap3\n      swap2\n      pop\n      pop\n      jump\t// out\n        /* \"#utility.yul\":3450:4263   */\n    tag_19:\n        /* \"#utility.yul\":3544:3550   */\n      0x00\n        /* \"#utility.yul\":3552:3558   */\n      dup1\n        /* \"#utility.yul\":3560:3566   */\n      0x00\n        /* \"#utility.yul\":3609:3611   */\n      0x60\n        /* \"#utility.yul\":3597:3606   */\n      dup5\n        /* \"#utility.yul\":3588:3595   */\n      dup7\n        /* \"#utility.yul\":3584:3607   */\n      sub\n        /* \"#utility.yul\":3580:3612   */\n      slt\n        /* \"#utility.yul\":3577:3696   */\n      iszero\n      tag_194\n      jumpi\n        /* \"#utility.yul\":3615:3694   */\n      tag_195\n      tag_103\n      jump\t// in\n    tag_195:\n        /* \"#utility.yul\":3577:3696   */\n    tag_194:\n        /* \"#utility.yul\":3735:3736   */\n      0x00\n        /* \"#utility.yul\":3760:3821   */\n      tag_196\n        /* \"#utility.yul\":3813:3820   */\n      dup7\n        /* \"#utility.yul\":3804:3810   */\n      dup3\n        /* \"#utility.yul\":3793:3802   */\n      dup8\n        /* \"#utility.yul\":3789:3811   */\n      add\n        /* \"#utility.yul\":3760:3821   */\n      tag_108\n      jump\t// in\n    tag_196:\n        /* \"#utility.yul\":3750:3821   */\n      swap4\n      pop\n        /* \"#utility.yul\":3706:3831   */\n      pop\n        /* \"#utility.yul\":3870:3872   */\n      0x20\n        /* \"#utility.yul\":3896:3949   */\n      tag_197\n        /* \"#utility.yul\":3941:3948   */\n      dup7\n        /* \"#utility.yul\":3932:3938   */\n      dup3\n        /* \"#utility.yul\":3921:3930   */\n      dup8\n        /* \"#utility.yul\":3917:3939   */\n      add\n        /* \"#utility.yul\":3896:3949   */\n      tag_111\n      jump\t// in\n    tag_197:\n        /* \"#utility.yul\":3886:3949   */\n      swap3\n      pop\n        /* \"#utility.yul\":3841:3959   */\n      pop\n        /* \"#utility.yul\":4026:4028   */\n      0x40\n        /* \"#utility.yul\":4015:4024   */\n      dup5\n        /* \"#utility.yul\":4011:4029   */\n      add\n        /* \"#utility.yul\":3998:4030   */\n      calldataload\n        /* \"#utility.yul\":4057:4075   */\n      0xffffffffffffffff\n        /* \"#utility.yul\":4049:4055   */\n      dup2\n        /* \"#utility.yul\":4046:4076   */\n      gt\n        /* \"#utility.yul\":4043:4160   */\n      iszero\n      tag_198\n      jumpi\n        /* \"#utility.yul\":4079:4158   */\n      tag_199\n      tag_104\n      jump\t// in\n    tag_199:\n        /* \"#utility.yul\":4043:4160   */\n    tag_198:\n        /* \"#utility.yul\":4184:4246   */\n      tag_200\n        /* \"#utility.yul\":4238:4245   */\n      dup7\n        /* \"#utility.yul\":4229:4235   */\n      dup3\n        /* \"#utility.yul\":4218:4227   */\n      dup8\n        /* \"#utility.yul\":4214:4236   */\n      add\n        /* \"#utility.yul\":4184:4246   */\n      tag_121\n      jump\t// in\n    tag_200:\n        /* \"#utility.yul\":4174:4246   */\n      swap2\n      pop\n        /* \"#utility.yul\":3969:4256   */\n      pop\n        /* \"#utility.yul\":3450:4263   */\n      swap3\n      pop\n      swap3\n      pop\n      swap3\n      jump\t// out\n        /* \"#utility.yul\":4269:4367   */\n    tag_122:\n        /* \"#utility.yul\":4320:4326   */\n      0x00\n        /* \"#utility.yul\":4354:4359   */\n      dup2\n        /* \"#utility.yul\":4348:4360   */\n      mload\n        /* \"#utility.yul\":4338:4360   */\n      swap1\n      pop\n        /* \"#utility.yul\":4269:4367   */\n      swap2\n      swap1\n      pop\n      jump\t// out\n        /* \"#utility.yul\":4373:4541   */\n    tag_123:\n        /* \"#utility.yul\":4456:4467   */\n      0x00\n        /* \"#utility.yul\":4490:4496   */\n      dup3\n        /* \"#utility.yul\":4485:4488   */\n      dup3\n        /* \"#utility.yul\":4478:4497   */\n      mstore\n        /* \"#utility.yul\":4530:4534   */\n      0x20\n        /* \"#utility.yul\":4525:4528   */\n      dup3\n        /* \"#utility.yul\":4521:4535   */\n      add\n        /* \"#utility.yul\":4506:4535   */\n      swap1\n      pop\n        /* \"#utility.yul\":4373:4541   */\n      swap3\n      swap2\n      pop\n      pop\n      jump\t// out\n        /* \"#utility.yul\":4547:4793   */\n    tag_124:\n        /* \"#utility.yul\":4628:4629   */\n      0x00\n        /* \"#utility.yul\":4638:4751   */\n    tag_204:\n        /* \"#utility.yul\":4652:4658   */\n      dup4\n        /* \"#utility.yul\":4649:4650   */\n      dup2\n        /* \"#utility.yul\":4646:4659   */\n      lt\n        /* \"#utility.yul\":4638:4751   */\n      iszero\n      tag_206\n      jumpi\n        /* \"#utility.yul\":4737:4738   */\n      dup1\n        /* \"#utility.yul\":4732:4735   */\n      dup3\n        /* \"#utility.yul\":4728:4739   */\n      add\n        /* \"#utility.yul\":4722:4740   */\n      mload\n        /* \"#utility.yul\":4718:4719   */\n      dup2\n        /* \"#utility.yul\":4713:4716   */\n      dup5\n        /* \"#utility.yul\":4709:4720   */\n      add\n        /* \"#utility.yul\":4702:4741   */\n      mstore\n        /* \"#utility.yul\":4674:4676   */\n      0x20\n        /* \"#utility.yul\":4671:4672   */\n      dup2\n        /* \"#utility.yul\":4667:4677   */\n      add\n        /* \"#utility.yul\":4662:4677   */\n      swap1\n      pop\n        /* \"#utility.yul\":4638:4751   */\n      jump(tag_204)\n    tag_206:\n        /* \"#utility.yul\":4785:4786   */\n      0x00\n        /* \"#utility.yul\":4776:4782   */\n      dup5\n        /* \"#utility.yul\":4771:4774   */\n      dup5\n        /* \"#utility.yul\":4767:4783   */\n      add\n        /* \"#utility.yul\":4760:4787   */\n      mstore\n        /* \"#utility.yul\":4609:4793   */\n      pop\n        /* \"#utility.yul\":4547:4793   */\n      pop\n      pop\n      pop\n      jump\t// out\n        /* \"#utility.yul\":4799:5172   */\n    tag_125:\n        /* \"#utility.yul\":4885:4888   */\n      0x00\n        /* \"#utility.yul\":4913:4951   */\n      tag_208\n        /* \"#utility.yul\":4945:4950   */\n      dup3\n        /* \"#utility.yul\":4913:4951   */\n      tag_122\n      jump\t// in\n    tag_208:\n        /* \"#utility.yul\":4967:5037   */\n      tag_209\n        /* \"#utility.yul\":5030:5036   */\n      dup2\n        /* \"#utility.yul\":5025:5028   */\n      dup6\n        /* \"#utility.yul\":4967:5037   */\n      tag_123\n      jump\t// in\n    tag_209:\n        /* \"#utility.yul\":4960:5037   */\n      swap4\n      pop\n        /* \"#utility.yul\":5046:5111   */\n      tag_210\n        /* \"#utility.yul\":5104:5110   */\n      dup2\n        /* \"#utility.yul\":5099:5102   */\n      dup6\n        /* \"#utility.yul\":5092:5096   */\n      0x20\n        /* \"#utility.yul\":5085:5090   */\n      dup7\n        /* \"#utility.yul\":5081:5097   */\n      add\n        /* \"#utility.yul\":5046:5111   */\n      tag_124\n      jump\t// in\n    tag_210:\n        /* \"#utility.yul\":5136:5165   */\n      tag_211\n        /* \"#utility.yul\":5158:5164   */\n      dup2\n        /* \"#utility.yul\":5136:5165   */\n      tag_114\n      jump\t// in\n    tag_211:\n        /* \"#utility.yul\":5131:5134   */\n      dup5\n        /* \"#utility.yul\":5127:5166   */\n      add\n        /* \"#utility.yul\":5120:5166   */\n      swap2\n      pop\n        /* \"#utility.yul\":4889:5172   */\n      pop\n        /* \"#utility.yul\":4799:5172   */\n      swap3\n      swap2\n      pop\n      pop\n      jump\t// out\n        /* \"#utility.yul\":5178:5487   */\n    tag_22:\n        /* \"#utility.yul\":5289:5293   */\n      0x00\n        /* \"#utility.yul\":5327:5329   */\n      0x20\n        /* \"#utility.yul\":5316:5325   */\n      dup3\n        /* \"#utility.yul\":5312:5330   */\n      add\n        /* \"#utility.yul\":5304:5330   */\n      swap1\n      pop\n        /* \"#utility.yul\":5376:5385   */\n      dup2\n        /* \"#utility.yul\":5370:5374   */\n      dup2\n        /* \"#utility.yul\":5366:5386   */\n      sub\n        /* \"#utility.yul\":5362:5363   */\n      0x00\n        /* \"#utility.yul\":5351:5360   */\n      dup4\n        /* \"#utility.yul\":5347:5364   */\n      add\n        /* \"#utility.yul\":5340:5387   */\n      mstore\n        /* \"#utility.yul\":5404:5480   */\n      tag_213\n        /* \"#utility.yul\":5475:5479   */\n      dup2\n        /* \"#utility.yul\":5466:5472   */\n      dup5\n        /* \"#utility.yul\":5404:5480   */\n      tag_125\n      jump\t// in\n    tag_213:\n        /* \"#utility.yul\":5396:5480   */\n      swap1\n      pop\n        /* \"#utility.yul\":5178:5487   */\n      swap3\n      swap2\n      pop\n      pop\n      jump\t// out\n        /* \"#utility.yul\":5493:5589   */\n    tag_126:\n        /* \"#utility.yul\":5530:5537   */\n      0x00\n        /* \"#utility.yul\":5559:5583   */\n      tag_215\n        /* \"#utility.yul\":5577:5582   */\n      dup3\n        /* \"#utility.yul\":5559:5583   */\n      tag_105\n      jump\t// in\n    tag_215:\n        /* \"#utility.yul\":5548:5583   */\n      swap1\n      pop\n        /* \"#utility.yul\":5493:5589   */\n      swap2\n      swap1\n      pop\n      jump\t// out\n        /* \"#utility.yul\":5595:5717   */\n    tag_127:\n        /* \"#utility.yul\":5668:5692   */\n      tag_217\n        /* \"#utility.yul\":5686:5691   */\n      dup2\n        /* \"#utility.yul\":5668:5692   */\n      tag_126\n      jump\t// in\n    tag_217:\n        /* \"#utility.yul\":5661:5666   */\n      dup2\n        /* \"#utility.yul\":5658:5693   */\n      eq\n        /* \"#utility.yul\":5648:5711   */\n      tag_218\n      jumpi\n        /* \"#utility.yul\":5707:5708   */\n      0x00\n        /* \"#utility.yul\":5704:5705   */\n      dup1\n        /* \"#utility.yul\":5697:5709   */\n      revert\n        /* \"#utility.yul\":5648:5711   */\n    tag_218:\n        /* \"#utility.yul\":5595:5717   */\n      pop\n      jump\t// out\n        /* \"#utility.yul\":5723:5862   */\n    tag_128:\n        /* \"#utility.yul\":5769:5774   */\n      0x00\n        /* \"#utility.yul\":5807:5813   */\n      dup2\n        /* \"#utility.yul\":5794:5814   */\n      calldataload\n        /* \"#utility.yul\":5785:5814   */\n      swap1\n      pop\n        /* \"#utility.yul\":5823:5856   */\n      tag_220\n        /* \"#utility.yul\":5850:5855   */\n      dup2\n        /* \"#utility.yul\":5823:5856   */\n      tag_127\n      jump\t// in\n    tag_220:\n        /* \"#utility.yul\":5723:5862   */\n      swap3\n      swap2\n      pop\n      pop\n      jump\t// out\n        /* \"#utility.yul\":5868:6342   */\n    tag_26:\n        /* \"#utility.yul\":5936:5942   */\n      0x00\n        /* \"#utility.yul\":5944:5950   */\n      dup1\n        /* \"#utility.yul\":5993:5995   */\n      0x40\n        /* \"#utility.yul\":5981:5990   */\n      dup4\n        /* \"#utility.yul\":5972:5979   */\n      dup6\n        /* \"#utility.yul\":5968:5991   */\n      sub\n        /* \"#utility.yul\":5964:5996   */\n      slt\n        /* \"#utility.yul\":5961:6080   */\n      iszero\n      tag_222\n      jumpi\n        /* \"#utility.yul\":5999:6078   */\n      tag_223\n      tag_103\n      jump\t// in\n    tag_223:\n        /* \"#utility.yul\":5961:6080   */\n    tag_222:\n        /* \"#utility.yul\":6119:6120   */\n      0x00\n        /* \"#utility.yul\":6144:6197   */\n      tag_224\n        /* \"#utility.yul\":6189:6196   */\n      dup6\n        /* \"#utility.yul\":6180:6186   */\n      dup3\n        /* \"#utility.yul\":6169:6178   */\n      dup7\n        /* \"#utility.yul\":6165:6187   */\n      add\n        /* \"#utility.yul\":6144:6197   */\n      tag_128\n      jump\t// in\n    tag_224:\n        /* \"#utility.yul\":6134:6197   */\n      swap3\n      pop\n        /* \"#utility.yul\":6090:6207   */\n      pop\n        /* \"#utility.yul\":6246:6248   */\n      0x20\n        /* \"#utility.yul\":6272:6325   */\n      tag_225\n        /* \"#utility.yul\":6317:6324   */\n      dup6\n        /* \"#utility.yul\":6308:6314   */\n      dup3\n        /* \"#utility.yul\":6297:6306   */\n      dup7\n        /* \"#utility.yul\":6293:6315   */\n      add\n        /* \"#utility.yul\":6272:6325   */\n      tag_111\n      jump\t// in\n    tag_225:\n        /* \"#utility.yul\":6262:6325   */\n      swap2\n      pop\n        /* \"#utility.yul\":6217:6335   */\n      pop\n        /* \"#utility.yul\":5868:6342   */\n      swap3\n      pop\n      swap3\n      swap1\n      pop\n      jump\t// out\n        /* \"#utility.yul\":6348:6677   */\n    tag_31:\n        /* \"#utility.yul\":6407:6413   */\n      0x00\n        /* \"#utility.yul\":6456:6458   */\n      0x20\n        /* \"#utility.yul\":6444:6453   */\n      dup3\n        /* \"#utility.yul\":6435:6442   */\n      dup5\n        /* \"#utility.yul\":6431:6454   */\n      sub\n        /* \"#utility.yul\":6427:6459   */\n      slt\n        /* \"#utility.yul\":6424:6543   */\n      iszero\n      tag_227\n      jumpi\n        /* \"#utility.yul\":6462:6541   */\n      tag_228\n      tag_103\n      jump\t// in\n    tag_228:\n        /* \"#utility.yul\":6424:6543   */\n    tag_227:\n        /* \"#utility.yul\":6582:6583   */\n      0x00\n        /* \"#utility.yul\":6607:6660   */\n      tag_229\n        /* \"#utility.yul\":6652:6659   */\n      dup5\n        /* \"#utility.yul\":6643:6649   */\n      dup3\n        /* \"#utility.yul\":6632:6641   */\n      dup6\n        /* \"#utility.yul\":6628:6650   */\n      add\n        /* \"#utility.yul\":6607:6660   */\n      tag_111\n      jump\t// in\n    tag_229:\n        /* \"#utility.yul\":6597:6660   */\n      swap2\n      pop\n        /* \"#utility.yul\":6553:6670   */\n      pop\n        /* \"#utility.yul\":6348:6677   */\n      swap3\n      swap2\n      pop\n      pop\n      jump\t// out\n        /* \"#utility.yul\":6683:6773   */\n    tag_129:\n        /* \"#utility.yul\":6717:6724   */\n      0x00\n        /* \"#utility.yul\":6760:6765   */\n      dup2\n        /* \"#utility.yul\":6753:6766   */\n      iszero\n        /* \"#utility.yul\":6746:6767   */\n      iszero\n        /* \"#utility.yul\":6735:6767   */\n      swap1\n      pop\n        /* \"#utility.yul\":6683:6773   */\n      swap2\n      swap1\n      pop\n      jump\t// out\n        /* \"#utility.yul\":6779:6888   */\n    tag_130:\n        /* \"#utility.yul\":6860:6881   */\n      tag_232\n        /* \"#utility.yul\":6875:6880   */\n      dup2\n        /* \"#utility.yul\":6860:6881   */\n      tag_129\n      jump\t// in\n    tag_232:\n        /* \"#utility.yul\":6855:6858   */\n      dup3\n        /* \"#utility.yul\":6848:6882   */\n      mstore\n        /* \"#utility.yul\":6779:6888   */\n      pop\n      pop\n      jump\t// out\n        /* \"#utility.yul\":6894:7104   */\n    tag_34:\n        /* \"#utility.yul\":6981:6985   */\n      0x00\n        /* \"#utility.yul\":7019:7021   */\n      0x20\n        /* \"#utility.yul\":7008:7017   */\n      dup3\n        /* \"#utility.yul\":7004:7022   */\n      add\n        /* \"#utility.yul\":6996:7022   */\n      swap1\n      pop\n        /* \"#utility.yul\":7032:7097   */\n      tag_234\n        /* \"#utility.yul\":7094:7095   */\n      0x00\n        /* \"#utility.yul\":7083:7092   */\n      dup4\n        /* \"#utility.yul\":7079:7096   */\n      add\n        /* \"#utility.yul\":7070:7076   */\n      dup5\n        /* \"#utility.yul\":7032:7097   */\n      tag_130\n      jump\t// in\n    tag_234:\n        /* \"#utility.yul\":6894:7104   */\n      swap3\n      swap2\n      pop\n      pop\n      jump\t// out\n        /* \"#utility.yul\":7110:7252   */\n    tag_131:\n        /* \"#utility.yul\":7213:7245   */\n      tag_236\n        /* \"#utility.yul\":7239:7244   */\n      dup2\n        /* \"#utility.yul\":7213:7245   */\n      tag_106\n      jump\t// in\n    tag_236:\n        /* \"#utility.yul\":7208:7211   */\n      dup3\n        /* \"#utility.yul\":7201:7246   */\n      mstore\n        /* \"#utility.yul\":7110:7252   */\n      pop\n      pop\n      jump\t// out\n        /* \"#utility.yul\":7258:7512   */\n    tag_39:\n        /* \"#utility.yul\":7367:7371   */\n      0x00\n        /* \"#utility.yul\":7405:7407   */\n      0x20\n        /* \"#utility.yul\":7394:7403   */\n      dup3\n        /* \"#utility.yul\":7390:7408   */\n      add\n        /* \"#utility.yul\":7382:7408   */\n      swap1\n      pop\n        /* \"#utility.yul\":7418:7505   */\n      tag_238\n        /* \"#utility.yul\":7502:7503   */\n      0x00\n        /* \"#utility.yul\":7491:7500   */\n      dup4\n        /* \"#utility.yul\":7487:7504   */\n      add\n        /* \"#utility.yul\":7478:7484   */\n      dup5\n        /* \"#utility.yul\":7418:7505   */\n      tag_131\n      jump\t// in\n    tag_238:\n        /* \"#utility.yul\":7258:7512   */\n      swap3\n      swap2\n      pop\n      pop\n      jump\t// out\n        /* \"#utility.yul\":7518:7847   */\n    tag_47:\n        /* \"#utility.yul\":7577:7583   */\n      0x00\n        /* \"#utility.yul\":7626:7628   */\n      0x20\n        /* \"#utility.yul\":7614:7623   */\n      dup3\n        /* \"#utility.yul\":7605:7612   */\n      dup5\n        /* \"#utility.yul\":7601:7624   */\n      sub\n        /* \"#utility.yul\":7597:7629   */\n      slt\n        /* \"#utility.yul\":7594:7713   */\n      iszero\n      tag_240\n      jumpi\n        /* \"#utility.yul\":7632:7711   */\n      tag_241\n      tag_103\n      jump\t// in\n    tag_241:\n        /* \"#utility.yul\":7594:7713   */\n    tag_240:\n        /* \"#utility.yul\":7752:7753   */\n      0x00\n        /* \"#utility.yul\":7777:7830   */\n      tag_242\n        /* \"#utility.yul\":7822:7829   */\n      dup5\n        /* \"#utility.yul\":7813:7819   */\n      dup3\n        /* \"#utility.yul\":7802:7811   */\n      dup6\n        /* \"#utility.yul\":7798:7820   */\n      add\n        /* \"#utility.yul\":7777:7830   */\n      tag_128\n      jump\t// in\n    tag_242:\n        /* \"#utility.yul\":7767:7830   */\n      swap2\n      pop\n        /* \"#utility.yul\":7723:7840   */\n      pop\n        /* \"#utility.yul\":7518:7847   */\n      swap3\n      swap2\n      pop\n      pop\n      jump\t// out\n        /* \"#utility.yul\":7853:7971   */\n    tag_132:\n        /* \"#utility.yul\":7940:7964   */\n      tag_244\n        /* \"#utility.yul\":7958:7963   */\n      dup2\n        /* \"#utility.yul\":7940:7964   */\n      tag_109\n      jump\t// in\n    tag_244:\n        /* \"#utility.yul\":7935:7938   */\n      dup3\n        /* \"#utility.yul\":7928:7965   */\n      mstore\n        /* \"#utility.yul\":7853:7971   */\n      pop\n      pop\n      jump\t// out\n        /* \"#utility.yul\":7977:8199   */\n    tag_57:\n        /* \"#utility.yul\":8070:8074   */\n      0x00\n        /* \"#utility.yul\":8108:8110   */\n      0x20\n        /* \"#utility.yul\":8097:8106   */\n      dup3\n        /* \"#utility.yul\":8093:8111   */\n      add\n        /* \"#utility.yul\":8085:8111   */\n      swap1\n      pop\n        /* \"#utility.yul\":8121:8192   */\n      tag_246\n        /* \"#utility.yul\":8189:8190   */\n      0x00\n        /* \"#utility.yul\":8178:8187   */\n      dup4\n        /* \"#utility.yul\":8174:8191   */\n      add\n        /* \"#utility.yul\":8165:8171   */\n      dup5\n        /* \"#utility.yul\":8121:8192   */\n      tag_132\n      jump\t// in\n    tag_246:\n        /* \"#utility.yul\":7977:8199   */\n      swap3\n      swap2\n      pop\n      pop\n      jump\t// out\n        /* \"#utility.yul\":8205:8374   */\n    tag_133:\n        /* \"#utility.yul\":8289:8300   */\n      0x00\n        /* \"#utility.yul\":8323:8329   */\n      dup3\n        /* \"#utility.yul\":8318:8321   */\n      dup3\n        /* \"#utility.yul\":8311:8330   */\n      mstore\n        /* \"#utility.yul\":8363:8367   */\n      0x20\n        /* \"#utility.yul\":8358:8361   */\n      dup3\n        /* \"#utility.yul\":8354:8368   */\n      add\n        /* \"#utility.yul\":8339:8368   */\n      swap1\n      pop\n        /* \"#utility.yul\":8205:8374   */\n      swap3\n      swap2\n      pop\n      pop\n      jump\t// out\n        /* \"#utility.yul\":8380:8549   */\n    tag_134:\n        /* \"#utility.yul\":8520:8541   */\n      0x4e6f7420656e6f7567682062616c616e63652100000000000000000000000000\n        /* \"#utility.yul\":8516:8517   */\n      0x00\n        /* \"#utility.yul\":8508:8514   */\n      dup3\n        /* \"#utility.yul\":8504:8518   */\n      add\n        /* \"#utility.yul\":8497:8542   */\n      mstore\n        /* \"#utility.yul\":8380:8549   */\n      pop\n      jump\t// out\n        /* \"#utility.yul\":8555:8921   */\n    tag_135:\n        /* \"#utility.yul\":8697:8700   */\n      0x00\n        /* \"#utility.yul\":8718:8785   */\n      tag_250\n        /* \"#utility.yul\":8782:8784   */\n      0x13\n        /* \"#utility.yul\":8777:8780   */\n      dup4\n        /* \"#utility.yul\":8718:8785   */\n      tag_133\n      jump\t// in\n    tag_250:\n        /* \"#utility.yul\":8711:8785   */\n      swap2\n      pop\n        /* \"#utility.yul\":8794:8887   */\n      tag_251\n        /* \"#utility.yul\":8883:8886   */\n      dup3\n        /* \"#utility.yul\":8794:8887   */\n      tag_134\n      jump\t// in\n    tag_251:\n        /* \"#utility.yul\":8912:8914   */\n      0x20\n        /* \"#utility.yul\":8907:8910   */\n      dup3\n        /* \"#utility.yul\":8903:8915   */\n      add\n        /* \"#utility.yul\":8896:8915   */\n      swap1\n      pop\n        /* \"#utility.yul\":8555:8921   */\n      swap2\n      swap1\n      pop\n      jump\t// out\n        /* \"#utility.yul\":8927:9346   */\n    tag_65:\n        /* \"#utility.yul\":9093:9097   */\n      0x00\n        /* \"#utility.yul\":9131:9133   */\n      0x20\n        /* \"#utility.yul\":9120:9129   */\n      dup3\n        /* \"#utility.yul\":9116:9134   */\n      add\n        /* \"#utility.yul\":9108:9134   */\n      swap1\n      pop\n        /* \"#utility.yul\":9180:9189   */\n      dup2\n        /* \"#utility.yul\":9174:9178   */\n      dup2\n        /* \"#utility.yul\":9170:9190   */\n      sub\n        /* \"#utility.yul\":9166:9167   */\n      0x00\n        /* \"#utility.yul\":9155:9164   */\n      dup4\n        /* \"#utility.yul\":9151:9168   */\n      add\n        /* \"#utility.yul\":9144:9191   */\n      mstore\n        /* \"#utility.yul\":9208:9339   */\n      tag_253\n        /* \"#utility.yul\":9334:9338   */\n      dup2\n        /* \"#utility.yul\":9208:9339   */\n      tag_135\n      jump\t// in\n    tag_253:\n        /* \"#utility.yul\":9200:9339   */\n      swap1\n      pop\n        /* \"#utility.yul\":8927:9346   */\n      swap2\n      swap1\n      pop\n      jump\t// out\n        /* \"#utility.yul\":9352:9499   */\n    tag_136:\n        /* \"#utility.yul\":9453:9464   */\n      0x00\n        /* \"#utility.yul\":9490:9493   */\n      dup2\n        /* \"#utility.yul\":9475:9493   */\n      swap1\n      pop\n        /* \"#utility.yul\":9352:9499   */\n      swap3\n      swap2\n      pop\n      pop\n      jump\t// out\n        /* \"#utility.yul\":9505:9891   */\n    tag_137:\n        /* \"#utility.yul\":9609:9612   */\n      0x00\n        /* \"#utility.yul\":9637:9675   */\n      tag_256\n        /* \"#utility.yul\":9669:9674   */\n      dup3\n        /* \"#utility.yul\":9637:9675   */\n      tag_122\n      jump\t// in\n    tag_256:\n        /* \"#utility.yul\":9691:9779   */\n      tag_257\n        /* \"#utility.yul\":9772:9778   */\n      dup2\n        /* \"#utility.yul\":9767:9770   */\n      dup6\n        /* \"#utility.yul\":9691:9779   */\n      tag_136\n      jump\t// in\n    tag_257:\n        /* \"#utility.yul\":9684:9779   */\n      swap4\n      pop\n        /* \"#utility.yul\":9788:9853   */\n      tag_258\n        /* \"#utility.yul\":9846:9852   */\n      dup2\n        /* \"#utility.yul\":9841:9844   */\n      dup6\n        /* \"#utility.yul\":9834:9838   */\n      0x20\n        /* \"#utility.yul\":9827:9832   */\n      dup7\n        /* \"#utility.yul\":9823:9839   */\n      add\n        /* \"#utility.yul\":9788:9853   */\n      tag_124\n      jump\t// in\n    tag_258:\n        /* \"#utility.yul\":9878:9884   */\n      dup1\n        /* \"#utility.yul\":9873:9876   */\n      dup5\n        /* \"#utility.yul\":9869:9885   */\n      add\n        /* \"#utility.yul\":9862:9885   */\n      swap2\n      pop\n        /* \"#utility.yul\":9613:9891   */\n      pop\n        /* \"#utility.yul\":9505:9891   */\n      swap3\n      swap2\n      pop\n      pop\n      jump\t// out\n        /* \"#utility.yul\":9897:10168   */\n    tag_67:\n        /* \"#utility.yul\":10027:10030   */\n      0x00\n        /* \"#utility.yul\":10049:10142   */\n      tag_260\n        /* \"#utility.yul\":10138:10141   */\n      dup3\n        /* \"#utility.yul\":10129:10135   */\n      dup5\n        /* \"#utility.yul\":10049:10142   */\n      tag_137\n      jump\t// in\n    tag_260:\n        /* \"#utility.yul\":10042:10142   */\n      swap2\n      pop\n        /* \"#utility.yul\":10159:10162   */\n      dup2\n        /* \"#utility.yul\":10152:10162   */\n      swap1\n      pop\n        /* \"#utility.yul\":9897:10168   */\n      swap3\n      swap2\n      pop\n      pop\n      jump\t// out\n        /* \"#utility.yul\":10174:10351   */\n    tag_138:\n        /* \"#utility.yul\":10314:10343   */\n      0x5472616e7366657220776173206e6f74207375636365737366756c0000000000\n        /* \"#utility.yul\":10310:10311   */\n      0x00\n        /* \"#utility.yul\":10302:10308   */\n      dup3\n        /* \"#utility.yul\":10298:10312   */\n      add\n        /* \"#utility.yul\":10291:10344   */\n      mstore\n        /* \"#utility.yul\":10174:10351   */\n      pop\n      jump\t// out\n        /* \"#utility.yul\":10357:10723   */\n    tag_139:\n        /* \"#utility.yul\":10499:10502   */\n      0x00\n        /* \"#utility.yul\":10520:10587   */\n      tag_263\n        /* \"#utility.yul\":10584:10586   */\n      0x1b\n        /* \"#utility.yul\":10579:10582   */\n      dup4\n        /* \"#utility.yul\":10520:10587   */\n      tag_133\n      jump\t// in\n    tag_263:\n        /* \"#utility.yul\":10513:10587   */\n      swap2\n      pop\n        /* \"#utility.yul\":10596:10689   */\n      tag_264\n        /* \"#utility.yul\":10685:10688   */\n      dup3\n        /* \"#utility.yul\":10596:10689   */\n      tag_138\n      jump\t// in\n    tag_264:\n        /* \"#utility.yul\":10714:10716   */\n      0x20\n        /* \"#utility.yul\":10709:10712   */\n      dup3\n        /* \"#utility.yul\":10705:10717   */\n      add\n        /* \"#utility.yul\":10698:10717   */\n      swap1\n      pop\n        /* \"#utility.yul\":10357:10723   */\n      swap2\n      swap1\n      pop\n      jump\t// out\n        /* \"#utility.yul\":10729:11148   */\n    tag_73:\n        /* \"#utility.yul\":10895:10899   */\n      0x00\n        /* \"#utility.yul\":10933:10935   */\n      0x20\n        /* \"#utility.yul\":10922:10931   */\n      dup3\n        /* \"#utility.yul\":10918:10936   */\n      add\n        /* \"#utility.yul\":10910:10936   */\n      swap1\n      pop\n        /* \"#utility.yul\":10982:10991   */\n      dup2\n        /* \"#utility.yul\":10976:10980   */\n      dup2\n        /* \"#utility.yul\":10972:10992   */\n      sub\n        /* \"#utility.yul\":10968:10969   */\n      0x00\n        /* \"#utility.yul\":10957:10966   */\n      dup4\n        /* \"#utility.yul\":10953:10970   */\n      add\n        /* \"#utility.yul\":10946:10993   */\n      mstore\n        /* \"#utility.yul\":11010:11141   */\n      tag_266\n        /* \"#utility.yul\":11136:11140   */\n      dup2\n        /* \"#utility.yul\":11010:11141   */\n      tag_139\n      jump\t// in\n    tag_266:\n        /* \"#utility.yul\":11002:11141   */\n      swap1\n      pop\n        /* \"#utility.yul\":10729:11148   */\n      swap2\n      swap1\n      pop\n      jump\t// out\n        /* \"#utility.yul\":11154:11324   */\n    tag_140:\n        /* \"#utility.yul\":11294:11316   */\n      0x41757468656e7469636174696f6e206572726f72000000000000000000000000\n        /* \"#utility.yul\":11290:11291   */\n      0x00\n        /* \"#utility.yul\":11282:11288   */\n      dup3\n        /* \"#utility.yul\":11278:11292   */\n      add\n        /* \"#utility.yul\":11271:11317   */\n      mstore\n        /* \"#utility.yul\":11154:11324   */\n      pop\n      jump\t// out\n        /* \"#utility.yul\":11330:11696   */\n    tag_141:\n        /* \"#utility.yul\":11472:11475   */\n      0x00\n        /* \"#utility.yul\":11493:11560   */\n      tag_269\n        /* \"#utility.yul\":11557:11559   */\n      0x14\n        /* \"#utility.yul\":11552:11555   */\n      dup4\n        /* \"#utility.yul\":11493:11560   */\n      tag_133\n      jump\t// in\n    tag_269:\n        /* \"#utility.yul\":11486:11560   */\n      swap2\n      pop\n        /* \"#utility.yul\":11569:11662   */\n      tag_270\n        /* \"#utility.yul\":11658:11661   */\n      dup3\n        /* \"#utility.yul\":11569:11662   */\n      tag_140\n      jump\t// in\n    tag_270:\n        /* \"#utility.yul\":11687:11689   */\n      0x20\n        /* \"#utility.yul\":11682:11685   */\n      dup3\n        /* \"#utility.yul\":11678:11690   */\n      add\n        /* \"#utility.yul\":11671:11690   */\n      swap1\n      pop\n        /* \"#utility.yul\":11330:11696   */\n      swap2\n      swap1\n      pop\n      jump\t// out\n        /* \"#utility.yul\":11702:12121   */\n    tag_78:\n        /* \"#utility.yul\":11868:11872   */\n      0x00\n        /* \"#utility.yul\":11906:11908   */\n      0x20\n        /* \"#utility.yul\":11895:11904   */\n      dup3\n        /* \"#utility.yul\":11891:11909   */\n      add\n        /* \"#utility.yul\":11883:11909   */\n      swap1\n      pop\n        /* \"#utility.yul\":11955:11964   */\n      dup2\n        /* \"#utility.yul\":11949:11953   */\n      dup2\n        /* \"#utility.yul\":11945:11965   */\n      sub\n        /* \"#utility.yul\":11941:11942   */\n      0x00\n        /* \"#utility.yul\":11930:11939   */\n      dup4\n        /* \"#utility.yul\":11926:11943   */\n      add\n        /* \"#utility.yul\":11919:11966   */\n      mstore\n        /* \"#utility.yul\":11983:12114   */\n      tag_272\n        /* \"#utility.yul\":12109:12113   */\n      dup2\n        /* \"#utility.yul\":11983:12114   */\n      tag_141\n      jump\t// in\n    tag_272:\n        /* \"#utility.yul\":11975:12114   */\n      swap1\n      pop\n        /* \"#utility.yul\":11702:12121   */\n      swap2\n      swap1\n      pop\n      jump\t// out\n        /* \"#utility.yul\":12127:12304   */\n    tag_142:\n        /* \"#utility.yul\":12267:12296   */\n      0x546869732073656e646572206973206e6f7420616c6c6f776564210000000000\n        /* \"#utility.yul\":12263:12264   */\n      0x00\n        /* \"#utility.yul\":12255:12261   */\n      dup3\n        /* \"#utility.yul\":12251:12265   */\n      add\n        /* \"#utility.yul\":12244:12297   */\n      mstore\n        /* \"#utility.yul\":12127:12304   */\n      pop\n      jump\t// out\n        /* \"#utility.yul\":12310:12676   */\n    tag_143:\n        /* \"#utility.yul\":12452:12455   */\n      0x00\n        /* \"#utility.yul\":12473:12540   */\n      tag_275\n        /* \"#utility.yul\":12537:12539   */\n      0x1b\n        /* \"#utility.yul\":12532:12535   */\n      dup4\n        /* \"#utility.yul\":12473:12540   */\n      tag_133\n      jump\t// in\n    tag_275:\n        /* \"#utility.yul\":12466:12540   */\n      swap2\n      pop\n        /* \"#utility.yul\":12549:12642   */\n      tag_276\n        /* \"#utility.yul\":12638:12641   */\n      dup3\n        /* \"#utility.yul\":12549:12642   */\n      tag_142\n      jump\t// in\n    tag_276:\n        /* \"#utility.yul\":12667:12669   */\n      0x20\n        /* \"#utility.yul\":12662:12665   */\n      dup3\n        /* \"#utility.yul\":12658:12670   */\n      add\n        /* \"#utility.yul\":12651:12670   */\n      swap1\n      pop\n        /* \"#utility.yul\":12310:12676   */\n      swap2\n      swap1\n      pop\n      jump\t// out\n        /* \"#utility.yul\":12682:13101   */\n    tag_84:\n        /* \"#utility.yul\":12848:12852   */\n      0x00\n        /* \"#utility.yul\":12886:12888   */\n      0x20\n        /* \"#utility.yul\":12875:12884   */\n      dup3\n        /* \"#utility.yul\":12871:12889   */\n      add\n        /* \"#utility.yul\":12863:12889   */\n      swap1\n      pop\n        /* \"#utility.yul\":12935:12944   */\n      dup2\n        /* \"#utility.yul\":12929:12933   */\n      dup2\n        /* \"#utility.yul\":12925:12945   */\n      sub\n        /* \"#utility.yul\":12921:12922   */\n      0x00\n        /* \"#utility.yul\":12910:12919   */\n      dup4\n        /* \"#utility.yul\":12906:12923   */\n      add\n        /* \"#utility.yul\":12899:12946   */\n      mstore\n        /* \"#utility.yul\":12963:13094   */\n      tag_278\n        /* \"#utility.yul\":13089:13093   */\n      dup2\n        /* \"#utility.yul\":12963:13094   */\n      tag_143\n      jump\t// in\n    tag_278:\n        /* \"#utility.yul\":12955:13094   */\n      swap1\n      pop\n        /* \"#utility.yul\":12682:13101   */\n      swap2\n      swap1\n      pop\n      jump\t// out\n        /* \"#utility.yul\":13107:13287   */\n    tag_144:\n        /* \"#utility.yul\":13155:13232   */\n      0x4e487b7100000000000000000000000000000000000000000000000000000000\n        /* \"#utility.yul\":13152:13153   */\n      0x00\n        /* \"#utility.yul\":13145:13233   */\n      mstore\n        /* \"#utility.yul\":13252:13256   */\n      0x11\n        /* \"#utility.yul\":13249:13250   */\n      0x04\n        /* \"#utility.yul\":13242:13257   */\n      mstore\n        /* \"#utility.yul\":13276:13280   */\n      0x24\n        /* \"#utility.yul\":13273:13274   */\n      0x00\n        /* \"#utility.yul\":13266:13281   */\n      revert\n        /* \"#utility.yul\":13293:13526   */\n    tag_89:\n        /* \"#utility.yul\":13332:13335   */\n      0x00\n        /* \"#utility.yul\":13355:13379   */\n      tag_281\n        /* \"#utility.yul\":13373:13378   */\n      dup3\n        /* \"#utility.yul\":13355:13379   */\n      tag_109\n      jump\t// in\n    tag_281:\n        /* \"#utility.yul\":13346:13379   */\n      swap2\n      pop\n        /* \"#utility.yul\":13401:13467   */\n      0xffffffffffffffffffffffffffffffffffffffffffffffffffffffffffffffff\n        /* \"#utility.yul\":13394:13399   */\n      dup3\n        /* \"#utility.yul\":13391:13468   */\n      sub\n        /* \"#utility.yul\":13388:13491   */\n      tag_282\n      jumpi\n        /* \"#utility.yul\":13471:13489   */\n      tag_283\n      tag_144\n      jump\t// in\n    tag_283:\n        /* \"#utility.yul\":13388:13491   */\n    tag_282:\n        /* \"#utility.yul\":13518:13519   */\n      0x01\n        /* \"#utility.yul\":13511:13516   */\n      dup3\n        /* \"#utility.yul\":13507:13520   */\n      add\n        /* \"#utility.yul\":13500:13520   */\n      swap1\n      pop\n        /* \"#utility.yul\":13293:13526   */\n      swap2\n      swap1\n      pop\n      jump\t// out\n        /* \"#utility.yul\":13532:13772   */\n    tag_145:\n        /* \"#utility.yul\":13672:13706   */\n      0x43616e6e6f742061646420616e6f7468657220677561726469616e2c20746865\n        /* \"#utility.yul\":13668:13669   */\n      0x00\n        /* \"#utility.yul\":13660:13666   */\n      dup3\n        /* \"#utility.yul\":13656:13670   */\n      add\n        /* \"#utility.yul\":13649:13707   */\n      mstore\n        /* \"#utility.yul\":13741:13764   */\n      0x72652061726520616c726561647920656e6f7567680000000000000000000000\n        /* \"#utility.yul\":13736:13738   */\n      0x20\n        /* \"#utility.yul\":13728:13734   */\n      dup3\n        /* \"#utility.yul\":13724:13739   */\n      add\n        /* \"#utility.yul\":13717:13765   */\n      mstore\n        /* \"#utility.yul\":13532:13772   */\n      pop\n      jump\t// out\n        /* \"#utility.yul\":13778:14144   */\n    tag_146:\n        /* \"#utility.yul\":13920:13923   */\n      0x00\n        /* \"#utility.yul\":13941:14008   */\n      tag_286\n        /* \"#utility.yul\":14005:14007   */\n      0x35\n        /* \"#utility.yul\":14000:14003   */\n      dup4\n        /* \"#utility.yul\":13941:14008   */\n      tag_133\n      jump\t// in\n    tag_286:\n        /* \"#utility.yul\":13934:14008   */\n      swap2\n      pop\n        /* \"#utility.yul\":14017:14110   */\n      tag_287\n        /* \"#utility.yul\":14106:14109   */\n      dup3\n        /* \"#utility.yul\":14017:14110   */\n      tag_145\n      jump\t// in\n    tag_287:\n        /* \"#utility.yul\":14135:14137   */\n      0x40\n        /* \"#utility.yul\":14130:14133   */\n      dup3\n        /* \"#utility.yul\":14126:14138   */\n      add\n        /* \"#utility.yul\":14119:14138   */\n      swap1\n      pop\n        /* \"#utility.yul\":13778:14144   */\n      swap2\n      swap1\n      pop\n      jump\t// out\n        /* \"#utility.yul\":14150:14569   */\n    tag_92:\n        /* \"#utility.yul\":14316:14320   */\n      0x00\n        /* \"#utility.yul\":14354:14356   */\n      0x20\n        /* \"#utility.yul\":14343:14352   */\n      dup3\n        /* \"#utility.yul\":14339:14357   */\n      add\n        /* \"#utility.yul\":14331:14357   */\n      swap1\n      pop\n        /* \"#utility.yul\":14403:14412   */\n      dup2\n        /* \"#utility.yul\":14397:14401   */\n      dup2\n        /* \"#utility.yul\":14393:14413   */\n      sub\n        /* \"#utility.yul\":14389:14390   */\n      0x00\n        /* \"#utility.yul\":14378:14387   */\n      dup4\n        /* \"#utility.yul\":14374:14391   */\n      add\n        /* \"#utility.yul\":14367:14414   */\n      mstore\n        /* \"#utility.yul\":14431:14562   */\n      tag_289\n        /* \"#utility.yul\":14557:14561   */\n      dup2\n        /* \"#utility.yul\":14431:14562   */\n      tag_146\n      jump\t// in\n    tag_289:\n        /* \"#utility.yul\":14423:14562   */\n      swap1\n      pop\n        /* \"#utility.yul\":14150:14569   */\n      swap2\n      swap1\n      pop\n      jump\t// out\n        /* \"#utility.yul\":14575:14797   */\n    tag_147:\n        /* \"#utility.yul\":14715:14749   */\n      0x4e6f74206120677561726469616e2c2063616e6e6f74206368616e6765206f77\n        /* \"#utility.yul\":14711:14712   */\n      0x00\n        /* \"#utility.yul\":14703:14709   */\n      dup3\n        /* \"#utility.yul\":14699:14713   */\n      add\n        /* \"#utility.yul\":14692:14750   */\n      mstore\n        /* \"#utility.yul\":14784:14789   */\n      0x6e65720000000000000000000000000000000000000000000000000000000000\n        /* \"#utility.yul\":14779:14781   */\n      0x20\n        /* \"#utility.yul\":14771:14777   */\n      dup3\n        /* \"#utility.yul\":14767:14782   */\n      add\n        /* \"#utility.yul\":14760:14790   */\n      mstore\n        /* \"#utility.yul\":14575:14797   */\n      pop\n      jump\t// out\n        /* \"#utility.yul\":14803:15169   */\n    tag_148:\n        /* \"#utility.yul\":14945:14948   */\n      0x00\n        /* \"#utility.yul\":14966:15033   */\n      tag_292\n        /* \"#utility.yul\":15030:15032   */\n      0x23\n        /* \"#utility.yul\":15025:15028   */\n      dup4\n        /* \"#utility.yul\":14966:15033   */\n      tag_133\n      jump\t// in\n    tag_292:\n        /* \"#utility.yul\":14959:15033   */\n      swap2\n      pop\n        /* \"#utility.yul\":15042:15135   */\n      tag_293\n        /* \"#utility.yul\":15131:15134   */\n      dup3\n        /* \"#utility.yul\":15042:15135   */\n      tag_147\n      jump\t// in\n    tag_293:\n        /* \"#utility.yul\":15160:15162   */\n      0x40\n        /* \"#utility.yul\":15155:15158   */\n      dup3\n        /* \"#utility.yul\":15151:15163   */\n      add\n        /* \"#utility.yul\":15144:15163   */\n      swap1\n      pop\n        /* \"#utility.yul\":14803:15169   */\n      swap2\n      swap1\n      pop\n      jump\t// out\n        /* \"#utility.yul\":15175:15594   */\n    tag_96:\n        /* \"#utility.yul\":15341:15345   */\n      0x00\n        /* \"#utility.yul\":15379:15381   */\n      0x20\n        /* \"#utility.yul\":15368:15377   */\n      dup3\n        /* \"#utility.yul\":15364:15382   */\n      add\n        /* \"#utility.yul\":15356:15382   */\n      swap1\n      pop\n        /* \"#utility.yul\":15428:15437   */\n      dup2\n        /* \"#utility.yul\":15422:15426   */\n      dup2\n        /* \"#utility.yul\":15418:15438   */\n      sub\n        /* \"#utility.yul\":15414:15415   */\n      0x00\n        /* \"#utility.yul\":15403:15412   */\n      dup4\n        /* \"#utility.yul\":15399:15416   */\n      add\n        /* \"#utility.yul\":15392:15439   */\n      mstore\n        /* \"#utility.yul\":15456:15587   */\n      tag_295\n        /* \"#utility.yul\":15582:15586   */\n      dup2\n        /* \"#utility.yul\":15456:15587   */\n      tag_148\n      jump\t// in\n    tag_295:\n        /* \"#utility.yul\":15448:15587   */\n      swap1\n      pop\n        /* \"#utility.yul\":15175:15594   */\n      swap2\n      swap1\n      pop\n      jump\t// out\n\n    auxdata: 0xa2646970667358221220943378f9ab71e62e1cf45cd8fabcd6fdf41415daf0667c32dbc5ae0bbb82a8ad64736f6c63430008140033\n}\n",
				"bytecode": {
					"linkReferences": {},
					"object": "60806040526003600855348015610014575f80fd5b50335f806101000a81548173ffffffffffffffffffffffffffffffffffffffff021916908373ffffffffffffffffffffffffffffffffffffffff1602179055506111b9806100615f395ff3fe60806040526004361061007e575f3560e01c8063a4b825231161004d578063a4b8252314610151578063a526d83b1461017b578063a6f9dae1146101a3578063b1029623146101cb57610085565b80632e7e33df14610087578063310ec4a7146100c35780634e5a1e2a146100eb5780638da5cb5b1461012757610085565b3661008557005b005b348015610092575f80fd5b506100ad60048036038101906100a89190610b9b565b6101f5565b6040516100ba9190610c81565b60405180910390f35b3480156100ce575f80fd5b506100e960048036038101906100e49190610cdc565b610312565b005b3480156100f6575f80fd5b50610111600480360381019061010c9190610d1a565b61045a565b60405161011e9190610d5f565b60405180910390f35b348015610132575f80fd5b5061013b61052c565b6040516101489190610d87565b60405180910390f35b34801561015c575f80fd5b5061016561054f565b6040516101729190610d5f565b60405180910390f35b348015610186575f80fd5b506101a1600480360381019061019c9190610da0565b6105a4565b005b3480156101ae575f80fd5b506101c960048036038101906101c49190610da0565b61065e565b005b3480156101d6575f80fd5b506101df6109bb565b6040516101ec9190610dda565b60405180910390f35b60606101ff61054f565b8061020f575061020e8361045a565b5b610217575f80fd5b8247101561025a576040517f08c379a000000000000000000000000000000000000000000000000000000000815260040161025190610e4d565b60405180910390fd5b5f808573ffffffffffffffffffffffffffffffffffffffff1685856040516102829190610ea5565b5f6040518083038185875af1925050503d805f81146102bc576040519150601f19603f3d011682016040523d82523d5f602084013e6102c1565b606091505b509150915081610306576040517f08c379a00000000000000000000000000000000000000000000000000000000081526004016102fd90610f05565b60405180910390fd5b80925050509392505050565b5f61031b61054f565b90508061035d576040517f08c379a000000000000000000000000000000000000000000000000000000000815260040161035490610f6d565b60405180910390fd5b8160025f8573ffffffffffffffffffffffffffffffffffffffff1673ffffffffffffffffffffffffffffffffffffffff1681526020019081526020015f20819055505f821115610400576001805f8573ffffffffffffffffffffffffffffffffffffffff1673ffffffffffffffffffffffffffffffffffffffff1681526020019081526020015f205f6101000a81548160ff021916908315150217905550610455565b5f60015f8573ffffffffffffffffffffffffffffffffffffffff1673ffffffffffffffffffffffffffffffffffffffff1681526020019081526020015f205f6101000a81548160ff0219169083151502179055505b505050565b5f60015f3373ffffffffffffffffffffffffffffffffffffffff1673ffffffffffffffffffffffffffffffffffffffff1681526020019081526020015f205f9054906101000a900460ff166104e4576040517f08c379a00000000000000000000000000000000000000000000000000000000081526004016104db90610fd5565b60405180910390fd5b8160025f3373ffffffffffffffffffffffffffffffffffffffff1673ffffffffffffffffffffffffffffffffffffffff1681526020019081526020015f205410159050919050565b5f8054906101000a900473ffffffffffffffffffffffffffffffffffffffff1681565b5f805f9054906101000a900473ffffffffffffffffffffffffffffffffffffffff1673ffffffffffffffffffffffffffffffffffffffff163373ffffffffffffffffffffffffffffffffffffffff1614905090565b600560045410156106205760045f8154809291906105c190611020565b9190505550600160035f8373ffffffffffffffffffffffffffffffffffffffff1673ffffffffffffffffffffffffffffffffffffffff1681526020019081526020015f205f6101000a81548160ff02191690831515021790555061065b565b6040517f08c379a0000000000000000000000000000000000000000000000000000000008152600401610652906110d7565b60405180910390fd5b50565b60035f3373ffffffffffffffffffffffffffffffffffffffff1673ffffffffffffffffffffffffffffffffffffffff1681526020019081526020015f205f9054906101000a900460ff166106e7576040517f08c379a00000000000000000000000000000000000000000000000000000000081526004016106de90611165565b60405180910390fd5b8073ffffffffffffffffffffffffffffffffffffffff1660055f9054906101000a900473ffffffffffffffffffffffffffffffffffffffff1673ffffffffffffffffffffffffffffffffffffffff1614610803578060055f6101000a81548173ffffffffffffffffffffffffffffffffffffffff021916908373ffffffffffffffffffffffffffffffffffffffff16021790555060016006819055508060075f3373ffffffffffffffffffffffffffffffffffffffff1673ffffffffffffffffffffffffffffffffffffffff1681526020019081526020015f205f6101000a81548173ffffffffffffffffffffffffffffffffffffffff021916908373ffffffffffffffffffffffffffffffffffffffff1602179055506109b8565b8073ffffffffffffffffffffffffffffffffffffffff1660075f3373ffffffffffffffffffffffffffffffffffffffff1673ffffffffffffffffffffffffffffffffffffffff1681526020019081526020015f205f9054906101000a900473ffffffffffffffffffffffffffffffffffffffff1673ffffffffffffffffffffffffffffffffffffffff16146109255760065f8154809291906108a490611020565b91905055508060075f3373ffffffffffffffffffffffffffffffffffffffff1673ffffffffffffffffffffffffffffffffffffffff1681526020019081526020015f205f6101000a81548173ffffffffffffffffffffffffffffffffffffffff021916908373ffffffffffffffffffffffffffffffffffffffff1602179055505b600854600654106109b757805f806101000a81548173ffffffffffffffffffffffffffffffffffffffff021916908373ffffffffffffffffffffffffffffffffffffffff1602179055505f60055f6101000a81548173ffffffffffffffffffffffffffffffffffffffff021916908373ffffffffffffffffffffffffffffffffffffffff1602179055505f6006819055505b5b50565b60045481565b5f604051905090565b5f80fd5b5f80fd5b5f73ffffffffffffffffffffffffffffffffffffffff82169050919050565b5f6109fb826109d2565b9050919050565b610a0b816109f1565b8114610a15575f80fd5b50565b5f81359050610a2681610a02565b92915050565b5f819050919050565b610a3e81610a2c565b8114610a48575f80fd5b50565b5f81359050610a5981610a35565b92915050565b5f80fd5b5f80fd5b5f601f19601f8301169050919050565b7f4e487b71000000000000000000000000000000000000000000000000000000005f52604160045260245ffd5b610aad82610a67565b810181811067ffffffffffffffff82111715610acc57610acb610a77565b5b80604052505050565b5f610ade6109c1565b9050610aea8282610aa4565b919050565b5f67ffffffffffffffff821115610b0957610b08610a77565b5b610b1282610a67565b9050602081019050919050565b828183375f83830152505050565b5f610b3f610b3a84610aef565b610ad5565b905082815260208101848484011115610b5b57610b5a610a63565b5b610b66848285610b1f565b509392505050565b5f82601f830112610b8257610b81610a5f565b5b8135610b92848260208601610b2d565b91505092915050565b5f805f60608486031215610bb257610bb16109ca565b5b5f610bbf86828701610a18565b9350506020610bd086828701610a4b565b925050604084013567ffffffffffffffff811115610bf157610bf06109ce565b5b610bfd86828701610b6e565b9150509250925092565b5f81519050919050565b5f82825260208201905092915050565b5f5b83811015610c3e578082015181840152602081019050610c23565b5f8484015250505050565b5f610c5382610c07565b610c5d8185610c11565b9350610c6d818560208601610c21565b610c7681610a67565b840191505092915050565b5f6020820190508181035f830152610c998184610c49565b905092915050565b5f610cab826109d2565b9050919050565b610cbb81610ca1565b8114610cc5575f80fd5b50565b5f81359050610cd681610cb2565b92915050565b5f8060408385031215610cf257610cf16109ca565b5b5f610cff85828601610cc8565b9250506020610d1085828601610a4b565b9150509250929050565b5f60208284031215610d2f57610d2e6109ca565b5b5f610d3c84828501610a4b565b91505092915050565b5f8115159050919050565b610d5981610d45565b82525050565b5f602082019050610d725f830184610d50565b92915050565b610d81816109f1565b82525050565b5f602082019050610d9a5f830184610d78565b92915050565b5f60208284031215610db557610db46109ca565b5b5f610dc284828501610cc8565b91505092915050565b610dd481610a2c565b82525050565b5f602082019050610ded5f830184610dcb565b92915050565b5f82825260208201905092915050565b7f4e6f7420656e6f7567682062616c616e636521000000000000000000000000005f82015250565b5f610e37601383610df3565b9150610e4282610e03565b602082019050919050565b5f6020820190508181035f830152610e6481610e2b565b9050919050565b5f81905092915050565b5f610e7f82610c07565b610e898185610e6b565b9350610e99818560208601610c21565b80840191505092915050565b5f610eb08284610e75565b915081905092915050565b7f5472616e7366657220776173206e6f74207375636365737366756c00000000005f82015250565b5f610eef601b83610df3565b9150610efa82610ebb565b602082019050919050565b5f6020820190508181035f830152610f1c81610ee3565b9050919050565b7f41757468656e7469636174696f6e206572726f720000000000000000000000005f82015250565b5f610f57601483610df3565b9150610f6282610f23565b602082019050919050565b5f6020820190508181035f830152610f8481610f4b565b9050919050565b7f546869732073656e646572206973206e6f7420616c6c6f7765642100000000005f82015250565b5f610fbf601b83610df3565b9150610fca82610f8b565b602082019050919050565b5f6020820190508181035f830152610fec81610fb3565b9050919050565b7f4e487b71000000000000000000000000000000000000000000000000000000005f52601160045260245ffd5b5f61102a82610a2c565b91507fffffffffffffffffffffffffffffffffffffffffffffffffffffffffffffffff820361105c5761105b610ff3565b5b600182019050919050565b7f43616e6e6f742061646420616e6f7468657220677561726469616e2c207468655f8201527f72652061726520616c726561647920656e6f7567680000000000000000000000602082015250565b5f6110c1603583610df3565b91506110cc82611067565b604082019050919050565b5f6020820190508181035f8301526110ee816110b5565b9050919050565b7f4e6f74206120677561726469616e2c2063616e6e6f74206368616e6765206f775f8201527f6e65720000000000000000000000000000000000000000000000000000000000602082015250565b5f61114f602383610df3565b915061115a826110f5565b604082019050919050565b5f6020820190508181035f83015261117c81611143565b905091905056fea2646970667358221220943378f9ab71e62e1cf45cd8fabcd6fdf41415daf0667c32dbc5ae0bbb82a8ad64736f6c63430008140033",
					"opcodes": "PUSH1 0x80 PUSH1 0x40 MSTORE PUSH1 0x3 PUSH1 0x8 SSTORE CALLVALUE DUP1 ISZERO PUSH2 0x14 JUMPI PUSH0 DUP1 REVERT JUMPDEST POP CALLER PUSH0 DUP1 PUSH2 0x100 EXP DUP2 SLOAD DUP2 PUSH20 0xFFFFFFFFFFFFFFFFFFFFFFFFFFFFFFFFFFFFFFFF MUL NOT AND SWAP1 DUP4 PUSH20 0xFFFFFFFFFFFFFFFFFFFFFFFFFFFFFFFFFFFFFFFF AND MUL OR SWAP1 SSTORE POP PUSH2 0x11B9 DUP1 PUSH2 0x61 PUSH0 CODECOPY PUSH0 RETURN INVALID PUSH1 0x80 PUSH1 0x40 MSTORE PUSH1 0x4 CALLDATASIZE LT PUSH2 0x7E JUMPI PUSH0 CALLDATALOAD PUSH1 0xE0 SHR DUP1 PUSH4 0xA4B82523 GT PUSH2 0x4D JUMPI DUP1 PUSH4 0xA4B82523 EQ PUSH2 0x151 JUMPI DUP1 PUSH4 0xA526D83B EQ PUSH2 0x17B JUMPI DUP1 PUSH4 0xA6F9DAE1 EQ PUSH2 0x1A3 JUMPI DUP1 PUSH4 0xB1029623 EQ PUSH2 0x1CB JUMPI PUSH2 0x85 JUMP JUMPDEST DUP1 PUSH4 0x2E7E33DF EQ PUSH2 0x87 JUMPI DUP1 PUSH4 0x310EC4A7 EQ PUSH2 0xC3 JUMPI DUP1 PUSH4 0x4E5A1E2A EQ PUSH2 0xEB JUMPI DUP1 PUSH4 0x8DA5CB5B EQ PUSH2 0x127 JUMPI PUSH2 0x85 JUMP JUMPDEST CALLDATASIZE PUSH2 0x85 JUMPI STOP JUMPDEST STOP JUMPDEST CALLVALUE DUP1 ISZERO PUSH2 0x92 JUMPI PUSH0 DUP1 REVERT JUMPDEST POP PUSH2 0xAD PUSH1 0x4 DUP1 CALLDATASIZE SUB DUP2 ADD SWAP1 PUSH2 0xA8 SWAP2 SWAP1 PUSH2 0xB9B JUMP JUMPDEST PUSH2 0x1F5 JUMP JUMPDEST PUSH1 0x40 MLOAD PUSH2 0xBA SWAP2 SWAP1 PUSH2 0xC81 JUMP JUMPDEST PUSH1 0x40 MLOAD DUP1 SWAP2 SUB SWAP1 RETURN JUMPDEST CALLVALUE DUP1 ISZERO PUSH2 0xCE JUMPI PUSH0 DUP1 REVERT JUMPDEST POP PUSH2 0xE9 PUSH1 0x4 DUP1 CALLDATASIZE SUB DUP2 ADD SWAP1 PUSH2 0xE4 SWAP2 SWAP1 PUSH2 0xCDC JUMP JUMPDEST PUSH2 0x312 JUMP JUMPDEST STOP JUMPDEST CALLVALUE DUP1 ISZERO PUSH2 0xF6 JUMPI PUSH0 DUP1 REVERT JUMPDEST POP PUSH2 0x111 PUSH1 0x4 DUP1 CALLDATASIZE SUB DUP2 ADD SWAP1 PUSH2 0x10C SWAP2 SWAP1 PUSH2 0xD1A JUMP JUMPDEST PUSH2 0x45A JUMP JUMPDEST PUSH1 0x40 MLOAD PUSH2 0x11E SWAP2 SWAP1 PUSH2 0xD5F JUMP JUMPDEST PUSH1 0x40 MLOAD DUP1 SWAP2 SUB SWAP1 RETURN JUMPDEST CALLVALUE DUP1 ISZERO PUSH2 0x132 JUMPI PUSH0 DUP1 REVERT JUMPDEST POP PUSH2 0x13B PUSH2 0x52C JUMP JUMPDEST PUSH1 0x40 MLOAD PUSH2 0x148 SWAP2 SWAP1 PUSH2 0xD87 JUMP JUMPDEST PUSH1 0x40 MLOAD DUP1 SWAP2 SUB SWAP1 RETURN JUMPDEST CALLVALUE DUP1 ISZERO PUSH2 0x15C JUMPI PUSH0 DUP1 REVERT JUMPDEST POP PUSH2 0x165 PUSH2 0x54F JUMP JUMPDEST PUSH1 0x40 MLOAD PUSH2 0x172 SWAP2 SWAP1 PUSH2 0xD5F JUMP JUMPDEST PUSH1 0x40 MLOAD DUP1 SWAP2 SUB SWAP1 RETURN JUMPDEST CALLVALUE DUP1 ISZERO PUSH2 0x186 JUMPI PUSH0 DUP1 REVERT JUMPDEST POP PUSH2 0x1A1 PUSH1 0x4 DUP1 CALLDATASIZE SUB DUP2 ADD SWAP1 PUSH2 0x19C SWAP2 SWAP1 PUSH2 0xDA0 JUMP JUMPDEST PUSH2 0x5A4 JUMP JUMPDEST STOP JUMPDEST CALLVALUE DUP1 ISZERO PUSH2 0x1AE JUMPI PUSH0 DUP1 REVERT JUMPDEST POP PUSH2 0x1C9 PUSH1 0x4 DUP1 CALLDATASIZE SUB DUP2 ADD SWAP1 PUSH2 0x1C4 SWAP2 SWAP1 PUSH2 0xDA0 JUMP JUMPDEST PUSH2 0x65E JUMP JUMPDEST STOP JUMPDEST CALLVALUE DUP1 ISZERO PUSH2 0x1D6 JUMPI PUSH0 DUP1 REVERT JUMPDEST POP PUSH2 0x1DF PUSH2 0x9BB JUMP JUMPDEST PUSH1 0x40 MLOAD PUSH2 0x1EC SWAP2 SWAP1 PUSH2 0xDDA JUMP JUMPDEST PUSH1 0x40 MLOAD DUP1 SWAP2 SUB SWAP1 RETURN JUMPDEST PUSH1 0x60 PUSH2 0x1FF PUSH2 0x54F JUMP JUMPDEST DUP1 PUSH2 0x20F JUMPI POP PUSH2 0x20E DUP4 PUSH2 0x45A JUMP JUMPDEST JUMPDEST PUSH2 0x217 JUMPI PUSH0 DUP1 REVERT JUMPDEST DUP3 SELFBALANCE LT ISZERO PUSH2 0x25A JUMPI PUSH1 0x40 MLOAD PUSH32 0x8C379A000000000000000000000000000000000000000000000000000000000 DUP2 MSTORE PUSH1 0x4 ADD PUSH2 0x251 SWAP1 PUSH2 0xE4D JUMP JUMPDEST PUSH1 0x40 MLOAD DUP1 SWAP2 SUB SWAP1 REVERT JUMPDEST PUSH0 DUP1 DUP6 PUSH20 0xFFFFFFFFFFFFFFFFFFFFFFFFFFFFFFFFFFFFFFFF AND DUP6 DUP6 PUSH1 0x40 MLOAD PUSH2 0x282 SWAP2 SWAP1 PUSH2 0xEA5 JUMP JUMPDEST PUSH0 PUSH1 0x40 MLOAD DUP1 DUP4 SUB DUP2 DUP6 DUP8 GAS CALL SWAP3 POP POP POP RETURNDATASIZE DUP1 PUSH0 DUP2 EQ PUSH2 0x2BC JUMPI PUSH1 0x40 MLOAD SWAP2 POP PUSH1 0x1F NOT PUSH1 0x3F RETURNDATASIZE ADD AND DUP3 ADD PUSH1 0x40 MSTORE RETURNDATASIZE DUP3 MSTORE RETURNDATASIZE PUSH0 PUSH1 0x20 DUP5 ADD RETURNDATACOPY PUSH2 0x2C1 JUMP JUMPDEST PUSH1 0x60 SWAP2 POP JUMPDEST POP SWAP2 POP SWAP2 POP DUP2 PUSH2 0x306 JUMPI PUSH1 0x40 MLOAD PUSH32 0x8C379A000000000000000000000000000000000000000000000000000000000 DUP2 MSTORE PUSH1 0x4 ADD PUSH2 0x2FD SWAP1 PUSH2 0xF05 JUMP JUMPDEST PUSH1 0x40 MLOAD DUP1 SWAP2 SUB SWAP1 REVERT JUMPDEST DUP1 SWAP3 POP POP POP SWAP4 SWAP3 POP POP POP JUMP JUMPDEST PUSH0 PUSH2 0x31B PUSH2 0x54F JUMP JUMPDEST SWAP1 POP DUP1 PUSH2 0x35D JUMPI PUSH1 0x40 MLOAD PUSH32 0x8C379A000000000000000000000000000000000000000000000000000000000 DUP2 MSTORE PUSH1 0x4 ADD PUSH2 0x354 SWAP1 PUSH2 0xF6D JUMP JUMPDEST PUSH1 0x40 MLOAD DUP1 SWAP2 SUB SWAP1 REVERT JUMPDEST DUP2 PUSH1 0x2 PUSH0 DUP6 PUSH20 0xFFFFFFFFFFFFFFFFFFFFFFFFFFFFFFFFFFFFFFFF AND PUSH20 0xFFFFFFFFFFFFFFFFFFFFFFFFFFFFFFFFFFFFFFFF AND DUP2 MSTORE PUSH1 0x20 ADD SWAP1 DUP2 MSTORE PUSH1 0x20 ADD PUSH0 KECCAK256 DUP2 SWAP1 SSTORE POP PUSH0 DUP3 GT ISZERO PUSH2 0x400 JUMPI PUSH1 0x1 DUP1 PUSH0 DUP6 PUSH20 0xFFFFFFFFFFFFFFFFFFFFFFFFFFFFFFFFFFFFFFFF AND PUSH20 0xFFFFFFFFFFFFFFFFFFFFFFFFFFFFFFFFFFFFFFFF AND DUP2 MSTORE PUSH1 0x20 ADD SWAP1 DUP2 MSTORE PUSH1 0x20 ADD PUSH0 KECCAK256 PUSH0 PUSH2 0x100 EXP DUP2 SLOAD DUP2 PUSH1 0xFF MUL NOT AND SWAP1 DUP4 ISZERO ISZERO MUL OR SWAP1 SSTORE POP PUSH2 0x455 JUMP JUMPDEST PUSH0 PUSH1 0x1 PUSH0 DUP6 PUSH20 0xFFFFFFFFFFFFFFFFFFFFFFFFFFFFFFFFFFFFFFFF AND PUSH20 0xFFFFFFFFFFFFFFFFFFFFFFFFFFFFFFFFFFFFFFFF AND DUP2 MSTORE PUSH1 0x20 ADD SWAP1 DUP2 MSTORE PUSH1 0x20 ADD PUSH0 KECCAK256 PUSH0 PUSH2 0x100 EXP DUP2 SLOAD DUP2 PUSH1 0xFF MUL NOT AND SWAP1 DUP4 ISZERO ISZERO MUL OR SWAP1 SSTORE POP JUMPDEST POP POP POP JUMP JUMPDEST PUSH0 PUSH1 0x1 PUSH0 CALLER PUSH20 0xFFFFFFFFFFFFFFFFFFFFFFFFFFFFFFFFFFFFFFFF AND PUSH20 0xFFFFFFFFFFFFFFFFFFFFFFFFFFFFFFFFFFFFFFFF AND DUP2 MSTORE PUSH1 0x20 ADD SWAP1 DUP2 MSTORE PUSH1 0x20 ADD PUSH0 KECCAK256 PUSH0 SWAP1 SLOAD SWAP1 PUSH2 0x100 EXP SWAP1 DIV PUSH1 0xFF AND PUSH2 0x4E4 JUMPI PUSH1 0x40 MLOAD PUSH32 0x8C379A000000000000000000000000000000000000000000000000000000000 DUP2 MSTORE PUSH1 0x4 ADD PUSH2 0x4DB SWAP1 PUSH2 0xFD5 JUMP JUMPDEST PUSH1 0x40 MLOAD DUP1 SWAP2 SUB SWAP1 REVERT JUMPDEST DUP2 PUSH1 0x2 PUSH0 CALLER PUSH20 0xFFFFFFFFFFFFFFFFFFFFFFFFFFFFFFFFFFFFFFFF AND PUSH20 0xFFFFFFFFFFFFFFFFFFFFFFFFFFFFFFFFFFFFFFFF AND DUP2 MSTORE PUSH1 0x20 ADD SWAP1 DUP2 MSTORE PUSH1 0x20 ADD PUSH0 KECCAK256 SLOAD LT ISZERO SWAP1 POP SWAP2 SWAP1 POP JUMP JUMPDEST PUSH0 DUP1 SLOAD SWAP1 PUSH2 0x100 EXP SWAP1 DIV PUSH20 0xFFFFFFFFFFFFFFFFFFFFFFFFFFFFFFFFFFFFFFFF AND DUP2 JUMP JUMPDEST PUSH0 DUP1 PUSH0 SWAP1 SLOAD SWAP1 PUSH2 0x100 EXP SWAP1 DIV PUSH20 0xFFFFFFFFFFFFFFFFFFFFFFFFFFFFFFFFFFFFFFFF AND PUSH20 0xFFFFFFFFFFFFFFFFFFFFFFFFFFFFFFFFFFFFFFFF AND CALLER PUSH20 0xFFFFFFFFFFFFFFFFFFFFFFFFFFFFFFFFFFFFFFFF AND EQ SWAP1 POP SWAP1 JUMP JUMPDEST PUSH1 0x5 PUSH1 0x4 SLOAD LT ISZERO PUSH2 0x620 JUMPI PUSH1 0x4 PUSH0 DUP2 SLOAD DUP1 SWAP3 SWAP2 SWAP1 PUSH2 0x5C1 SWAP1 PUSH2 0x1020 JUMP JUMPDEST SWAP2 SWAP1 POP SSTORE POP PUSH1 0x1 PUSH1 0x3 PUSH0 DUP4 PUSH20 0xFFFFFFFFFFFFFFFFFFFFFFFFFFFFFFFFFFFFFFFF AND PUSH20 0xFFFFFFFFFFFFFFFFFFFFFFFFFFFFFFFFFFFFFFFF AND DUP2 MSTORE PUSH1 0x20 ADD SWAP1 DUP2 MSTORE PUSH1 0x20 ADD PUSH0 KECCAK256 PUSH0 PUSH2 0x100 EXP DUP2 SLOAD DUP2 PUSH1 0xFF MUL NOT AND SWAP1 DUP4 ISZERO ISZERO MUL OR SWAP1 SSTORE POP PUSH2 0x65B JUMP JUMPDEST PUSH1 0x40 MLOAD PUSH32 0x8C379A000000000000000000000000000000000000000000000000000000000 DUP2 MSTORE PUSH1 0x4 ADD PUSH2 0x652 SWAP1 PUSH2 0x10D7 JUMP JUMPDEST PUSH1 0x40 MLOAD DUP1 SWAP2 SUB SWAP1 REVERT JUMPDEST POP JUMP JUMPDEST PUSH1 0x3 PUSH0 CALLER PUSH20 0xFFFFFFFFFFFFFFFFFFFFFFFFFFFFFFFFFFFFFFFF AND PUSH20 0xFFFFFFFFFFFFFFFFFFFFFFFFFFFFFFFFFFFFFFFF AND DUP2 MSTORE PUSH1 0x20 ADD SWAP1 DUP2 MSTORE PUSH1 0x20 ADD PUSH0 KECCAK256 PUSH0 SWAP1 SLOAD SWAP1 PUSH2 0x100 EXP SWAP1 DIV PUSH1 0xFF AND PUSH2 0x6E7 JUMPI PUSH1 0x40 MLOAD PUSH32 0x8C379A000000000000000000000000000000000000000000000000000000000 DUP2 MSTORE PUSH1 0x4 ADD PUSH2 0x6DE SWAP1 PUSH2 0x1165 JUMP JUMPDEST PUSH1 0x40 MLOAD DUP1 SWAP2 SUB SWAP1 REVERT JUMPDEST DUP1 PUSH20 0xFFFFFFFFFFFFFFFFFFFFFFFFFFFFFFFFFFFFFFFF AND PUSH1 0x5 PUSH0 SWAP1 SLOAD SWAP1 PUSH2 0x100 EXP SWAP1 DIV PUSH20 0xFFFFFFFFFFFFFFFFFFFFFFFFFFFFFFFFFFFFFFFF AND PUSH20 0xFFFFFFFFFFFFFFFFFFFFFFFFFFFFFFFFFFFFFFFF AND EQ PUSH2 0x803 JUMPI DUP1 PUSH1 0x5 PUSH0 PUSH2 0x100 EXP DUP2 SLOAD DUP2 PUSH20 0xFFFFFFFFFFFFFFFFFFFFFFFFFFFFFFFFFFFFFFFF MUL NOT AND SWAP1 DUP4 PUSH20 0xFFFFFFFFFFFFFFFFFFFFFFFFFFFFFFFFFFFFFFFF AND MUL OR SWAP1 SSTORE POP PUSH1 0x1 PUSH1 0x6 DUP2 SWAP1 SSTORE POP DUP1 PUSH1 0x7 PUSH0 CALLER PUSH20 0xFFFFFFFFFFFFFFFFFFFFFFFFFFFFFFFFFFFFFFFF AND PUSH20 0xFFFFFFFFFFFFFFFFFFFFFFFFFFFFFFFFFFFFFFFF AND DUP2 MSTORE PUSH1 0x20 ADD SWAP1 DUP2 MSTORE PUSH1 0x20 ADD PUSH0 KECCAK256 PUSH0 PUSH2 0x100 EXP DUP2 SLOAD DUP2 PUSH20 0xFFFFFFFFFFFFFFFFFFFFFFFFFFFFFFFFFFFFFFFF MUL NOT AND SWAP1 DUP4 PUSH20 0xFFFFFFFFFFFFFFFFFFFFFFFFFFFFFFFFFFFFFFFF AND MUL OR SWAP1 SSTORE POP PUSH2 0x9B8 JUMP JUMPDEST DUP1 PUSH20 0xFFFFFFFFFFFFFFFFFFFFFFFFFFFFFFFFFFFFFFFF AND PUSH1 0x7 PUSH0 CALLER PUSH20 0xFFFFFFFFFFFFFFFFFFFFFFFFFFFFFFFFFFFFFFFF AND PUSH20 0xFFFFFFFFFFFFFFFFFFFFFFFFFFFFFFFFFFFFFFFF AND DUP2 MSTORE PUSH1 0x20 ADD SWAP1 DUP2 MSTORE PUSH1 0x20 ADD PUSH0 KECCAK256 PUSH0 SWAP1 SLOAD SWAP1 PUSH2 0x100 EXP SWAP1 DIV PUSH20 0xFFFFFFFFFFFFFFFFFFFFFFFFFFFFFFFFFFFFFFFF AND PUSH20 0xFFFFFFFFFFFFFFFFFFFFFFFFFFFFFFFFFFFFFFFF AND EQ PUSH2 0x925 JUMPI PUSH1 0x6 PUSH0 DUP2 SLOAD DUP1 SWAP3 SWAP2 SWAP1 PUSH2 0x8A4 SWAP1 PUSH2 0x1020 JUMP JUMPDEST SWAP2 SWAP1 POP SSTORE POP DUP1 PUSH1 0x7 PUSH0 CALLER PUSH20 0xFFFFFFFFFFFFFFFFFFFFFFFFFFFFFFFFFFFFFFFF AND PUSH20 0xFFFFFFFFFFFFFFFFFFFFFFFFFFFFFFFFFFFFFFFF AND DUP2 MSTORE PUSH1 0x20 ADD SWAP1 DUP2 MSTORE PUSH1 0x20 ADD PUSH0 KECCAK256 PUSH0 PUSH2 0x100 EXP DUP2 SLOAD DUP2 PUSH20 0xFFFFFFFFFFFFFFFFFFFFFFFFFFFFFFFFFFFFFFFF MUL NOT AND SWAP1 DUP4 PUSH20 0xFFFFFFFFFFFFFFFFFFFFFFFFFFFFFFFFFFFFFFFF AND MUL OR SWAP1 SSTORE POP JUMPDEST PUSH1 0x8 SLOAD PUSH1 0x6 SLOAD LT PUSH2 0x9B7 JUMPI DUP1 PUSH0 DUP1 PUSH2 0x100 EXP DUP2 SLOAD DUP2 PUSH20 0xFFFFFFFFFFFFFFFFFFFFFFFFFFFFFFFFFFFFFFFF MUL NOT AND SWAP1 DUP4 PUSH20 0xFFFFFFFFFFFFFFFFFFFFFFFFFFFFFFFFFFFFFFFF AND MUL OR SWAP1 SSTORE POP PUSH0 PUSH1 0x5 PUSH0 PUSH2 0x100 EXP DUP2 SLOAD DUP2 PUSH20 0xFFFFFFFFFFFFFFFFFFFFFFFFFFFFFFFFFFFFFFFF MUL NOT AND SWAP1 DUP4 PUSH20 0xFFFFFFFFFFFFFFFFFFFFFFFFFFFFFFFFFFFFFFFF AND MUL OR SWAP1 SSTORE POP PUSH0 PUSH1 0x6 DUP2 SWAP1 SSTORE POP JUMPDEST JUMPDEST POP JUMP JUMPDEST PUSH1 0x4 SLOAD DUP2 JUMP JUMPDEST PUSH0 PUSH1 0x40 MLOAD SWAP1 POP SWAP1 JUMP JUMPDEST PUSH0 DUP1 REVERT JUMPDEST PUSH0 DUP1 REVERT JUMPDEST PUSH0 PUSH20 0xFFFFFFFFFFFFFFFFFFFFFFFFFFFFFFFFFFFFFFFF DUP3 AND SWAP1 POP SWAP2 SWAP1 POP JUMP JUMPDEST PUSH0 PUSH2 0x9FB DUP3 PUSH2 0x9D2 JUMP JUMPDEST SWAP1 POP SWAP2 SWAP1 POP JUMP JUMPDEST PUSH2 0xA0B DUP2 PUSH2 0x9F1 JUMP JUMPDEST DUP2 EQ PUSH2 0xA15 JUMPI PUSH0 DUP1 REVERT JUMPDEST POP JUMP JUMPDEST PUSH0 DUP2 CALLDATALOAD SWAP1 POP PUSH2 0xA26 DUP2 PUSH2 0xA02 JUMP JUMPDEST SWAP3 SWAP2 POP POP JUMP JUMPDEST PUSH0 DUP2 SWAP1 POP SWAP2 SWAP1 POP JUMP JUMPDEST PUSH2 0xA3E DUP2 PUSH2 0xA2C JUMP JUMPDEST DUP2 EQ PUSH2 0xA48 JUMPI PUSH0 DUP1 REVERT JUMPDEST POP JUMP JUMPDEST PUSH0 DUP2 CALLDATALOAD SWAP1 POP PUSH2 0xA59 DUP2 PUSH2 0xA35 JUMP JUMPDEST SWAP3 SWAP2 POP POP JUMP JUMPDEST PUSH0 DUP1 REVERT JUMPDEST PUSH0 DUP1 REVERT JUMPDEST PUSH0 PUSH1 0x1F NOT PUSH1 0x1F DUP4 ADD AND SWAP1 POP SWAP2 SWAP1 POP JUMP JUMPDEST PUSH32 0x4E487B7100000000000000000000000000000000000000000000000000000000 PUSH0 MSTORE PUSH1 0x41 PUSH1 0x4 MSTORE PUSH1 0x24 PUSH0 REVERT JUMPDEST PUSH2 0xAAD DUP3 PUSH2 0xA67 JUMP JUMPDEST DUP2 ADD DUP2 DUP2 LT PUSH8 0xFFFFFFFFFFFFFFFF DUP3 GT OR ISZERO PUSH2 0xACC JUMPI PUSH2 0xACB PUSH2 0xA77 JUMP JUMPDEST JUMPDEST DUP1 PUSH1 0x40 MSTORE POP POP POP JUMP JUMPDEST PUSH0 PUSH2 0xADE PUSH2 0x9C1 JUMP JUMPDEST SWAP1 POP PUSH2 0xAEA DUP3 DUP3 PUSH2 0xAA4 JUMP JUMPDEST SWAP2 SWAP1 POP JUMP JUMPDEST PUSH0 PUSH8 0xFFFFFFFFFFFFFFFF DUP3 GT ISZERO PUSH2 0xB09 JUMPI PUSH2 0xB08 PUSH2 0xA77 JUMP JUMPDEST JUMPDEST PUSH2 0xB12 DUP3 PUSH2 0xA67 JUMP JUMPDEST SWAP1 POP PUSH1 0x20 DUP2 ADD SWAP1 POP SWAP2 SWAP1 POP JUMP JUMPDEST DUP3 DUP2 DUP4 CALLDATACOPY PUSH0 DUP4 DUP4 ADD MSTORE POP POP POP JUMP JUMPDEST PUSH0 PUSH2 0xB3F PUSH2 0xB3A DUP5 PUSH2 0xAEF JUMP JUMPDEST PUSH2 0xAD5 JUMP JUMPDEST SWAP1 POP DUP3 DUP2 MSTORE PUSH1 0x20 DUP2 ADD DUP5 DUP5 DUP5 ADD GT ISZERO PUSH2 0xB5B JUMPI PUSH2 0xB5A PUSH2 0xA63 JUMP JUMPDEST JUMPDEST PUSH2 0xB66 DUP5 DUP3 DUP6 PUSH2 0xB1F JUMP JUMPDEST POP SWAP4 SWAP3 POP POP POP JUMP JUMPDEST PUSH0 DUP3 PUSH1 0x1F DUP4 ADD SLT PUSH2 0xB82 JUMPI PUSH2 0xB81 PUSH2 0xA5F JUMP JUMPDEST JUMPDEST DUP2 CALLDATALOAD PUSH2 0xB92 DUP5 DUP3 PUSH1 0x20 DUP7 ADD PUSH2 0xB2D JUMP JUMPDEST SWAP2 POP POP SWAP3 SWAP2 POP POP JUMP JUMPDEST PUSH0 DUP1 PUSH0 PUSH1 0x60 DUP5 DUP7 SUB SLT ISZERO PUSH2 0xBB2 JUMPI PUSH2 0xBB1 PUSH2 0x9CA JUMP JUMPDEST JUMPDEST PUSH0 PUSH2 0xBBF DUP7 DUP3 DUP8 ADD PUSH2 0xA18 JUMP JUMPDEST SWAP4 POP POP PUSH1 0x20 PUSH2 0xBD0 DUP7 DUP3 DUP8 ADD PUSH2 0xA4B JUMP JUMPDEST SWAP3 POP POP PUSH1 0x40 DUP5 ADD CALLDATALOAD PUSH8 0xFFFFFFFFFFFFFFFF DUP2 GT ISZERO PUSH2 0xBF1 JUMPI PUSH2 0xBF0 PUSH2 0x9CE JUMP JUMPDEST JUMPDEST PUSH2 0xBFD DUP7 DUP3 DUP8 ADD PUSH2 0xB6E JUMP JUMPDEST SWAP2 POP POP SWAP3 POP SWAP3 POP SWAP3 JUMP JUMPDEST PUSH0 DUP2 MLOAD SWAP1 POP SWAP2 SWAP1 POP JUMP JUMPDEST PUSH0 DUP3 DUP3 MSTORE PUSH1 0x20 DUP3 ADD SWAP1 POP SWAP3 SWAP2 POP POP JUMP JUMPDEST PUSH0 JUMPDEST DUP4 DUP2 LT ISZERO PUSH2 0xC3E JUMPI DUP1 DUP3 ADD MLOAD DUP2 DUP5 ADD MSTORE PUSH1 0x20 DUP2 ADD SWAP1 POP PUSH2 0xC23 JUMP JUMPDEST PUSH0 DUP5 DUP5 ADD MSTORE POP POP POP POP JUMP JUMPDEST PUSH0 PUSH2 0xC53 DUP3 PUSH2 0xC07 JUMP JUMPDEST PUSH2 0xC5D DUP2 DUP6 PUSH2 0xC11 JUMP JUMPDEST SWAP4 POP PUSH2 0xC6D DUP2 DUP6 PUSH1 0x20 DUP7 ADD PUSH2 0xC21 JUMP JUMPDEST PUSH2 0xC76 DUP2 PUSH2 0xA67 JUMP JUMPDEST DUP5 ADD SWAP2 POP POP SWAP3 SWAP2 POP POP JUMP JUMPDEST PUSH0 PUSH1 0x20 DUP3 ADD SWAP1 POP DUP2 DUP2 SUB PUSH0 DUP4 ADD MSTORE PUSH2 0xC99 DUP2 DUP5 PUSH2 0xC49 JUMP JUMPDEST SWAP1 POP SWAP3 SWAP2 POP POP JUMP JUMPDEST PUSH0 PUSH2 0xCAB DUP3 PUSH2 0x9D2 JUMP JUMPDEST SWAP1 POP SWAP2 SWAP1 POP JUMP JUMPDEST PUSH2 0xCBB DUP2 PUSH2 0xCA1 JUMP JUMPDEST DUP2 EQ PUSH2 0xCC5 JUMPI PUSH0 DUP1 REVERT JUMPDEST POP JUMP JUMPDEST PUSH0 DUP2 CALLDATALOAD SWAP1 POP PUSH2 0xCD6 DUP2 PUSH2 0xCB2 JUMP JUMPDEST SWAP3 SWAP2 POP POP JUMP JUMPDEST PUSH0 DUP1 PUSH1 0x40 DUP4 DUP6 SUB SLT ISZERO PUSH2 0xCF2 JUMPI PUSH2 0xCF1 PUSH2 0x9CA JUMP JUMPDEST JUMPDEST PUSH0 PUSH2 0xCFF DUP6 DUP3 DUP7 ADD PUSH2 0xCC8 JUMP JUMPDEST SWAP3 POP POP PUSH1 0x20 PUSH2 0xD10 DUP6 DUP3 DUP7 ADD PUSH2 0xA4B JUMP JUMPDEST SWAP2 POP POP SWAP3 POP SWAP3 SWAP1 POP JUMP JUMPDEST PUSH0 PUSH1 0x20 DUP3 DUP5 SUB SLT ISZERO PUSH2 0xD2F JUMPI PUSH2 0xD2E PUSH2 0x9CA JUMP JUMPDEST JUMPDEST PUSH0 PUSH2 0xD3C DUP5 DUP3 DUP6 ADD PUSH2 0xA4B JUMP JUMPDEST SWAP2 POP POP SWAP3 SWAP2 POP POP JUMP JUMPDEST PUSH0 DUP2 ISZERO ISZERO SWAP1 POP SWAP2 SWAP1 POP JUMP JUMPDEST PUSH2 0xD59 DUP2 PUSH2 0xD45 JUMP JUMPDEST DUP3 MSTORE POP POP JUMP JUMPDEST PUSH0 PUSH1 0x20 DUP3 ADD SWAP1 POP PUSH2 0xD72 PUSH0 DUP4 ADD DUP5 PUSH2 0xD50 JUMP JUMPDEST SWAP3 SWAP2 POP POP JUMP JUMPDEST PUSH2 0xD81 DUP2 PUSH2 0x9F1 JUMP JUMPDEST DUP3 MSTORE POP POP JUMP JUMPDEST PUSH0 PUSH1 0x20 DUP3 ADD SWAP1 POP PUSH2 0xD9A PUSH0 DUP4 ADD DUP5 PUSH2 0xD78 JUMP JUMPDEST SWAP3 SWAP2 POP POP JUMP JUMPDEST PUSH0 PUSH1 0x20 DUP3 DUP5 SUB SLT ISZERO PUSH2 0xDB5 JUMPI PUSH2 0xDB4 PUSH2 0x9CA JUMP JUMPDEST JUMPDEST PUSH0 PUSH2 0xDC2 DUP5 DUP3 DUP6 ADD PUSH2 0xCC8 JUMP JUMPDEST SWAP2 POP POP SWAP3 SWAP2 POP POP JUMP JUMPDEST PUSH2 0xDD4 DUP2 PUSH2 0xA2C JUMP JUMPDEST DUP3 MSTORE POP POP JUMP JUMPDEST PUSH0 PUSH1 0x20 DUP3 ADD SWAP1 POP PUSH2 0xDED PUSH0 DUP4 ADD DUP5 PUSH2 0xDCB JUMP JUMPDEST SWAP3 SWAP2 POP POP JUMP JUMPDEST PUSH0 DUP3 DUP3 MSTORE PUSH1 0x20 DUP3 ADD SWAP1 POP SWAP3 SWAP2 POP POP JUMP JUMPDEST PUSH32 0x4E6F7420656E6F7567682062616C616E63652100000000000000000000000000 PUSH0 DUP3 ADD MSTORE POP JUMP JUMPDEST PUSH0 PUSH2 0xE37 PUSH1 0x13 DUP4 PUSH2 0xDF3 JUMP JUMPDEST SWAP2 POP PUSH2 0xE42 DUP3 PUSH2 0xE03 JUMP JUMPDEST PUSH1 0x20 DUP3 ADD SWAP1 POP SWAP2 SWAP1 POP JUMP JUMPDEST PUSH0 PUSH1 0x20 DUP3 ADD SWAP1 POP DUP2 DUP2 SUB PUSH0 DUP4 ADD MSTORE PUSH2 0xE64 DUP2 PUSH2 0xE2B JUMP JUMPDEST SWAP1 POP SWAP2 SWAP1 POP JUMP JUMPDEST PUSH0 DUP2 SWAP1 POP SWAP3 SWAP2 POP POP JUMP JUMPDEST PUSH0 PUSH2 0xE7F DUP3 PUSH2 0xC07 JUMP JUMPDEST PUSH2 0xE89 DUP2 DUP6 PUSH2 0xE6B JUMP JUMPDEST SWAP4 POP PUSH2 0xE99 DUP2 DUP6 PUSH1 0x20 DUP7 ADD PUSH2 0xC21 JUMP JUMPDEST DUP1 DUP5 ADD SWAP2 POP POP SWAP3 SWAP2 POP POP JUMP JUMPDEST PUSH0 PUSH2 0xEB0 DUP3 DUP5 PUSH2 0xE75 JUMP JUMPDEST SWAP2 POP DUP2 SWAP1 POP SWAP3 SWAP2 POP POP JUMP JUMPDEST PUSH32 0x5472616E7366657220776173206E6F74207375636365737366756C0000000000 PUSH0 DUP3 ADD MSTORE POP JUMP JUMPDEST PUSH0 PUSH2 0xEEF PUSH1 0x1B DUP4 PUSH2 0xDF3 JUMP JUMPDEST SWAP2 POP PUSH2 0xEFA DUP3 PUSH2 0xEBB JUMP JUMPDEST PUSH1 0x20 DUP3 ADD SWAP1 POP SWAP2 SWAP1 POP JUMP JUMPDEST PUSH0 PUSH1 0x20 DUP3 ADD SWAP1 POP DUP2 DUP2 SUB PUSH0 DUP4 ADD MSTORE PUSH2 0xF1C DUP2 PUSH2 0xEE3 JUMP JUMPDEST SWAP1 POP SWAP2 SWAP1 POP JUMP JUMPDEST PUSH32 0x41757468656E7469636174696F6E206572726F72000000000000000000000000 PUSH0 DUP3 ADD MSTORE POP JUMP JUMPDEST PUSH0 PUSH2 0xF57 PUSH1 0x14 DUP4 PUSH2 0xDF3 JUMP JUMPDEST SWAP2 POP PUSH2 0xF62 DUP3 PUSH2 0xF23 JUMP JUMPDEST PUSH1 0x20 DUP3 ADD SWAP1 POP SWAP2 SWAP1 POP JUMP JUMPDEST PUSH0 PUSH1 0x20 DUP3 ADD SWAP1 POP DUP2 DUP2 SUB PUSH0 DUP4 ADD MSTORE PUSH2 0xF84 DUP2 PUSH2 0xF4B JUMP JUMPDEST SWAP1 POP SWAP2 SWAP1 POP JUMP JUMPDEST PUSH32 0x546869732073656E646572206973206E6F7420616C6C6F776564210000000000 PUSH0 DUP3 ADD MSTORE POP JUMP JUMPDEST PUSH0 PUSH2 0xFBF PUSH1 0x1B DUP4 PUSH2 0xDF3 JUMP JUMPDEST SWAP2 POP PUSH2 0xFCA DUP3 PUSH2 0xF8B JUMP JUMPDEST PUSH1 0x20 DUP3 ADD SWAP1 POP SWAP2 SWAP1 POP JUMP JUMPDEST PUSH0 PUSH1 0x20 DUP3 ADD SWAP1 POP DUP2 DUP2 SUB PUSH0 DUP4 ADD MSTORE PUSH2 0xFEC DUP2 PUSH2 0xFB3 JUMP JUMPDEST SWAP1 POP SWAP2 SWAP1 POP JUMP JUMPDEST PUSH32 0x4E487B7100000000000000000000000000000000000000000000000000000000 PUSH0 MSTORE PUSH1 0x11 PUSH1 0x4 MSTORE PUSH1 0x24 PUSH0 REVERT JUMPDEST PUSH0 PUSH2 0x102A DUP3 PUSH2 0xA2C JUMP JUMPDEST SWAP2 POP PUSH32 0xFFFFFFFFFFFFFFFFFFFFFFFFFFFFFFFFFFFFFFFFFFFFFFFFFFFFFFFFFFFFFFFF DUP3 SUB PUSH2 0x105C JUMPI PUSH2 0x105B PUSH2 0xFF3 JUMP JUMPDEST JUMPDEST PUSH1 0x1 DUP3 ADD SWAP1 POP SWAP2 SWAP1 POP JUMP JUMPDEST PUSH32 0x43616E6E6F742061646420616E6F7468657220677561726469616E2C20746865 PUSH0 DUP3 ADD MSTORE PUSH32 0x72652061726520616C726561647920656E6F7567680000000000000000000000 PUSH1 0x20 DUP3 ADD MSTORE POP JUMP JUMPDEST PUSH0 PUSH2 0x10C1 PUSH1 0x35 DUP4 PUSH2 0xDF3 JUMP JUMPDEST SWAP2 POP PUSH2 0x10CC DUP3 PUSH2 0x1067 JUMP JUMPDEST PUSH1 0x40 DUP3 ADD SWAP1 POP SWAP2 SWAP1 POP JUMP JUMPDEST PUSH0 PUSH1 0x20 DUP3 ADD SWAP1 POP DUP2 DUP2 SUB PUSH0 DUP4 ADD MSTORE PUSH2 0x10EE DUP2 PUSH2 0x10B5 JUMP JUMPDEST SWAP1 POP SWAP2 SWAP1 POP JUMP JUMPDEST PUSH32 0x4E6F74206120677561726469616E2C2063616E6E6F74206368616E6765206F77 PUSH0 DUP3 ADD MSTORE PUSH32 0x6E65720000000000000000000000000000000000000000000000000000000000 PUSH1 0x20 DUP3 ADD MSTORE POP JUMP JUMPDEST PUSH0 PUSH2 0x114F PUSH1 0x23 DUP4 PUSH2 0xDF3 JUMP JUMPDEST SWAP2 POP PUSH2 0x115A DUP3 PUSH2 0x10F5 JUMP JUMPDEST PUSH1 0x40 DUP3 ADD SWAP1 POP SWAP2 SWAP1 POP JUMP JUMPDEST PUSH0 PUSH1 0x20 DUP3 ADD SWAP1 POP DUP2 DUP2 SUB PUSH0 DUP4 ADD MSTORE PUSH2 0x117C DUP2 PUSH2 0x1143 JUMP JUMPDEST SWAP1 POP SWAP2 SWAP1 POP JUMP INVALID LOG2 PUSH5 0x6970667358 0x22 SLT KECCAK256 SWAP5 CALLER PUSH25 0xF9AB71E62E1CF45CD8FABCD6FDF41415DAF0667C32DBC5AE0B 0xBB DUP3 0xA8 0xAD PUSH5 0x736F6C6343 STOP ADDMOD EQ STOP CALLER "
				},
				"gasEstimates": {
					"creation": {
						"codeDepositCost": "907400",
						"executionCost": "47311",
						"totalCost": "954711"
					},
					"external": {
						"": "173",
						"addGuardian(address)": "51316",
						"changeOwner(address)": "113634",
						"hasEnoughAllowance(uint256)": "5079",
						"isAuthenticated()": "2490",
						"nGuardians()": "2491",
						"owner()": "2572",
						"sendFunds(address,uint256,bytes)": "infinite",
						"setAllowance(address,uint256)": "49450"
					}
				},
				"methodIdentifiers": {
					"addGuardian(address)": "a526d83b",
					"changeOwner(address)": "a6f9dae1",
					"hasEnoughAllowance(uint256)": "4e5a1e2a",
					"isAuthenticated()": "a4b82523",
					"nGuardians()": "b1029623",
					"owner()": "8da5cb5b",
					"sendFunds(address,uint256,bytes)": "2e7e33df",
					"setAllowance(address,uint256)": "310ec4a7"
				}
			},
			"storageLayout": {
				"storage": [
					{
						"astId": 3,
						"contract": "contracts/SmartWallet.sol:SmartWallet",
						"label": "owner",
						"offset": 0,
						"slot": "0",
						"type": "t_address_payable"
					},
					{
						"astId": 7,
						"contract": "contracts/SmartWallet.sol:SmartWallet",
						"label": "isAllowed",
						"offset": 0,
						"slot": "1",
						"type": "t_mapping(t_address,t_bool)"
					},
					{
						"astId": 11,
						"contract": "contracts/SmartWallet.sol:SmartWallet",
						"label": "allowances",
						"offset": 0,
						"slot": "2",
						"type": "t_mapping(t_address,t_uint256)"
					},
					{
						"astId": 15,
						"contract": "contracts/SmartWallet.sol:SmartWallet",
						"label": "guardians",
						"offset": 0,
						"slot": "3",
						"type": "t_mapping(t_address,t_bool)"
					},
					{
						"astId": 17,
						"contract": "contracts/SmartWallet.sol:SmartWallet",
						"label": "nGuardians",
						"offset": 0,
						"slot": "4",
						"type": "t_uint256"
					},
					{
						"astId": 19,
						"contract": "contracts/SmartWallet.sol:SmartWallet",
						"label": "nextOwner",
						"offset": 0,
						"slot": "5",
						"type": "t_address"
					},
					{
						"astId": 21,
						"contract": "contracts/SmartWallet.sol:SmartWallet",
						"label": "nVotes",
						"offset": 0,
						"slot": "6",
						"type": "t_uint256"
					},
					{
						"astId": 25,
						"contract": "contracts/SmartWallet.sol:SmartWallet",
						"label": "guardianVotes",
						"offset": 0,
						"slot": "7",
						"type": "t_mapping(t_address,t_address)"
					},
					{
						"astId": 28,
						"contract": "contracts/SmartWallet.sol:SmartWallet",
						"label": "confirmationForReset",
						"offset": 0,
						"slot": "8",
						"type": "t_uint256"
					}
				],
				"types": {
					"t_address": {
						"encoding": "inplace",
						"label": "address",
						"numberOfBytes": "20"
					},
					"t_address_payable": {
						"encoding": "inplace",
						"label": "address payable",
						"numberOfBytes": "20"
					},
					"t_bool": {
						"encoding": "inplace",
						"label": "bool",
						"numberOfBytes": "1"
					},
					"t_mapping(t_address,t_address)": {
						"encoding": "mapping",
						"key": "t_address",
						"label": "mapping(address => address)",
						"numberOfBytes": "32",
						"value": "t_address"
					},
					"t_mapping(t_address,t_bool)": {
						"encoding": "mapping",
						"key": "t_address",
						"label": "mapping(address => bool)",
						"numberOfBytes": "32",
						"value": "t_bool"
					},
					"t_mapping(t_address,t_uint256)": {
						"encoding": "mapping",
						"key": "t_address",
						"label": "mapping(address => uint256)",
						"numberOfBytes": "32",
						"value": "t_uint256"
					},
					"t_uint256": {
						"encoding": "inplace",
						"label": "uint256",
						"numberOfBytes": "32"
					}
				}
			},
			"userdoc": {
				"kind": "user",
				"methods": {},
				"version": 1
			}
		}
	}
}