{
	"contracts/ExampleUint.sol": {
		"ExampleUint": {
			"abi": [
				{
					"inputs": [],
					"name": "decrementMyUint8",
					"outputs": [],
					"stateMutability": "nonpayable",
					"type": "function"
				},
				{
					"inputs": [],
					"name": "incrementInt",
					"outputs": [],
					"stateMutability": "nonpayable",
					"type": "function"
				},
				{
					"inputs": [],
					"name": "incrementMyUint8",
					"outputs": [],
					"stateMutability": "nonpayable",
					"type": "function"
				},
				{
					"inputs": [],
					"name": "myInt",
					"outputs": [
						{
							"internalType": "int256",
							"name": "",
							"type": "int256"
						}
					],
					"stateMutability": "view",
					"type": "function"
				},
				{
					"inputs": [],
					"name": "myUint",
					"outputs": [
						{
							"internalType": "uint256",
							"name": "",
							"type": "uint256"
						}
					],
					"stateMutability": "view",
					"type": "function"
				},
				{
					"inputs": [],
					"name": "myUint8",
					"outputs": [
						{
							"internalType": "uint8",
							"name": "",
							"type": "uint8"
						}
					],
					"stateMutability": "view",
					"type": "function"
				},
				{
					"inputs": [
						{
							"internalType": "uint256",
							"name": "_myUint",
							"type": "uint256"
						}
					],
					"name": "setMyUint",
					"outputs": [],
					"stateMutability": "nonpayable",
					"type": "function"
				}
			],
			"devdoc": {
				"kind": "dev",
				"methods": {},
				"version": 1
			},
			"evm": {
				"assembly": "    /* \"contracts/ExampleUint.sol\":58:459  contract ExampleUint {... */\n  mstore(0x40, 0x80)\n    /* \"contracts/ExampleUint.sol\":146:150  2**4 */\n  0x10\n    /* \"contracts/ExampleUint.sol\":123:150  uint8 public myUint8 = 2**4 */\n  0x01\n  exp(0x0100, 0x00)\n  dup2\n  sload\n  dup2\n  0xff\n  mul\n  not\n  and\n  swap1\n  dup4\n  0xff\n  and\n  mul\n  or\n  swap1\n  sstore\n  pop\n    /* \"contracts/ExampleUint.sol\":175:178  -20 */\n  0xffffffffffffffffffffffffffffffffffffffffffffffffffffffffffffffec\n    /* \"contracts/ExampleUint.sol\":156:178  int public myInt = -20 */\n  0x02\n  sstore\n    /* \"contracts/ExampleUint.sol\":58:459  contract ExampleUint {... */\n  callvalue\n  dup1\n  iszero\n  tag_1\n  jumpi\n  0x00\n  dup1\n  revert\ntag_1:\n  pop\n  dataSize(sub_0)\n  dup1\n  dataOffset(sub_0)\n  0x00\n  codecopy\n  0x00\n  return\nstop\n\nsub_0: assembly {\n        /* \"contracts/ExampleUint.sol\":58:459  contract ExampleUint {... */\n      mstore(0x40, 0x80)\n      callvalue\n      dup1\n      iszero\n      tag_1\n      jumpi\n      0x00\n      dup1\n      revert\n    tag_1:\n      pop\n      jumpi(tag_2, lt(calldatasize, 0x04))\n      shr(0xe0, calldataload(0x00))\n      dup1\n      0xa0949422\n      gt\n      tag_10\n      jumpi\n      dup1\n      0xa0949422\n      eq\n      tag_6\n      jumpi\n      dup1\n      0xe2a4b2af\n      eq\n      tag_7\n      jumpi\n      dup1\n      0xe492fd84\n      eq\n      tag_8\n      jumpi\n      dup1\n      0xf102a71d\n      eq\n      tag_9\n      jumpi\n      jump(tag_2)\n    tag_10:\n      dup1\n      0x06540f7e\n      eq\n      tag_3\n      jumpi\n      dup1\n      0x20e724c6\n      eq\n      tag_4\n      jumpi\n      dup1\n      0x2cb777a6\n      eq\n      tag_5\n      jumpi\n    tag_2:\n      0x00\n      dup1\n      revert\n        /* \"contracts/ExampleUint.sol\":86:104  uint public myUint */\n    tag_3:\n      tag_11\n      tag_12\n      jump\t// in\n    tag_11:\n      mload(0x40)\n      tag_13\n      swap2\n      swap1\n      tag_14\n      jump\t// in\n    tag_13:\n      mload(0x40)\n      dup1\n      swap2\n      sub\n      swap1\n      return\n        /* \"contracts/ExampleUint.sol\":268:329  function incrementMyUint8() public {... */\n    tag_4:\n      tag_15\n      tag_16\n      jump\t// in\n    tag_15:\n      stop\n        /* \"contracts/ExampleUint.sol\":156:178  int public myInt = -20 */\n    tag_5:\n      tag_17\n      tag_18\n      jump\t// in\n    tag_17:\n      mload(0x40)\n      tag_19\n      swap2\n      swap1\n      tag_20\n      jump\t// in\n    tag_19:\n      mload(0x40)\n      dup1\n      swap2\n      sub\n      swap1\n      return\n        /* \"contracts/ExampleUint.sol\":335:396  function decrementMyUint8() public {... */\n    tag_6:\n      tag_21\n      tag_22\n      jump\t// in\n    tag_21:\n      stop\n        /* \"contracts/ExampleUint.sol\":123:150  uint8 public myUint8 = 2**4 */\n    tag_7:\n      tag_23\n      tag_24\n      jump\t// in\n    tag_23:\n      mload(0x40)\n      tag_25\n      swap2\n      swap1\n      tag_26\n      jump\t// in\n    tag_25:\n      mload(0x40)\n      dup1\n      swap2\n      sub\n      swap1\n      return\n        /* \"contracts/ExampleUint.sol\":189:262  function setMyUint(uint _myUint) public {... */\n    tag_8:\n      tag_27\n      0x04\n      dup1\n      calldatasize\n      sub\n      dup2\n      add\n      swap1\n      tag_28\n      swap2\n      swap1\n      tag_29\n      jump\t// in\n    tag_28:\n      tag_30\n      jump\t// in\n    tag_27:\n      stop\n        /* \"contracts/ExampleUint.sol\":402:457  function incrementInt() public {... */\n    tag_9:\n      tag_31\n      tag_32\n      jump\t// in\n    tag_31:\n      stop\n        /* \"contracts/ExampleUint.sol\":86:104  uint public myUint */\n    tag_12:\n      sload(0x00)\n      dup2\n      jump\t// out\n        /* \"contracts/ExampleUint.sol\":268:329  function incrementMyUint8() public {... */\n    tag_16:\n        /* \"contracts/ExampleUint.sol\":313:320  myUint8 */\n      0x01\n      0x00\n        /* \"contracts/ExampleUint.sol\":313:322  myUint8++ */\n      dup2\n      dup2\n      swap1\n      sload\n      swap1\n      0x0100\n      exp\n      swap1\n      div\n      0xff\n      and\n      dup1\n      swap3\n      swap2\n      swap1\n      tag_34\n      swap1\n      tag_35\n      jump\t// in\n    tag_34:\n      swap2\n      swap1\n      0x0100\n      exp\n      dup2\n      sload\n      dup2\n      0xff\n      mul\n      not\n      and\n      swap1\n      dup4\n      0xff\n      and\n      mul\n      or\n      swap1\n      sstore\n      pop\n      pop\n        /* \"contracts/ExampleUint.sol\":268:329  function incrementMyUint8() public {... */\n      jump\t// out\n        /* \"contracts/ExampleUint.sol\":156:178  int public myInt = -20 */\n    tag_18:\n      sload(0x02)\n      dup2\n      jump\t// out\n        /* \"contracts/ExampleUint.sol\":335:396  function decrementMyUint8() public {... */\n    tag_22:\n        /* \"contracts/ExampleUint.sol\":380:387  myUint8 */\n      0x01\n      0x00\n        /* \"contracts/ExampleUint.sol\":380:389  myUint8-- */\n      dup2\n      dup2\n      swap1\n      sload\n      swap1\n      0x0100\n      exp\n      swap1\n      div\n      0xff\n      and\n      dup1\n      swap3\n      swap2\n      swap1\n      tag_37\n      swap1\n      tag_38\n      jump\t// in\n    tag_37:\n      swap2\n      swap1\n      0x0100\n      exp\n      dup2\n      sload\n      dup2\n      0xff\n      mul\n      not\n      and\n      swap1\n      dup4\n      0xff\n      and\n      mul\n      or\n      swap1\n      sstore\n      pop\n      pop\n        /* \"contracts/ExampleUint.sol\":335:396  function decrementMyUint8() public {... */\n      jump\t// out\n        /* \"contracts/ExampleUint.sol\":123:150  uint8 public myUint8 = 2**4 */\n    tag_24:\n      0x01\n      0x00\n      swap1\n      sload\n      swap1\n      0x0100\n      exp\n      swap1\n      div\n      0xff\n      and\n      dup2\n      jump\t// out\n        /* \"contracts/ExampleUint.sol\":189:262  function setMyUint(uint _myUint) public {... */\n    tag_30:\n        /* \"contracts/ExampleUint.sol\":248:255  _myUint */\n      dup1\n        /* \"contracts/ExampleUint.sol\":239:245  myUint */\n      0x00\n        /* \"contracts/ExampleUint.sol\":239:255  myUint = _myUint */\n      dup2\n      swap1\n      sstore\n      pop\n        /* \"contracts/ExampleUint.sol\":189:262  function setMyUint(uint _myUint) public {... */\n      pop\n      jump\t// out\n        /* \"contracts/ExampleUint.sol\":402:457  function incrementInt() public {... */\n    tag_32:\n        /* \"contracts/ExampleUint.sol\":443:448  myInt */\n      0x02\n      0x00\n        /* \"contracts/ExampleUint.sol\":443:450  myInt++ */\n      dup2\n      sload\n      dup1\n      swap3\n      swap2\n      swap1\n      tag_41\n      swap1\n      tag_42\n      jump\t// in\n    tag_41:\n      swap2\n      swap1\n      pop\n      sstore\n      pop\n        /* \"contracts/ExampleUint.sol\":402:457  function incrementInt() public {... */\n      jump\t// out\n        /* \"#utility.yul\":7:84   */\n    tag_43:\n        /* \"#utility.yul\":44:51   */\n      0x00\n        /* \"#utility.yul\":73:78   */\n      dup2\n        /* \"#utility.yul\":62:78   */\n      swap1\n      pop\n        /* \"#utility.yul\":7:84   */\n      swap2\n      swap1\n      pop\n      jump\t// out\n        /* \"#utility.yul\":90:208   */\n    tag_44:\n        /* \"#utility.yul\":177:201   */\n      tag_58\n        /* \"#utility.yul\":195:200   */\n      dup2\n        /* \"#utility.yul\":177:201   */\n      tag_43\n      jump\t// in\n    tag_58:\n        /* \"#utility.yul\":172:175   */\n      dup3\n        /* \"#utility.yul\":165:202   */\n      mstore\n        /* \"#utility.yul\":90:208   */\n      pop\n      pop\n      jump\t// out\n        /* \"#utility.yul\":214:436   */\n    tag_14:\n        /* \"#utility.yul\":307:311   */\n      0x00\n        /* \"#utility.yul\":345:347   */\n      0x20\n        /* \"#utility.yul\":334:343   */\n      dup3\n        /* \"#utility.yul\":330:348   */\n      add\n        /* \"#utility.yul\":322:348   */\n      swap1\n      pop\n        /* \"#utility.yul\":358:429   */\n      tag_60\n        /* \"#utility.yul\":426:427   */\n      0x00\n        /* \"#utility.yul\":415:424   */\n      dup4\n        /* \"#utility.yul\":411:428   */\n      add\n        /* \"#utility.yul\":402:408   */\n      dup5\n        /* \"#utility.yul\":358:429   */\n      tag_44\n      jump\t// in\n    tag_60:\n        /* \"#utility.yul\":214:436   */\n      swap3\n      swap2\n      pop\n      pop\n      jump\t// out\n        /* \"#utility.yul\":442:518   */\n    tag_45:\n        /* \"#utility.yul\":478:485   */\n      0x00\n        /* \"#utility.yul\":507:512   */\n      dup2\n        /* \"#utility.yul\":496:512   */\n      swap1\n      pop\n        /* \"#utility.yul\":442:518   */\n      swap2\n      swap1\n      pop\n      jump\t// out\n        /* \"#utility.yul\":524:639   */\n    tag_46:\n        /* \"#utility.yul\":609:632   */\n      tag_63\n        /* \"#utility.yul\":626:631   */\n      dup2\n        /* \"#utility.yul\":609:632   */\n      tag_45\n      jump\t// in\n    tag_63:\n        /* \"#utility.yul\":604:607   */\n      dup3\n        /* \"#utility.yul\":597:633   */\n      mstore\n        /* \"#utility.yul\":524:639   */\n      pop\n      pop\n      jump\t// out\n        /* \"#utility.yul\":645:863   */\n    tag_20:\n        /* \"#utility.yul\":736:740   */\n      0x00\n        /* \"#utility.yul\":774:776   */\n      0x20\n        /* \"#utility.yul\":763:772   */\n      dup3\n        /* \"#utility.yul\":759:777   */\n      add\n        /* \"#utility.yul\":751:777   */\n      swap1\n      pop\n        /* \"#utility.yul\":787:856   */\n      tag_65\n        /* \"#utility.yul\":853:854   */\n      0x00\n        /* \"#utility.yul\":842:851   */\n      dup4\n        /* \"#utility.yul\":838:855   */\n      add\n        /* \"#utility.yul\":829:835   */\n      dup5\n        /* \"#utility.yul\":787:856   */\n      tag_46\n      jump\t// in\n    tag_65:\n        /* \"#utility.yul\":645:863   */\n      swap3\n      swap2\n      pop\n      pop\n      jump\t// out\n        /* \"#utility.yul\":869:955   */\n    tag_47:\n        /* \"#utility.yul\":904:911   */\n      0x00\n        /* \"#utility.yul\":944:948   */\n      0xff\n        /* \"#utility.yul\":937:942   */\n      dup3\n        /* \"#utility.yul\":933:949   */\n      and\n        /* \"#utility.yul\":922:949   */\n      swap1\n      pop\n        /* \"#utility.yul\":869:955   */\n      swap2\n      swap1\n      pop\n      jump\t// out\n        /* \"#utility.yul\":961:1073   */\n    tag_48:\n        /* \"#utility.yul\":1044:1066   */\n      tag_68\n        /* \"#utility.yul\":1060:1065   */\n      dup2\n        /* \"#utility.yul\":1044:1066   */\n      tag_47\n      jump\t// in\n    tag_68:\n        /* \"#utility.yul\":1039:1042   */\n      dup3\n        /* \"#utility.yul\":1032:1067   */\n      mstore\n        /* \"#utility.yul\":961:1073   */\n      pop\n      pop\n      jump\t// out\n        /* \"#utility.yul\":1079:1293   */\n    tag_26:\n        /* \"#utility.yul\":1168:1172   */\n      0x00\n        /* \"#utility.yul\":1206:1208   */\n      0x20\n        /* \"#utility.yul\":1195:1204   */\n      dup3\n        /* \"#utility.yul\":1191:1209   */\n      add\n        /* \"#utility.yul\":1183:1209   */\n      swap1\n      pop\n        /* \"#utility.yul\":1219:1286   */\n      tag_70\n        /* \"#utility.yul\":1283:1284   */\n      0x00\n        /* \"#utility.yul\":1272:1281   */\n      dup4\n        /* \"#utility.yul\":1268:1285   */\n      add\n        /* \"#utility.yul\":1259:1265   */\n      dup5\n        /* \"#utility.yul\":1219:1286   */\n      tag_48\n      jump\t// in\n    tag_70:\n        /* \"#utility.yul\":1079:1293   */\n      swap3\n      swap2\n      pop\n      pop\n      jump\t// out\n        /* \"#utility.yul\":1380:1497   */\n    tag_50:\n        /* \"#utility.yul\":1489:1490   */\n      0x00\n        /* \"#utility.yul\":1486:1487   */\n      dup1\n        /* \"#utility.yul\":1479:1491   */\n      revert\n        /* \"#utility.yul\":1626:1748   */\n    tag_52:\n        /* \"#utility.yul\":1699:1723   */\n      tag_75\n        /* \"#utility.yul\":1717:1722   */\n      dup2\n        /* \"#utility.yul\":1699:1723   */\n      tag_43\n      jump\t// in\n    tag_75:\n        /* \"#utility.yul\":1692:1697   */\n      dup2\n        /* \"#utility.yul\":1689:1724   */\n      eq\n        /* \"#utility.yul\":1679:1742   */\n      tag_76\n      jumpi\n        /* \"#utility.yul\":1738:1739   */\n      0x00\n        /* \"#utility.yul\":1735:1736   */\n      dup1\n        /* \"#utility.yul\":1728:1740   */\n      revert\n        /* \"#utility.yul\":1679:1742   */\n    tag_76:\n        /* \"#utility.yul\":1626:1748   */\n      pop\n      jump\t// out\n        /* \"#utility.yul\":1754:1893   */\n    tag_53:\n        /* \"#utility.yul\":1800:1805   */\n      0x00\n        /* \"#utility.yul\":1838:1844   */\n      dup2\n        /* \"#utility.yul\":1825:1845   */\n      calldataload\n        /* \"#utility.yul\":1816:1845   */\n      swap1\n      pop\n        /* \"#utility.yul\":1854:1887   */\n      tag_78\n        /* \"#utility.yul\":1881:1886   */\n      dup2\n        /* \"#utility.yul\":1854:1887   */\n      tag_52\n      jump\t// in\n    tag_78:\n        /* \"#utility.yul\":1754:1893   */\n      swap3\n      swap2\n      pop\n      pop\n      jump\t// out\n        /* \"#utility.yul\":1899:2228   */\n    tag_29:\n        /* \"#utility.yul\":1958:1964   */\n      0x00\n        /* \"#utility.yul\":2007:2009   */\n      0x20\n        /* \"#utility.yul\":1995:2004   */\n      dup3\n        /* \"#utility.yul\":1986:1993   */\n      dup5\n        /* \"#utility.yul\":1982:2005   */\n      sub\n        /* \"#utility.yul\":1978:2010   */\n      slt\n        /* \"#utility.yul\":1975:2094   */\n      iszero\n      tag_80\n      jumpi\n        /* \"#utility.yul\":2013:2092   */\n      tag_81\n      tag_50\n      jump\t// in\n    tag_81:\n        /* \"#utility.yul\":1975:2094   */\n    tag_80:\n        /* \"#utility.yul\":2133:2134   */\n      0x00\n        /* \"#utility.yul\":2158:2211   */\n      tag_82\n        /* \"#utility.yul\":2203:2210   */\n      dup5\n        /* \"#utility.yul\":2194:2200   */\n      dup3\n        /* \"#utility.yul\":2183:2192   */\n      dup6\n        /* \"#utility.yul\":2179:2201   */\n      add\n        /* \"#utility.yul\":2158:2211   */\n      tag_53\n      jump\t// in\n    tag_82:\n        /* \"#utility.yul\":2148:2211   */\n      swap2\n      pop\n        /* \"#utility.yul\":2104:2221   */\n      pop\n        /* \"#utility.yul\":1899:2228   */\n      swap3\n      swap2\n      pop\n      pop\n      jump\t// out\n        /* \"#utility.yul\":2234:2414   */\n    tag_54:\n        /* \"#utility.yul\":2282:2359   */\n      0x4e487b7100000000000000000000000000000000000000000000000000000000\n        /* \"#utility.yul\":2279:2280   */\n      0x00\n        /* \"#utility.yul\":2272:2360   */\n      mstore\n        /* \"#utility.yul\":2379:2383   */\n      0x11\n        /* \"#utility.yul\":2376:2377   */\n      0x04\n        /* \"#utility.yul\":2369:2384   */\n      mstore\n        /* \"#utility.yul\":2403:2407   */\n      0x24\n        /* \"#utility.yul\":2400:2401   */\n      0x00\n        /* \"#utility.yul\":2393:2408   */\n      revert\n        /* \"#utility.yul\":2420:2587   */\n    tag_35:\n        /* \"#utility.yul\":2457:2460   */\n      0x00\n        /* \"#utility.yul\":2480:2502   */\n      tag_85\n        /* \"#utility.yul\":2496:2501   */\n      dup3\n        /* \"#utility.yul\":2480:2502   */\n      tag_47\n      jump\t// in\n    tag_85:\n        /* \"#utility.yul\":2471:2502   */\n      swap2\n      pop\n        /* \"#utility.yul\":2524:2528   */\n      0xff\n        /* \"#utility.yul\":2517:2522   */\n      dup3\n        /* \"#utility.yul\":2514:2529   */\n      sub\n        /* \"#utility.yul\":2511:2552   */\n      tag_86\n      jumpi\n        /* \"#utility.yul\":2532:2550   */\n      tag_87\n      tag_54\n      jump\t// in\n    tag_87:\n        /* \"#utility.yul\":2511:2552   */\n    tag_86:\n        /* \"#utility.yul\":2579:2580   */\n      0x01\n        /* \"#utility.yul\":2572:2577   */\n      dup3\n        /* \"#utility.yul\":2568:2581   */\n      add\n        /* \"#utility.yul\":2561:2581   */\n      swap1\n      pop\n        /* \"#utility.yul\":2420:2587   */\n      swap2\n      swap1\n      pop\n      jump\t// out\n        /* \"#utility.yul\":2593:2760   */\n    tag_38:\n        /* \"#utility.yul\":2630:2633   */\n      0x00\n        /* \"#utility.yul\":2653:2675   */\n      tag_89\n        /* \"#utility.yul\":2669:2674   */\n      dup3\n        /* \"#utility.yul\":2653:2675   */\n      tag_47\n      jump\t// in\n    tag_89:\n        /* \"#utility.yul\":2644:2675   */\n      swap2\n      pop\n        /* \"#utility.yul\":2697:2701   */\n      0x00\n        /* \"#utility.yul\":2690:2695   */\n      dup3\n        /* \"#utility.yul\":2687:2702   */\n      sub\n        /* \"#utility.yul\":2684:2725   */\n      tag_90\n      jumpi\n        /* \"#utility.yul\":2705:2723   */\n      tag_91\n      tag_54\n      jump\t// in\n    tag_91:\n        /* \"#utility.yul\":2684:2725   */\n    tag_90:\n        /* \"#utility.yul\":2752:2753   */\n      0x01\n        /* \"#utility.yul\":2745:2750   */\n      dup3\n        /* \"#utility.yul\":2741:2754   */\n      sub\n        /* \"#utility.yul\":2734:2754   */\n      swap1\n      pop\n        /* \"#utility.yul\":2593:2760   */\n      swap2\n      swap1\n      pop\n      jump\t// out\n        /* \"#utility.yul\":2766:2997   */\n    tag_42:\n        /* \"#utility.yul\":2804:2807   */\n      0x00\n        /* \"#utility.yul\":2827:2850   */\n      tag_93\n        /* \"#utility.yul\":2844:2849   */\n      dup3\n        /* \"#utility.yul\":2827:2850   */\n      tag_45\n      jump\t// in\n    tag_93:\n        /* \"#utility.yul\":2818:2850   */\n      swap2\n      pop\n        /* \"#utility.yul\":2872:2938   */\n      0x7fffffffffffffffffffffffffffffffffffffffffffffffffffffffffffffff\n        /* \"#utility.yul\":2865:2870   */\n      dup3\n        /* \"#utility.yul\":2862:2939   */\n      sub\n        /* \"#utility.yul\":2859:2962   */\n      tag_94\n      jumpi\n        /* \"#utility.yul\":2942:2960   */\n      tag_95\n      tag_54\n      jump\t// in\n    tag_95:\n        /* \"#utility.yul\":2859:2962   */\n    tag_94:\n        /* \"#utility.yul\":2989:2990   */\n      0x01\n        /* \"#utility.yul\":2982:2987   */\n      dup3\n        /* \"#utility.yul\":2978:2991   */\n      add\n        /* \"#utility.yul\":2971:2991   */\n      swap1\n      pop\n        /* \"#utility.yul\":2766:2997   */\n      swap2\n      swap1\n      pop\n      jump\t// out\n\n    auxdata: 0xa2646970667358221220b58062f80546a8d72a239e78ac5b44cb9826859239721dcde6144bde4c135ee664736f6c63430008140033\n}\n",
				"bytecode": {
					"linkReferences": {},
					"object": "6080604052601060015f6101000a81548160ff021916908360ff1602179055507fffffffffffffffffffffffffffffffffffffffffffffffffffffffffffffffec60025534801561004e575f80fd5b506103ac8061005c5f395ff3fe608060405234801561000f575f80fd5b506004361061007b575f3560e01c8063a094942211610059578063a0949422146100c5578063e2a4b2af146100cf578063e492fd84146100ed578063f102a71d146101095761007b565b806306540f7e1461007f57806320e724c61461009d5780632cb777a6146100a7575b5f80fd5b610087610113565b60405161009491906101dc565b60405180910390f35b6100a5610118565b005b6100af610151565b6040516100bc919061020d565b60405180910390f35b6100cd610157565b005b6100d7610190565b6040516100e49190610241565b60405180910390f35b61010760048036038101906101029190610288565b6101a2565b005b6101116101ab565b005b5f5481565b60015f81819054906101000a900460ff1680929190610136906102e0565b91906101000a81548160ff021916908360ff16021790555050565b60025481565b60015f81819054906101000a900460ff168092919061017590610308565b91906101000a81548160ff021916908360ff16021790555050565b60015f9054906101000a900460ff1681565b805f8190555050565b60025f8154809291906101bd9061032f565b9190505550565b5f819050919050565b6101d6816101c4565b82525050565b5f6020820190506101ef5f8301846101cd565b92915050565b5f819050919050565b610207816101f5565b82525050565b5f6020820190506102205f8301846101fe565b92915050565b5f60ff82169050919050565b61023b81610226565b82525050565b5f6020820190506102545f830184610232565b92915050565b5f80fd5b610267816101c4565b8114610271575f80fd5b50565b5f813590506102828161025e565b92915050565b5f6020828403121561029d5761029c61025a565b5b5f6102aa84828501610274565b91505092915050565b7f4e487b71000000000000000000000000000000000000000000000000000000005f52601160045260245ffd5b5f6102ea82610226565b915060ff82036102fd576102fc6102b3565b5b600182019050919050565b5f61031282610226565b91505f8203610324576103236102b3565b5b600182039050919050565b5f610339826101f5565b91507f7fffffffffffffffffffffffffffffffffffffffffffffffffffffffffffffff820361036b5761036a6102b3565b5b60018201905091905056fea2646970667358221220b58062f80546a8d72a239e78ac5b44cb9826859239721dcde6144bde4c135ee664736f6c63430008140033",
					"opcodes": "PUSH1 0x80 PUSH1 0x40 MSTORE PUSH1 0x10 PUSH1 0x1 PUSH0 PUSH2 0x100 EXP DUP2 SLOAD DUP2 PUSH1 0xFF MUL NOT AND SWAP1 DUP4 PUSH1 0xFF AND MUL OR SWAP1 SSTORE POP PUSH32 0xFFFFFFFFFFFFFFFFFFFFFFFFFFFFFFFFFFFFFFFFFFFFFFFFFFFFFFFFFFFFFFEC PUSH1 0x2 SSTORE CALLVALUE DUP1 ISZERO PUSH2 0x4E JUMPI PUSH0 DUP1 REVERT JUMPDEST POP PUSH2 0x3AC DUP1 PUSH2 0x5C PUSH0 CODECOPY PUSH0 RETURN INVALID PUSH1 0x80 PUSH1 0x40 MSTORE CALLVALUE DUP1 ISZERO PUSH2 0xF JUMPI PUSH0 DUP1 REVERT JUMPDEST POP PUSH1 0x4 CALLDATASIZE LT PUSH2 0x7B JUMPI PUSH0 CALLDATALOAD PUSH1 0xE0 SHR DUP1 PUSH4 0xA0949422 GT PUSH2 0x59 JUMPI DUP1 PUSH4 0xA0949422 EQ PUSH2 0xC5 JUMPI DUP1 PUSH4 0xE2A4B2AF EQ PUSH2 0xCF JUMPI DUP1 PUSH4 0xE492FD84 EQ PUSH2 0xED JUMPI DUP1 PUSH4 0xF102A71D EQ PUSH2 0x109 JUMPI PUSH2 0x7B JUMP JUMPDEST DUP1 PUSH4 0x6540F7E EQ PUSH2 0x7F JUMPI DUP1 PUSH4 0x20E724C6 EQ PUSH2 0x9D JUMPI DUP1 PUSH4 0x2CB777A6 EQ PUSH2 0xA7 JUMPI JUMPDEST PUSH0 DUP1 REVERT JUMPDEST PUSH2 0x87 PUSH2 0x113 JUMP JUMPDEST PUSH1 0x40 MLOAD PUSH2 0x94 SWAP2 SWAP1 PUSH2 0x1DC JUMP JUMPDEST PUSH1 0x40 MLOAD DUP1 SWAP2 SUB SWAP1 RETURN JUMPDEST PUSH2 0xA5 PUSH2 0x118 JUMP JUMPDEST STOP JUMPDEST PUSH2 0xAF PUSH2 0x151 JUMP JUMPDEST PUSH1 0x40 MLOAD PUSH2 0xBC SWAP2 SWAP1 PUSH2 0x20D JUMP JUMPDEST PUSH1 0x40 MLOAD DUP1 SWAP2 SUB SWAP1 RETURN JUMPDEST PUSH2 0xCD PUSH2 0x157 JUMP JUMPDEST STOP JUMPDEST PUSH2 0xD7 PUSH2 0x190 JUMP JUMPDEST PUSH1 0x40 MLOAD PUSH2 0xE4 SWAP2 SWAP1 PUSH2 0x241 JUMP JUMPDEST PUSH1 0x40 MLOAD DUP1 SWAP2 SUB SWAP1 RETURN JUMPDEST PUSH2 0x107 PUSH1 0x4 DUP1 CALLDATASIZE SUB DUP2 ADD SWAP1 PUSH2 0x102 SWAP2 SWAP1 PUSH2 0x288 JUMP JUMPDEST PUSH2 0x1A2 JUMP JUMPDEST STOP JUMPDEST PUSH2 0x111 PUSH2 0x1AB JUMP JUMPDEST STOP JUMPDEST PUSH0 SLOAD DUP2 JUMP JUMPDEST PUSH1 0x1 PUSH0 DUP2 DUP2 SWAP1 SLOAD SWAP1 PUSH2 0x100 EXP SWAP1 DIV PUSH1 0xFF AND DUP1 SWAP3 SWAP2 SWAP1 PUSH2 0x136 SWAP1 PUSH2 0x2E0 JUMP JUMPDEST SWAP2 SWAP1 PUSH2 0x100 EXP DUP2 SLOAD DUP2 PUSH1 0xFF MUL NOT AND SWAP1 DUP4 PUSH1 0xFF AND MUL OR SWAP1 SSTORE POP POP JUMP JUMPDEST PUSH1 0x2 SLOAD DUP2 JUMP JUMPDEST PUSH1 0x1 PUSH0 DUP2 DUP2 SWAP1 SLOAD SWAP1 PUSH2 0x100 EXP SWAP1 DIV PUSH1 0xFF AND DUP1 SWAP3 SWAP2 SWAP1 PUSH2 0x175 SWAP1 PUSH2 0x308 JUMP JUMPDEST SWAP2 SWAP1 PUSH2 0x100 EXP DUP2 SLOAD DUP2 PUSH1 0xFF MUL NOT AND SWAP1 DUP4 PUSH1 0xFF AND MUL OR SWAP1 SSTORE POP POP JUMP JUMPDEST PUSH1 0x1 PUSH0 SWAP1 SLOAD SWAP1 PUSH2 0x100 EXP SWAP1 DIV PUSH1 0xFF AND DUP2 JUMP JUMPDEST DUP1 PUSH0 DUP2 SWAP1 SSTORE POP POP JUMP JUMPDEST PUSH1 0x2 PUSH0 DUP2 SLOAD DUP1 SWAP3 SWAP2 SWAP1 PUSH2 0x1BD SWAP1 PUSH2 0x32F JUMP JUMPDEST SWAP2 SWAP1 POP SSTORE POP JUMP JUMPDEST PUSH0 DUP2 SWAP1 POP SWAP2 SWAP1 POP JUMP JUMPDEST PUSH2 0x1D6 DUP2 PUSH2 0x1C4 JUMP JUMPDEST DUP3 MSTORE POP POP JUMP JUMPDEST PUSH0 PUSH1 0x20 DUP3 ADD SWAP1 POP PUSH2 0x1EF PUSH0 DUP4 ADD DUP5 PUSH2 0x1CD JUMP JUMPDEST SWAP3 SWAP2 POP POP JUMP JUMPDEST PUSH0 DUP2 SWAP1 POP SWAP2 SWAP1 POP JUMP JUMPDEST PUSH2 0x207 DUP2 PUSH2 0x1F5 JUMP JUMPDEST DUP3 MSTORE POP POP JUMP JUMPDEST PUSH0 PUSH1 0x20 DUP3 ADD SWAP1 POP PUSH2 0x220 PUSH0 DUP4 ADD DUP5 PUSH2 0x1FE JUMP JUMPDEST SWAP3 SWAP2 POP POP JUMP JUMPDEST PUSH0 PUSH1 0xFF DUP3 AND SWAP1 POP SWAP2 SWAP1 POP JUMP JUMPDEST PUSH2 0x23B DUP2 PUSH2 0x226 JUMP JUMPDEST DUP3 MSTORE POP POP JUMP JUMPDEST PUSH0 PUSH1 0x20 DUP3 ADD SWAP1 POP PUSH2 0x254 PUSH0 DUP4 ADD DUP5 PUSH2 0x232 JUMP JUMPDEST SWAP3 SWAP2 POP POP JUMP JUMPDEST PUSH0 DUP1 REVERT JUMPDEST PUSH2 0x267 DUP2 PUSH2 0x1C4 JUMP JUMPDEST DUP2 EQ PUSH2 0x271 JUMPI PUSH0 DUP1 REVERT JUMPDEST POP JUMP JUMPDEST PUSH0 DUP2 CALLDATALOAD SWAP1 POP PUSH2 0x282 DUP2 PUSH2 0x25E JUMP JUMPDEST SWAP3 SWAP2 POP POP JUMP JUMPDEST PUSH0 PUSH1 0x20 DUP3 DUP5 SUB SLT ISZERO PUSH2 0x29D JUMPI PUSH2 0x29C PUSH2 0x25A JUMP JUMPDEST JUMPDEST PUSH0 PUSH2 0x2AA DUP5 DUP3 DUP6 ADD PUSH2 0x274 JUMP JUMPDEST SWAP2 POP POP SWAP3 SWAP2 POP POP JUMP JUMPDEST PUSH32 0x4E487B7100000000000000000000000000000000000000000000000000000000 PUSH0 MSTORE PUSH1 0x11 PUSH1 0x4 MSTORE PUSH1 0x24 PUSH0 REVERT JUMPDEST PUSH0 PUSH2 0x2EA DUP3 PUSH2 0x226 JUMP JUMPDEST SWAP2 POP PUSH1 0xFF DUP3 SUB PUSH2 0x2FD JUMPI PUSH2 0x2FC PUSH2 0x2B3 JUMP JUMPDEST JUMPDEST PUSH1 0x1 DUP3 ADD SWAP1 POP SWAP2 SWAP1 POP JUMP JUMPDEST PUSH0 PUSH2 0x312 DUP3 PUSH2 0x226 JUMP JUMPDEST SWAP2 POP PUSH0 DUP3 SUB PUSH2 0x324 JUMPI PUSH2 0x323 PUSH2 0x2B3 JUMP JUMPDEST JUMPDEST PUSH1 0x1 DUP3 SUB SWAP1 POP SWAP2 SWAP1 POP JUMP JUMPDEST PUSH0 PUSH2 0x339 DUP3 PUSH2 0x1F5 JUMP JUMPDEST SWAP2 POP PUSH32 0x7FFFFFFFFFFFFFFFFFFFFFFFFFFFFFFFFFFFFFFFFFFFFFFFFFFFFFFFFFFFFFFF DUP3 SUB PUSH2 0x36B JUMPI PUSH2 0x36A PUSH2 0x2B3 JUMP JUMPDEST JUMPDEST PUSH1 0x1 DUP3 ADD SWAP1 POP SWAP2 SWAP1 POP JUMP INVALID LOG2 PUSH5 0x6970667358 0x22 SLT KECCAK256 0xB5 DUP1 PUSH3 0xF80546 0xA8 0xD7 0x2A 0x23 SWAP15 PUSH25 0xAC5B44CB9826859239721DCDE6144BDE4C135EE664736F6C63 NUMBER STOP ADDMOD EQ STOP CALLER "
				},
				"gasEstimates": {
					"creation": {
						"codeDepositCost": "188000",
						"executionCost": "46602",
						"totalCost": "234602"
					},
					"external": {
						"decrementMyUint8()": "26694",
						"incrementInt()": "24563",
						"incrementMyUint8()": "26718",
						"myInt()": "2470",
						"myUint()": "2425",
						"myUint8()": "2488",
						"setMyUint(uint256)": "22558"
					}
				},
				"methodIdentifiers": {
					"decrementMyUint8()": "a0949422",
					"incrementInt()": "f102a71d",
					"incrementMyUint8()": "20e724c6",
					"myInt()": "2cb777a6",
					"myUint()": "06540f7e",
					"myUint8()": "e2a4b2af",
					"setMyUint(uint256)": "e492fd84"
				}
			},
			"storageLayout": {
				"storage": [
					{
						"astId": 3,
						"contract": "contracts/ExampleUint.sol:ExampleUint",
						"label": "myUint",
						"offset": 0,
						"slot": "0",
						"type": "t_uint256"
					},
					{
						"astId": 8,
						"contract": "contracts/ExampleUint.sol:ExampleUint",
						"label": "myUint8",
						"offset": 0,
						"slot": "1",
						"type": "t_uint8"
					},
					{
						"astId": 12,
						"contract": "contracts/ExampleUint.sol:ExampleUint",
						"label": "myInt",
						"offset": 0,
						"slot": "2",
						"type": "t_int256"
					}
				],
				"types": {
					"t_int256": {
						"encoding": "inplace",
						"label": "int256",
						"numberOfBytes": "32"
					},
					"t_uint256": {
						"encoding": "inplace",
						"label": "uint256",
						"numberOfBytes": "32"
					},
					"t_uint8": {
						"encoding": "inplace",
						"label": "uint8",
						"numberOfBytes": "1"
					}
				}
			},
			"userdoc": {
				"kind": "user",
				"methods": {},
				"version": 1
			}
		}
	}
}