{
	"data": {
		"bytecode": {
			"linkReferences": {},
			"object": "6080604052601060015f6101000a81548160ff021916908360ff1602179055507fffffffffffffffffffffffffffffffffffffffffffffffffffffffffffffffec60025534801561004e575f80fd5b506103ac8061005c5f395ff3fe608060405234801561000f575f80fd5b506004361061007b575f3560e01c8063a094942211610059578063a0949422146100c5578063e2a4b2af146100cf578063e492fd84146100ed578063f102a71d146101095761007b565b806306540f7e1461007f57806320e724c61461009d5780632cb777a6146100a7575b5f80fd5b610087610113565b60405161009491906101dc565b60405180910390f35b6100a5610118565b005b6100af610151565b6040516100bc919061020d565b60405180910390f35b6100cd610157565b005b6100d7610190565b6040516100e49190610241565b60405180910390f35b61010760048036038101906101029190610288565b6101a2565b005b6101116101ab565b005b5f5481565b60015f81819054906101000a900460ff1680929190610136906102e0565b91906101000a81548160ff021916908360ff16021790555050565b60025481565b60015f81819054906101000a900460ff168092919061017590610308565b91906101000a81548160ff021916908360ff16021790555050565b60015f9054906101000a900460ff1681565b805f8190555050565b60025f8154809291906101bd9061032f565b9190505550565b5f819050919050565b6101d6816101c4565b82525050565b5f6020820190506101ef5f8301846101cd565b92915050565b5f819050919050565b610207816101f5565b82525050565b5f6020820190506102205f8301846101fe565b92915050565b5f60ff82169050919050565b61023b81610226565b82525050565b5f6020820190506102545f830184610232565b92915050565b5f80fd5b610267816101c4565b8114610271575f80fd5b50565b5f813590506102828161025e565b92915050565b5f6020828403121561029d5761029c61025a565b5b5f6102aa84828501610274565b91505092915050565b7f4e487b71000000000000000000000000000000000000000000000000000000005f52601160045260245ffd5b5f6102ea82610226565b915060ff82036102fd576102fc6102b3565b5b600182019050919050565b5f61031282610226565b91505f8203610324576103236102b3565b5b600182039050919050565b5f610339826101f5565b91507f7fffffffffffffffffffffffffffffffffffffffffffffffffffffffffffffff820361036b5761036a6102b3565b5b60018201905091905056fea26469706673582212204f9f5fb43d7f779b92a752daa8cf9e33cfdd01877a00502dd257177d41ac0f0964736f6c63430008140033",
			"opcodes": "PUSH1 0x80 PUSH1 0x40 MSTORE PUSH1 0x10 PUSH1 0x1 PUSH0 PUSH2 0x100 EXP DUP2 SLOAD DUP2 PUSH1 0xFF MUL NOT AND SWAP1 DUP4 PUSH1 0xFF AND MUL OR SWAP1 SSTORE POP PUSH32 0xFFFFFFFFFFFFFFFFFFFFFFFFFFFFFFFFFFFFFFFFFFFFFFFFFFFFFFFFFFFFFFEC PUSH1 0x2 SSTORE CALLVALUE DUP1 ISZERO PUSH2 0x4E JUMPI PUSH0 DUP1 REVERT JUMPDEST POP PUSH2 0x3AC DUP1 PUSH2 0x5C PUSH0 CODECOPY PUSH0 RETURN INVALID PUSH1 0x80 PUSH1 0x40 MSTORE CALLVALUE DUP1 ISZERO PUSH2 0xF JUMPI PUSH0 DUP1 REVERT JUMPDEST POP PUSH1 0x4 CALLDATASIZE LT PUSH2 0x7B JUMPI PUSH0 CALLDATALOAD PUSH1 0xE0 SHR DUP1 PUSH4 0xA0949422 GT PUSH2 0x59 JUMPI DUP1 PUSH4 0xA0949422 EQ PUSH2 0xC5 JUMPI DUP1 PUSH4 0xE2A4B2AF EQ PUSH2 0xCF JUMPI DUP1 PUSH4 0xE492FD84 EQ PUSH2 0xED JUMPI DUP1 PUSH4 0xF102A71D EQ PUSH2 0x109 JUMPI PUSH2 0x7B JUMP JUMPDEST DUP1 PUSH4 0x6540F7E EQ PUSH2 0x7F JUMPI DUP1 PUSH4 0x20E724C6 EQ PUSH2 0x9D JUMPI DUP1 PUSH4 0x2CB777A6 EQ PUSH2 0xA7 JUMPI JUMPDEST PUSH0 DUP1 REVERT JUMPDEST PUSH2 0x87 PUSH2 0x113 JUMP JUMPDEST PUSH1 0x40 MLOAD PUSH2 0x94 SWAP2 SWAP1 PUSH2 0x1DC JUMP JUMPDEST PUSH1 0x40 MLOAD DUP1 SWAP2 SUB SWAP1 RETURN JUMPDEST PUSH2 0xA5 PUSH2 0x118 JUMP JUMPDEST STOP JUMPDEST PUSH2 0xAF PUSH2 0x151 JUMP JUMPDEST PUSH1 0x40 MLOAD PUSH2 0xBC SWAP2 SWAP1 PUSH2 0x20D JUMP JUMPDEST PUSH1 0x40 MLOAD DUP1 SWAP2 SUB SWAP1 RETURN JUMPDEST PUSH2 0xCD PUSH2 0x157 JUMP JUMPDEST STOP JUMPDEST PUSH2 0xD7 PUSH2 0x190 JUMP JUMPDEST PUSH1 0x40 MLOAD PUSH2 0xE4 SWAP2 SWAP1 PUSH2 0x241 JUMP JUMPDEST PUSH1 0x40 MLOAD DUP1 SWAP2 SUB SWAP1 RETURN JUMPDEST PUSH2 0x107 PUSH1 0x4 DUP1 CALLDATASIZE SUB DUP2 ADD SWAP1 PUSH2 0x102 SWAP2 SWAP1 PUSH2 0x288 JUMP JUMPDEST PUSH2 0x1A2 JUMP JUMPDEST STOP JUMPDEST PUSH2 0x111 PUSH2 0x1AB JUMP JUMPDEST STOP JUMPDEST PUSH0 SLOAD DUP2 JUMP JUMPDEST PUSH1 0x1 PUSH0 DUP2 DUP2 SWAP1 SLOAD SWAP1 PUSH2 0x100 EXP SWAP1 DIV PUSH1 0xFF AND DUP1 SWAP3 SWAP2 SWAP1 PUSH2 0x136 SWAP1 PUSH2 0x2E0 JUMP JUMPDEST SWAP2 SWAP1 PUSH2 0x100 EXP DUP2 SLOAD DUP2 PUSH1 0xFF MUL NOT AND SWAP1 DUP4 PUSH1 0xFF AND MUL OR SWAP1 SSTORE POP POP JUMP JUMPDEST PUSH1 0x2 SLOAD DUP2 JUMP JUMPDEST PUSH1 0x1 PUSH0 DUP2 DUP2 SWAP1 SLOAD SWAP1 PUSH2 0x100 EXP SWAP1 DIV PUSH1 0xFF AND DUP1 SWAP3 SWAP2 SWAP1 PUSH2 0x175 SWAP1 PUSH2 0x308 JUMP JUMPDEST SWAP2 SWAP1 PUSH2 0x100 EXP DUP2 SLOAD DUP2 PUSH1 0xFF MUL NOT AND SWAP1 DUP4 PUSH1 0xFF AND MUL OR SWAP1 SSTORE POP POP JUMP JUMPDEST PUSH1 0x1 PUSH0 SWAP1 SLOAD SWAP1 PUSH2 0x100 EXP SWAP1 DIV PUSH1 0xFF AND DUP2 JUMP JUMPDEST DUP1 PUSH0 DUP2 SWAP1 SSTORE POP POP JUMP JUMPDEST PUSH1 0x2 PUSH0 DUP2 SLOAD DUP1 SWAP3 SWAP2 SWAP1 PUSH2 0x1BD SWAP1 PUSH2 0x32F JUMP JUMPDEST SWAP2 SWAP1 POP SSTORE POP JUMP JUMPDEST PUSH0 DUP2 SWAP1 POP SWAP2 SWAP1 POP JUMP JUMPDEST PUSH2 0x1D6 DUP2 PUSH2 0x1C4 JUMP JUMPDEST DUP3 MSTORE POP POP JUMP JUMPDEST PUSH0 PUSH1 0x20 DUP3 ADD SWAP1 POP PUSH2 0x1EF PUSH0 DUP4 ADD DUP5 PUSH2 0x1CD JUMP JUMPDEST SWAP3 SWAP2 POP POP JUMP JUMPDEST PUSH0 DUP2 SWAP1 POP SWAP2 SWAP1 POP JUMP JUMPDEST PUSH2 0x207 DUP2 PUSH2 0x1F5 JUMP JUMPDEST DUP3 MSTORE POP POP JUMP JUMPDEST PUSH0 PUSH1 0x20 DUP3 ADD SWAP1 POP PUSH2 0x220 PUSH0 DUP4 ADD DUP5 PUSH2 0x1FE JUMP JUMPDEST SWAP3 SWAP2 POP POP JUMP JUMPDEST PUSH0 PUSH1 0xFF DUP3 AND SWAP1 POP SWAP2 SWAP1 POP JUMP JUMPDEST PUSH2 0x23B DUP2 PUSH2 0x226 JUMP JUMPDEST DUP3 MSTORE POP POP JUMP JUMPDEST PUSH0 PUSH1 0x20 DUP3 ADD SWAP1 POP PUSH2 0x254 PUSH0 DUP4 ADD DUP5 PUSH2 0x232 JUMP JUMPDEST SWAP3 SWAP2 POP POP JUMP JUMPDEST PUSH0 DUP1 REVERT JUMPDEST PUSH2 0x267 DUP2 PUSH2 0x1C4 JUMP JUMPDEST DUP2 EQ PUSH2 0x271 JUMPI PUSH0 DUP1 REVERT JUMPDEST POP JUMP JUMPDEST PUSH0 DUP2 CALLDATALOAD SWAP1 POP PUSH2 0x282 DUP2 PUSH2 0x25E JUMP JUMPDEST SWAP3 SWAP2 POP POP JUMP JUMPDEST PUSH0 PUSH1 0x20 DUP3 DUP5 SUB SLT ISZERO PUSH2 0x29D JUMPI PUSH2 0x29C PUSH2 0x25A JUMP JUMPDEST JUMPDEST PUSH0 PUSH2 0x2AA DUP5 DUP3 DUP6 ADD PUSH2 0x274 JUMP JUMPDEST SWAP2 POP POP SWAP3 SWAP2 POP POP JUMP JUMPDEST PUSH32 0x4E487B7100000000000000000000000000000000000000000000000000000000 PUSH0 MSTORE PUSH1 0x11 PUSH1 0x4 MSTORE PUSH1 0x24 PUSH0 REVERT JUMPDEST PUSH0 PUSH2 0x2EA DUP3 PUSH2 0x226 JUMP JUMPDEST SWAP2 POP PUSH1 0xFF DUP3 SUB PUSH2 0x2FD JUMPI PUSH2 0x2FC PUSH2 0x2B3 JUMP JUMPDEST JUMPDEST PUSH1 0x1 DUP3 ADD SWAP1 POP SWAP2 SWAP1 POP JUMP JUMPDEST PUSH0 PUSH2 0x312 DUP3 PUSH2 0x226 JUMP JUMPDEST SWAP2 POP PUSH0 DUP3 SUB PUSH2 0x324 JUMPI PUSH2 0x323 PUSH2 0x2B3 JUMP JUMPDEST JUMPDEST PUSH1 0x1 DUP3 SUB SWAP1 POP SWAP2 SWAP1 POP JUMP JUMPDEST PUSH0 PUSH2 0x339 DUP3 PUSH2 0x1F5 JUMP JUMPDEST SWAP2 POP PUSH32 0x7FFFFFFFFFFFFFFFFFFFFFFFFFFFFFFFFFFFFFFFFFFFFFFFFFFFFFFFFFFFFFFF DUP3 SUB PUSH2 0x36B JUMPI PUSH2 0x36A PUSH2 0x2B3 JUMP JUMPDEST JUMPDEST PUSH1 0x1 DUP3 ADD SWAP1 POP SWAP2 SWAP1 POP JUMP INVALID LOG2 PUSH5 0x6970667358 0x22 SLT KECCAK256 0x4F SWAP16 PUSH0 0xB4 RETURNDATASIZE PUSH32 0x779B92A752DAA8CF9E33CFDD01877A00502DD257177D41AC0F0964736F6C6343 STOP ADDMOD EQ STOP CALLER "
		},
		"gasEstimates": {
			"creation": {
				"codeDepositCost": "188000",
				"executionCost": "46602",
				"totalCost": "234602"
			},
			"external": {
				"decrementMyUint8()": "26694",
				"incrementInt()": "24563",
				"incrementMyUint8()": "26718",
				"myInt()": "2470",
				"myUint()": "2425",
				"myUint8()": "2488",
				"setMyUint(uint256)": "22558"
			}
		},
		"methodIdentifiers": {
			"decrementMyUint8()": "a0949422",
			"incrementInt()": "f102a71d",
			"incrementMyUint8()": "20e724c6",
			"myInt()": "2cb777a6",
			"myUint()": "06540f7e",
			"myUint8()": "e2a4b2af",
			"setMyUint(uint256)": "e492fd84"
		}
	},
	"abi": [
		{
			"inputs": [],
			"name": "decrementMyUint8",
			"outputs": [],
			"stateMutability": "nonpayable",
			"type": "function"
		},
		{
			"inputs": [],
			"name": "incrementInt",
			"outputs": [],
			"stateMutability": "nonpayable",
			"type": "function"
		},
		{
			"inputs": [],
			"name": "incrementMyUint8",
			"outputs": [],
			"stateMutability": "nonpayable",
			"type": "function"
		},
		{
			"inputs": [],
			"name": "myInt",
			"outputs": [
				{
					"internalType": "int256",
					"name": "",
					"type": "int256"
				}
			],
			"stateMutability": "view",
			"type": "function"
		},
		{
			"inputs": [],
			"name": "myUint",
			"outputs": [
				{
					"internalType": "uint256",
					"name": "",
					"type": "uint256"
				}
			],
			"stateMutability": "view",
			"type": "function"
		},
		{
			"inputs": [],
			"name": "myUint8",
			"outputs": [
				{
					"internalType": "uint8",
					"name": "",
					"type": "uint8"
				}
			],
			"stateMutability": "view",
			"type": "function"
		},
		{
			"inputs": [
				{
					"internalType": "uint256",
					"name": "_myUint",
					"type": "uint256"
				}
			],
			"name": "setMyUint",
			"outputs": [],
			"stateMutability": "nonpayable",
			"type": "function"
		}
	]
}