{
	"data": {
		"bytecode": {
			"linkReferences": {},
			"object": "60806040526040518060400160405280600b81526020017f48656c6c6f20776f726c640000000000000000000000000000000000000000008152505f908162000049919062000308565b506040518060400160405280600b81526020017f48656c6c6f20776f726c64000000000000000000000000000000000000000000815250600190816200009091906200044e565b503480156200009d575f80fd5b5062000532565b5f81519050919050565b7f4e487b71000000000000000000000000000000000000000000000000000000005f52604160045260245ffd5b7f4e487b71000000000000000000000000000000000000000000000000000000005f52602260045260245ffd5b5f60028204905060018216806200012057607f821691505b602082108103620001365762000135620000db565b5b50919050565b5f819050815f5260205f209050919050565b5f6020601f8301049050919050565b5f82821b905092915050565b5f600883026200019a7fffffffffffffffffffffffffffffffffffffffffffffffffffffffffffffffff826200015d565b620001a686836200015d565b95508019841693508086168417925050509392505050565b5f819050919050565b5f819050919050565b5f620001f0620001ea620001e484620001be565b620001c7565b620001be565b9050919050565b5f819050919050565b6200020b83620001d0565b620002236200021a82620001f7565b84845462000169565b825550505050565b5f90565b620002396200022b565b6200024681848462000200565b505050565b5b818110156200026d57620002615f826200022f565b6001810190506200024c565b5050565b601f821115620002bc5762000286816200013c565b62000291846200014e565b81016020851015620002a1578190505b620002b9620002b0856200014e565b8301826200024b565b50505b505050565b5f82821c905092915050565b5f620002de5f1984600802620002c1565b1980831691505092915050565b5f620002f88383620002cd565b9150826002028217905092915050565b6200031382620000a4565b67ffffffffffffffff8111156200032f576200032e620000ae565b5b6200033b825462000108565b6200034882828562000271565b5f60209050601f8311600181146200037e575f841562000369578287015190505b620003758582620002eb565b865550620003e4565b601f1984166200038e866200013c565b5f5b82811015620003b75784890151825560018201915060208501945060208101905062000390565b86831015620003d75784890151620003d3601f891682620002cd565b8355505b6001600288020188555050505b505050505050565b5f819050815f5260205f209050919050565b601f82111562000449576200041381620003ec565b6200041e846200014e565b810160208510156200042e578190505b620004466200043d856200014e565b8301826200024b565b50505b505050565b6200045982620000a4565b67ffffffffffffffff811115620004755762000474620000ae565b5b62000481825462000108565b6200048e828285620003fe565b5f60209050601f831160018114620004c4575f8415620004af578287015190505b620004bb8582620002eb565b8655506200052a565b601f198416620004d486620003ec565b5f5b82811015620004fd57848901518255600182019150602085019450602081019050620004d6565b868310156200051d578489015162000519601f891682620002cd565b8355505b6001600288020188555050505b505050505050565b61033a80620005405f395ff3fe608060405234801561000f575f80fd5b5060043610610034575f3560e01c8063492bfa1814610038578063712f460214610056575b5f80fd5b610040610074565b60405161004d9190610215565b60405180910390f35b61005e6100ff565b60405161006b9190610287565b60405180910390f35b5f8054610080906102d4565b80601f01602080910402602001604051908101604052809291908181526020018280546100ac906102d4565b80156100f75780601f106100ce576101008083540402835291602001916100f7565b820191905f5260205f20905b8154815290600101906020018083116100da57829003601f168201915b505050505081565b6001805461010c906102d4565b80601f0160208091040260200160405190810160405280929190818152602001828054610138906102d4565b80156101835780601f1061015a57610100808354040283529160200191610183565b820191905f5260205f20905b81548152906001019060200180831161016657829003601f168201915b505050505081565b5f81519050919050565b5f82825260208201905092915050565b5f5b838110156101c25780820151818401526020810190506101a7565b5f8484015250505050565b5f601f19601f8301169050919050565b5f6101e78261018b565b6101f18185610195565b93506102018185602086016101a5565b61020a816101cd565b840191505092915050565b5f6020820190508181035f83015261022d81846101dd565b905092915050565b5f81519050919050565b5f82825260208201905092915050565b5f61025982610235565b610263818561023f565b93506102738185602086016101a5565b61027c816101cd565b840191505092915050565b5f6020820190508181035f83015261029f818461024f565b905092915050565b7f4e487b71000000000000000000000000000000000000000000000000000000005f52602260045260245ffd5b5f60028204905060018216806102eb57607f821691505b6020821081036102fe576102fd6102a7565b5b5091905056fea26469706673582212208d4e7b3e647bea1ff4d6e78e6c6e0ba078949a7e5daf7b8281754601b3f11d6464736f6c63430008140033",
			"opcodes": "PUSH1 0x80 PUSH1 0x40 MSTORE PUSH1 0x40 MLOAD DUP1 PUSH1 0x40 ADD PUSH1 0x40 MSTORE DUP1 PUSH1 0xB DUP2 MSTORE PUSH1 0x20 ADD PUSH32 0x48656C6C6F20776F726C64000000000000000000000000000000000000000000 DUP2 MSTORE POP PUSH0 SWAP1 DUP2 PUSH3 0x49 SWAP2 SWAP1 PUSH3 0x308 JUMP JUMPDEST POP PUSH1 0x40 MLOAD DUP1 PUSH1 0x40 ADD PUSH1 0x40 MSTORE DUP1 PUSH1 0xB DUP2 MSTORE PUSH1 0x20 ADD PUSH32 0x48656C6C6F20776F726C64000000000000000000000000000000000000000000 DUP2 MSTORE POP PUSH1 0x1 SWAP1 DUP2 PUSH3 0x90 SWAP2 SWAP1 PUSH3 0x44E JUMP JUMPDEST POP CALLVALUE DUP1 ISZERO PUSH3 0x9D JUMPI PUSH0 DUP1 REVERT JUMPDEST POP PUSH3 0x532 JUMP JUMPDEST PUSH0 DUP2 MLOAD SWAP1 POP SWAP2 SWAP1 POP JUMP JUMPDEST PUSH32 0x4E487B7100000000000000000000000000000000000000000000000000000000 PUSH0 MSTORE PUSH1 0x41 PUSH1 0x4 MSTORE PUSH1 0x24 PUSH0 REVERT JUMPDEST PUSH32 0x4E487B7100000000000000000000000000000000000000000000000000000000 PUSH0 MSTORE PUSH1 0x22 PUSH1 0x4 MSTORE PUSH1 0x24 PUSH0 REVERT JUMPDEST PUSH0 PUSH1 0x2 DUP3 DIV SWAP1 POP PUSH1 0x1 DUP3 AND DUP1 PUSH3 0x120 JUMPI PUSH1 0x7F DUP3 AND SWAP2 POP JUMPDEST PUSH1 0x20 DUP3 LT DUP2 SUB PUSH3 0x136 JUMPI PUSH3 0x135 PUSH3 0xDB JUMP JUMPDEST JUMPDEST POP SWAP2 SWAP1 POP JUMP JUMPDEST PUSH0 DUP2 SWAP1 POP DUP2 PUSH0 MSTORE PUSH1 0x20 PUSH0 KECCAK256 SWAP1 POP SWAP2 SWAP1 POP JUMP JUMPDEST PUSH0 PUSH1 0x20 PUSH1 0x1F DUP4 ADD DIV SWAP1 POP SWAP2 SWAP1 POP JUMP JUMPDEST PUSH0 DUP3 DUP3 SHL SWAP1 POP SWAP3 SWAP2 POP POP JUMP JUMPDEST PUSH0 PUSH1 0x8 DUP4 MUL PUSH3 0x19A PUSH32 0xFFFFFFFFFFFFFFFFFFFFFFFFFFFFFFFFFFFFFFFFFFFFFFFFFFFFFFFFFFFFFFFF DUP3 PUSH3 0x15D JUMP JUMPDEST PUSH3 0x1A6 DUP7 DUP4 PUSH3 0x15D JUMP JUMPDEST SWAP6 POP DUP1 NOT DUP5 AND SWAP4 POP DUP1 DUP7 AND DUP5 OR SWAP3 POP POP POP SWAP4 SWAP3 POP POP POP JUMP JUMPDEST PUSH0 DUP2 SWAP1 POP SWAP2 SWAP1 POP JUMP JUMPDEST PUSH0 DUP2 SWAP1 POP SWAP2 SWAP1 POP JUMP JUMPDEST PUSH0 PUSH3 0x1F0 PUSH3 0x1EA PUSH3 0x1E4 DUP5 PUSH3 0x1BE JUMP JUMPDEST PUSH3 0x1C7 JUMP JUMPDEST PUSH3 0x1BE JUMP JUMPDEST SWAP1 POP SWAP2 SWAP1 POP JUMP JUMPDEST PUSH0 DUP2 SWAP1 POP SWAP2 SWAP1 POP JUMP JUMPDEST PUSH3 0x20B DUP4 PUSH3 0x1D0 JUMP JUMPDEST PUSH3 0x223 PUSH3 0x21A DUP3 PUSH3 0x1F7 JUMP JUMPDEST DUP5 DUP5 SLOAD PUSH3 0x169 JUMP JUMPDEST DUP3 SSTORE POP POP POP POP JUMP JUMPDEST PUSH0 SWAP1 JUMP JUMPDEST PUSH3 0x239 PUSH3 0x22B JUMP JUMPDEST PUSH3 0x246 DUP2 DUP5 DUP5 PUSH3 0x200 JUMP JUMPDEST POP POP POP JUMP JUMPDEST JUMPDEST DUP2 DUP2 LT ISZERO PUSH3 0x26D JUMPI PUSH3 0x261 PUSH0 DUP3 PUSH3 0x22F JUMP JUMPDEST PUSH1 0x1 DUP2 ADD SWAP1 POP PUSH3 0x24C JUMP JUMPDEST POP POP JUMP JUMPDEST PUSH1 0x1F DUP3 GT ISZERO PUSH3 0x2BC JUMPI PUSH3 0x286 DUP2 PUSH3 0x13C JUMP JUMPDEST PUSH3 0x291 DUP5 PUSH3 0x14E JUMP JUMPDEST DUP2 ADD PUSH1 0x20 DUP6 LT ISZERO PUSH3 0x2A1 JUMPI DUP2 SWAP1 POP JUMPDEST PUSH3 0x2B9 PUSH3 0x2B0 DUP6 PUSH3 0x14E JUMP JUMPDEST DUP4 ADD DUP3 PUSH3 0x24B JUMP JUMPDEST POP POP JUMPDEST POP POP POP JUMP JUMPDEST PUSH0 DUP3 DUP3 SHR SWAP1 POP SWAP3 SWAP2 POP POP JUMP JUMPDEST PUSH0 PUSH3 0x2DE PUSH0 NOT DUP5 PUSH1 0x8 MUL PUSH3 0x2C1 JUMP JUMPDEST NOT DUP1 DUP4 AND SWAP2 POP POP SWAP3 SWAP2 POP POP JUMP JUMPDEST PUSH0 PUSH3 0x2F8 DUP4 DUP4 PUSH3 0x2CD JUMP JUMPDEST SWAP2 POP DUP3 PUSH1 0x2 MUL DUP3 OR SWAP1 POP SWAP3 SWAP2 POP POP JUMP JUMPDEST PUSH3 0x313 DUP3 PUSH3 0xA4 JUMP JUMPDEST PUSH8 0xFFFFFFFFFFFFFFFF DUP2 GT ISZERO PUSH3 0x32F JUMPI PUSH3 0x32E PUSH3 0xAE JUMP JUMPDEST JUMPDEST PUSH3 0x33B DUP3 SLOAD PUSH3 0x108 JUMP JUMPDEST PUSH3 0x348 DUP3 DUP3 DUP6 PUSH3 0x271 JUMP JUMPDEST PUSH0 PUSH1 0x20 SWAP1 POP PUSH1 0x1F DUP4 GT PUSH1 0x1 DUP2 EQ PUSH3 0x37E JUMPI PUSH0 DUP5 ISZERO PUSH3 0x369 JUMPI DUP3 DUP8 ADD MLOAD SWAP1 POP JUMPDEST PUSH3 0x375 DUP6 DUP3 PUSH3 0x2EB JUMP JUMPDEST DUP7 SSTORE POP PUSH3 0x3E4 JUMP JUMPDEST PUSH1 0x1F NOT DUP5 AND PUSH3 0x38E DUP7 PUSH3 0x13C JUMP JUMPDEST PUSH0 JUMPDEST DUP3 DUP2 LT ISZERO PUSH3 0x3B7 JUMPI DUP5 DUP10 ADD MLOAD DUP3 SSTORE PUSH1 0x1 DUP3 ADD SWAP2 POP PUSH1 0x20 DUP6 ADD SWAP5 POP PUSH1 0x20 DUP2 ADD SWAP1 POP PUSH3 0x390 JUMP JUMPDEST DUP7 DUP4 LT ISZERO PUSH3 0x3D7 JUMPI DUP5 DUP10 ADD MLOAD PUSH3 0x3D3 PUSH1 0x1F DUP10 AND DUP3 PUSH3 0x2CD JUMP JUMPDEST DUP4 SSTORE POP JUMPDEST PUSH1 0x1 PUSH1 0x2 DUP9 MUL ADD DUP9 SSTORE POP POP POP JUMPDEST POP POP POP POP POP POP JUMP JUMPDEST PUSH0 DUP2 SWAP1 POP DUP2 PUSH0 MSTORE PUSH1 0x20 PUSH0 KECCAK256 SWAP1 POP SWAP2 SWAP1 POP JUMP JUMPDEST PUSH1 0x1F DUP3 GT ISZERO PUSH3 0x449 JUMPI PUSH3 0x413 DUP2 PUSH3 0x3EC JUMP JUMPDEST PUSH3 0x41E DUP5 PUSH3 0x14E JUMP JUMPDEST DUP2 ADD PUSH1 0x20 DUP6 LT ISZERO PUSH3 0x42E JUMPI DUP2 SWAP1 POP JUMPDEST PUSH3 0x446 PUSH3 0x43D DUP6 PUSH3 0x14E JUMP JUMPDEST DUP4 ADD DUP3 PUSH3 0x24B JUMP JUMPDEST POP POP JUMPDEST POP POP POP JUMP JUMPDEST PUSH3 0x459 DUP3 PUSH3 0xA4 JUMP JUMPDEST PUSH8 0xFFFFFFFFFFFFFFFF DUP2 GT ISZERO PUSH3 0x475 JUMPI PUSH3 0x474 PUSH3 0xAE JUMP JUMPDEST JUMPDEST PUSH3 0x481 DUP3 SLOAD PUSH3 0x108 JUMP JUMPDEST PUSH3 0x48E DUP3 DUP3 DUP6 PUSH3 0x3FE JUMP JUMPDEST PUSH0 PUSH1 0x20 SWAP1 POP PUSH1 0x1F DUP4 GT PUSH1 0x1 DUP2 EQ PUSH3 0x4C4 JUMPI PUSH0 DUP5 ISZERO PUSH3 0x4AF JUMPI DUP3 DUP8 ADD MLOAD SWAP1 POP JUMPDEST PUSH3 0x4BB DUP6 DUP3 PUSH3 0x2EB JUMP JUMPDEST DUP7 SSTORE POP PUSH3 0x52A JUMP JUMPDEST PUSH1 0x1F NOT DUP5 AND PUSH3 0x4D4 DUP7 PUSH3 0x3EC JUMP JUMPDEST PUSH0 JUMPDEST DUP3 DUP2 LT ISZERO PUSH3 0x4FD JUMPI DUP5 DUP10 ADD MLOAD DUP3 SSTORE PUSH1 0x1 DUP3 ADD SWAP2 POP PUSH1 0x20 DUP6 ADD SWAP5 POP PUSH1 0x20 DUP2 ADD SWAP1 POP PUSH3 0x4D6 JUMP JUMPDEST DUP7 DUP4 LT ISZERO PUSH3 0x51D JUMPI DUP5 DUP10 ADD MLOAD PUSH3 0x519 PUSH1 0x1F DUP10 AND DUP3 PUSH3 0x2CD JUMP JUMPDEST DUP4 SSTORE POP JUMPDEST PUSH1 0x1 PUSH1 0x2 DUP9 MUL ADD DUP9 SSTORE POP POP POP JUMPDEST POP POP POP POP POP POP JUMP JUMPDEST PUSH2 0x33A DUP1 PUSH3 0x540 PUSH0 CODECOPY PUSH0 RETURN INVALID PUSH1 0x80 PUSH1 0x40 MSTORE CALLVALUE DUP1 ISZERO PUSH2 0xF JUMPI PUSH0 DUP1 REVERT JUMPDEST POP PUSH1 0x4 CALLDATASIZE LT PUSH2 0x34 JUMPI PUSH0 CALLDATALOAD PUSH1 0xE0 SHR DUP1 PUSH4 0x492BFA18 EQ PUSH2 0x38 JUMPI DUP1 PUSH4 0x712F4602 EQ PUSH2 0x56 JUMPI JUMPDEST PUSH0 DUP1 REVERT JUMPDEST PUSH2 0x40 PUSH2 0x74 JUMP JUMPDEST PUSH1 0x40 MLOAD PUSH2 0x4D SWAP2 SWAP1 PUSH2 0x215 JUMP JUMPDEST PUSH1 0x40 MLOAD DUP1 SWAP2 SUB SWAP1 RETURN JUMPDEST PUSH2 0x5E PUSH2 0xFF JUMP JUMPDEST PUSH1 0x40 MLOAD PUSH2 0x6B SWAP2 SWAP1 PUSH2 0x287 JUMP JUMPDEST PUSH1 0x40 MLOAD DUP1 SWAP2 SUB SWAP1 RETURN JUMPDEST PUSH0 DUP1 SLOAD PUSH2 0x80 SWAP1 PUSH2 0x2D4 JUMP JUMPDEST DUP1 PUSH1 0x1F ADD PUSH1 0x20 DUP1 SWAP2 DIV MUL PUSH1 0x20 ADD PUSH1 0x40 MLOAD SWAP1 DUP2 ADD PUSH1 0x40 MSTORE DUP1 SWAP3 SWAP2 SWAP1 DUP2 DUP2 MSTORE PUSH1 0x20 ADD DUP3 DUP1 SLOAD PUSH2 0xAC SWAP1 PUSH2 0x2D4 JUMP JUMPDEST DUP1 ISZERO PUSH2 0xF7 JUMPI DUP1 PUSH1 0x1F LT PUSH2 0xCE JUMPI PUSH2 0x100 DUP1 DUP4 SLOAD DIV MUL DUP4 MSTORE SWAP2 PUSH1 0x20 ADD SWAP2 PUSH2 0xF7 JUMP JUMPDEST DUP3 ADD SWAP2 SWAP1 PUSH0 MSTORE PUSH1 0x20 PUSH0 KECCAK256 SWAP1 JUMPDEST DUP2 SLOAD DUP2 MSTORE SWAP1 PUSH1 0x1 ADD SWAP1 PUSH1 0x20 ADD DUP1 DUP4 GT PUSH2 0xDA JUMPI DUP3 SWAP1 SUB PUSH1 0x1F AND DUP3 ADD SWAP2 JUMPDEST POP POP POP POP POP DUP2 JUMP JUMPDEST PUSH1 0x1 DUP1 SLOAD PUSH2 0x10C SWAP1 PUSH2 0x2D4 JUMP JUMPDEST DUP1 PUSH1 0x1F ADD PUSH1 0x20 DUP1 SWAP2 DIV MUL PUSH1 0x20 ADD PUSH1 0x40 MLOAD SWAP1 DUP2 ADD PUSH1 0x40 MSTORE DUP1 SWAP3 SWAP2 SWAP1 DUP2 DUP2 MSTORE PUSH1 0x20 ADD DUP3 DUP1 SLOAD PUSH2 0x138 SWAP1 PUSH2 0x2D4 JUMP JUMPDEST DUP1 ISZERO PUSH2 0x183 JUMPI DUP1 PUSH1 0x1F LT PUSH2 0x15A JUMPI PUSH2 0x100 DUP1 DUP4 SLOAD DIV MUL DUP4 MSTORE SWAP2 PUSH1 0x20 ADD SWAP2 PUSH2 0x183 JUMP JUMPDEST DUP3 ADD SWAP2 SWAP1 PUSH0 MSTORE PUSH1 0x20 PUSH0 KECCAK256 SWAP1 JUMPDEST DUP2 SLOAD DUP2 MSTORE SWAP1 PUSH1 0x1 ADD SWAP1 PUSH1 0x20 ADD DUP1 DUP4 GT PUSH2 0x166 JUMPI DUP3 SWAP1 SUB PUSH1 0x1F AND DUP3 ADD SWAP2 JUMPDEST POP POP POP POP POP DUP2 JUMP JUMPDEST PUSH0 DUP2 MLOAD SWAP1 POP SWAP2 SWAP1 POP JUMP JUMPDEST PUSH0 DUP3 DUP3 MSTORE PUSH1 0x20 DUP3 ADD SWAP1 POP SWAP3 SWAP2 POP POP JUMP JUMPDEST PUSH0 JUMPDEST DUP4 DUP2 LT ISZERO PUSH2 0x1C2 JUMPI DUP1 DUP3 ADD MLOAD DUP2 DUP5 ADD MSTORE PUSH1 0x20 DUP2 ADD SWAP1 POP PUSH2 0x1A7 JUMP JUMPDEST PUSH0 DUP5 DUP5 ADD MSTORE POP POP POP POP JUMP JUMPDEST PUSH0 PUSH1 0x1F NOT PUSH1 0x1F DUP4 ADD AND SWAP1 POP SWAP2 SWAP1 POP JUMP JUMPDEST PUSH0 PUSH2 0x1E7 DUP3 PUSH2 0x18B JUMP JUMPDEST PUSH2 0x1F1 DUP2 DUP6 PUSH2 0x195 JUMP JUMPDEST SWAP4 POP PUSH2 0x201 DUP2 DUP6 PUSH1 0x20 DUP7 ADD PUSH2 0x1A5 JUMP JUMPDEST PUSH2 0x20A DUP2 PUSH2 0x1CD JUMP JUMPDEST DUP5 ADD SWAP2 POP POP SWAP3 SWAP2 POP POP JUMP JUMPDEST PUSH0 PUSH1 0x20 DUP3 ADD SWAP1 POP DUP2 DUP2 SUB PUSH0 DUP4 ADD MSTORE PUSH2 0x22D DUP2 DUP5 PUSH2 0x1DD JUMP JUMPDEST SWAP1 POP SWAP3 SWAP2 POP POP JUMP JUMPDEST PUSH0 DUP2 MLOAD SWAP1 POP SWAP2 SWAP1 POP JUMP JUMPDEST PUSH0 DUP3 DUP3 MSTORE PUSH1 0x20 DUP3 ADD SWAP1 POP SWAP3 SWAP2 POP POP JUMP JUMPDEST PUSH0 PUSH2 0x259 DUP3 PUSH2 0x235 JUMP JUMPDEST PUSH2 0x263 DUP2 DUP6 PUSH2 0x23F JUMP JUMPDEST SWAP4 POP PUSH2 0x273 DUP2 DUP6 PUSH1 0x20 DUP7 ADD PUSH2 0x1A5 JUMP JUMPDEST PUSH2 0x27C DUP2 PUSH2 0x1CD JUMP JUMPDEST DUP5 ADD SWAP2 POP POP SWAP3 SWAP2 POP POP JUMP JUMPDEST PUSH0 PUSH1 0x20 DUP3 ADD SWAP1 POP DUP2 DUP2 SUB PUSH0 DUP4 ADD MSTORE PUSH2 0x29F DUP2 DUP5 PUSH2 0x24F JUMP JUMPDEST SWAP1 POP SWAP3 SWAP2 POP POP JUMP JUMPDEST PUSH32 0x4E487B7100000000000000000000000000000000000000000000000000000000 PUSH0 MSTORE PUSH1 0x22 PUSH1 0x4 MSTORE PUSH1 0x24 PUSH0 REVERT JUMPDEST PUSH0 PUSH1 0x2 DUP3 DIV SWAP1 POP PUSH1 0x1 DUP3 AND DUP1 PUSH2 0x2EB JUMPI PUSH1 0x7F DUP3 AND SWAP2 POP JUMPDEST PUSH1 0x20 DUP3 LT DUP2 SUB PUSH2 0x2FE JUMPI PUSH2 0x2FD PUSH2 0x2A7 JUMP JUMPDEST JUMPDEST POP SWAP2 SWAP1 POP JUMP INVALID LOG2 PUSH5 0x6970667358 0x22 SLT KECCAK256 DUP14 0x4E PUSH28 0x3E647BEA1FF4D6E78E6C6E0BA078949A7E5DAF7B8281754601B3F11D PUSH5 0x64736F6C63 NUMBER STOP ADDMOD EQ STOP CALLER "
		},
		"gasEstimates": {
			"creation": {
				"codeDepositCost": "165200",
				"executionCost": "infinite",
				"totalCost": "infinite"
			},
			"external": {
				"myBytes()": "infinite",
				"myString()": "infinite"
			}
		},
		"methodIdentifiers": {
			"myBytes()": "712f4602",
			"myString()": "492bfa18"
		}
	},
	"abi": [
		{
			"inputs": [],
			"name": "myBytes",
			"outputs": [
				{
					"internalType": "bytes",
					"name": "",
					"type": "bytes"
				}
			],
			"stateMutability": "view",
			"type": "function"
		},
		{
			"inputs": [],
			"name": "myString",
			"outputs": [
				{
					"internalType": "string",
					"name": "",
					"type": "string"
				}
			],
			"stateMutability": "view",
			"type": "function"
		}
	]
}